{
  "contractName": "ArbitrageFactory",
  "abi": [
    {
      "inputs": [
        {
          "internalType": "address",
          "name": "_dexA",
          "type": "address"
        },
        {
          "internalType": "address",
          "name": "_dexB",
          "type": "address"
        },
        {
          "internalType": "address",
          "name": "_flashLoanProvider",
          "type": "address"
        },
        {
          "internalType": "address",
          "name": "_token0",
          "type": "address"
        },
        {
          "internalType": "address",
          "name": "_token1",
          "type": "address"
        }
      ],
      "name": "createArbitrage",
      "outputs": [],
      "stateMutability": "nonpayable",
      "type": "function"
    },
    {
      "inputs": [
        {
          "internalType": "address",
          "name": "_user",
          "type": "address"
        }
      ],
      "name": "getUserArbitrages",
      "outputs": [
        {
          "internalType": "address[]",
          "name": "",
          "type": "address[]"
        }
      ],
      "stateMutability": "view",
      "type": "function",
      "constant": true
    },
    {
      "inputs": [
        {
          "internalType": "address",
          "name": "_user",
          "type": "address"
        }
      ],
      "name": "getUserArbitragesCount",
      "outputs": [
        {
          "internalType": "uint256",
          "name": "",
          "type": "uint256"
        }
      ],
      "stateMutability": "view",
      "type": "function",
      "constant": true
    },
    {
      "inputs": [
        {
          "internalType": "address",
          "name": "_user",
          "type": "address"
        },
        {
          "internalType": "uint256",
          "name": "index",
          "type": "uint256"
        }
      ],
      "name": "getUserArbitrageByIndex",
      "outputs": [
        {
          "internalType": "address",
          "name": "",
          "type": "address"
        }
      ],
      "stateMutability": "view",
      "type": "function",
      "constant": true
    }
  ],
  "bytecode": "0x608060405234801561001057600080fd5b50611264806100206000396000f3fe608060405234801561001057600080fd5b506004361061004c5760003560e01c8063122011d71461005157806351688aac14610066578063a676841f14610096578063ae8fb2aa146100cd575b600080fd5b61006461005f3660046102df565b6100ed565b005b610079610074366004610344565b61018f565b6040516001600160a01b0390911681526020015b60405180910390f35b6100bf6100a436600461036e565b6001600160a01b031660009081526020819052604090205490565b60405190815260200161008d565b6100e06100db36600461036e565b610242565b60405161008d9190610390565b60008585858585604051610100906102b6565b6001600160a01b0395861681529385166020850152918416604084015283166060830152909116608082015260a001604051809103906000f08015801561014b573d6000803e3d6000fd5b50336000908152602081815260408220805460018101825590835291200180546001600160a01b0319166001600160a01b0392909216919091179055505050505050565b600061019f565b60405180910390fd5b6001600160a01b0383166000908152602081905260409020548211156101fc5760405162461bcd60e51b8152602060048201526012602482015271496e646578206f7574206f662072616e676560701b6044820152606401610196565b6001600160a01b0383166000908152602081905260409020805483908110610226576102266103dd565b6000918252602090912001546001600160a01b03169392505050565b6001600160a01b038116600090815260208181526040918290208054835181840281018401909452808452606093928301828280156102aa57602002820191906000526020600020905b81546001600160a01b0316815260019091019060200180831161028c575b50505050509050919050565b610e3b806103f483390190565b80356001600160a01b03811681146102da57600080fd5b919050565b600080600080600060a086880312156102f757600080fd5b610300866102c3565b945061030e602087016102c3565b935061031c604087016102c3565b925061032a606087016102c3565b9150610338608087016102c3565b90509295509295909350565b6000806040838503121561035757600080fd5b610360836102c3565b946020939093013593505050565b60006020828403121561038057600080fd5b610389826102c3565b9392505050565b6020808252825182820181905260009190848201906040850190845b818110156103d15783516001600160a01b0316835292840192918401916001016103ac565b50909695505050505050565b634e487b7160e01b600052603260045260246000fdfe608060405234801561001057600080fd5b50604051610e3b380380610e3b83398101604081905261002f916100b7565b60008054326001600160a01b0319918216179091556001805482166001600160a01b03978816179055600280548216958716959095179094556003805485169386169390931790925560048054841691851691909117905560058054909216921691909117905561011c565b80516001600160a01b03811681146100b257600080fd5b919050565b600080600080600060a086880312156100cf57600080fd5b6100d88661009b565b94506100e66020870161009b565b93506100f46040870161009b565b92506101026060870161009b565b91506101106080870161009b565b90509295509295909350565b610d108061012b6000396000f3fe608060405234801561001057600080fd5b506004361061009e5760003560e01c8063639af6d011610066578063639af6d0146101205780638da5cb5b14610133578063d21220a714610146578063e086e5ec14610159578063fa29e6b11461016157600080fd5b80630dfe1681146100a357806332978f79146100d257806332fe3498146100e757806349df728c146100fa5780634c02a7a71461010d575b600080fd5b6004546100b6906001600160a01b031681565b6040516001600160a01b03909116815260200160405180910390f35b6100e56100e0366004610b6d565b610174565b005b6100e56100f5366004610ba2565b6108b3565b6100e5610108366004610bbb565b61094c565b6001546100b6906001600160a01b031681565b6003546100b6906001600160a01b031681565b6000546100b6906001600160a01b031681565b6005546100b6906001600160a01b031681565b6100e5610aa7565b6002546100b6906001600160a01b031681565b604080516002808252606082018352600092602083019080368337505060045482519293506001600160a01b0316918391506000906101b5576101b5610bdd565b6001600160a01b0392831660209182029290920101526005548251911690829060019081106101e6576101e6610bdd565b6001600160a01b0392831660209182029290920101526004805460015460405163095ea7b360e01b815290841692810192909252602482018790529091169063095ea7b3906044016020604051808303816000875af115801561024d573d6000803e3d6000fd5b505050506040513d601f19601f820116820180604052508101906102719190610bf3565b5060015460405163c87bff2560e01b81526000916001600160a01b03169063c87bff25906102a790859089908690600401610c15565b6020604051808303816000875af11580156102c6573d6000803e3d6000fd5b505050506040513d601f19601f820116820180604052508101906102ea9190610c6b565b6040805160028082526060820183529293506000929091602083019080368337505060055482519293506001600160a01b03169183915060009061033057610330610bdd565b6001600160a01b03928316602091820292909201015260045482519116908290600190811061036157610361610bdd565b60200260200101906001600160a01b031690816001600160a01b031681525050600082116103cf5760405162461bcd60e51b81526020600482015260166024820152754e6f20746f6b656e732061667465722073776170203160501b60448201526064015b60405180910390fd5b60055460025460405163095ea7b360e01b81526001600160a01b0391821660048201526024810185905291169063095ea7b3906044016020604051808303816000875af1158015610424573d6000803e3d6000fd5b505050506040513d601f19601f820116820180604052508101906104489190610bf3565b5060025460405163c87bff2560e01b81526000916001600160a01b03169063c87bff259061047e90859087908690600401610c15565b6020604051808303816000875af115801561049d573d6000803e3d6000fd5b505050506040513d601f19601f820116820180604052508101906104c19190610c6b565b90506000811161050c5760405162461bcd60e51b81526020600482015260166024820152752737903a37b5b2b7399030b33a32b91039bbb0b8101960511b60448201526064016103c6565b600480546040516370a0823160e01b815230928101929092526000916001600160a01b03909116906370a0823190602401602060405180830381865afa15801561055a573d6000803e3d6000fd5b505050506040513d601f19601f8201168201806040525081019061057e9190610c6b565b9050818110156105e05760405162461bcd60e51b815260206004820152602760248201527f42616c616e6365206c657373207468616e20746f6b656e732066726f6d206465604482015266782e205754462160c81b60648201526084016103c6565b60006105ec888a610c84565b905080831161065b5760405162461bcd60e51b815260206004820152603560248201527f417262697472616765206e6f742070726f66697461626c653b2063616e6e6f7460448201527420636f76657220666c617368206c6f616e2066656560581b60648201526084016103c6565b6004805460405163a9059cbb60e01b81526001600160a01b038a8116938201939093526024810184905291169063a9059cbb906044016020604051808303816000875af11580156106b0573d6000803e3d6000fd5b505050506040513d601f19601f820116820180604052508101906106d49190610bf3565b6107205760405162461bcd60e51b815260206004820152601960248201527f436f756c64206e6f74207472616e7366657220746f6b656e730000000000000060448201526064016103c6565b600480546040516370a0823160e01b815230928101929092526000916001600160a01b03909116906370a0823190602401602060405180830381865afa15801561076e573d6000803e3d6000fd5b505050506040513d601f19601f820116820180604052508101906107929190610c6b565b9050600081116107d55760405162461bcd60e51b815260206004820152600e60248201526d4e6f2070726f666974206d61646560901b60448201526064016103c6565b6004805460005460405163a9059cbb60e01b81526001600160a01b039182169381019390935260248301849052169063a9059cbb906044016020604051808303816000875af115801561082c573d6000803e3d6000fd5b505050506040513d601f19601f820116820180604052508101906108509190610bf3565b6108a75760405162461bcd60e51b815260206004820152602260248201527f436f756c64206e6f74207472616e736665722070726f66697420746f206f776e60448201526132b960f11b60648201526084016103c6565b50505050505050505050565b6000546001600160a01b031632146108dd5760405162461bcd60e51b81526004016103c690610caa565b60035460048054604051633552ea5560e21b81526001600160a01b0391821692810192909252602482018490529091169063d54ba95490604401600060405180830381600087803b15801561093157600080fd5b505af1158015610945573d6000803e3d6000fd5b5050505050565b6000546001600160a01b031632146109765760405162461bcd60e51b81526004016103c690610caa565b6040516370a0823160e01b81523060048201526000906001600160a01b038316906370a0823190602401602060405180830381865afa1580156109bd573d6000803e3d6000fd5b505050506040513d601f19601f820116820180604052508101906109e19190610c6b565b905060008111610a2b5760405162461bcd60e51b81526020600482015260156024820152744e6f20746f6b656e7320746f20776974686472617760581b60448201526064016103c6565b60005460405163a9059cbb60e01b81526001600160a01b039182166004820152602481018390529083169063a9059cbb906044016020604051808303816000875af1158015610a7e573d6000803e3d6000fd5b505050506040513d601f19601f82011682018060405250810190610aa29190610bf3565b505050565b6000546001600160a01b03163214610ad15760405162461bcd60e51b81526004016103c690610caa565b4780610b145760405162461bcd60e51b81526020600482015260126024820152714e6f2045544820746f20776974686472617760701b60448201526064016103c6565b600080546040516001600160a01b039091169183156108fc02918491818181858888f19350505050158015610b4d573d6000803e3d6000fd5b5050565b80356001600160a01b0381168114610b6857600080fd5b919050565b600080600060608486031215610b8257600080fd5b8335925060208401359150610b9960408501610b51565b90509250925092565b600060208284031215610bb457600080fd5b5035919050565b600060208284031215610bcd57600080fd5b610bd682610b51565b9392505050565b634e487b7160e01b600052603260045260246000fd5b600060208284031215610c0557600080fd5b81518015158114610bd657600080fd5b606080825284519082018190526000906020906080840190828801845b82811015610c575781516001600160a01b031684529284019290840190600101610c32565b505050908301949094525060400152919050565b600060208284031215610c7d57600080fd5b5051919050565b60008219821115610ca557634e487b7160e01b600052601160045260246000fd5b500190565b6020808252601690820152752737ba103a34329031b7b73a3930b1ba1037bbb732b960511b60408201526060019056fea2646970667358221220c78fb9b747942502fc336946c4ab781e679820d8fc6a4bf85816d9c3ca1391bd64736f6c634300080c0033a264697066735822122043bf2492608e37cfebf8f6cc515c95274eb124a1a1e526374e8635c3200a3dde64736f6c634300080c0033",
  "immutableReferences": {},
  "source": "// SPDX-License-Identifier: MIT\npragma solidity ^0.8.0;\n\nimport \"./Arbitrage.sol\";\n\ncontract ArbitrageFactory {\n    mapping(address => address[]) private userArbitrages;\n\n    function createArbitrage(\n        address _dexA,\n        address _dexB,\n        address _flashLoanProvider,\n        address _token0,\n        address _token1\n    ) external {\n        Arbitrage arb = new Arbitrage(\n            _dexA,\n            _dexB,\n            _flashLoanProvider,\n            _token0,\n            _token1\n        );\n        userArbitrages[msg.sender].push(address(arb));\n    }\n\n    //use these helper functions\n    function getUserArbitrages(\n        address _user\n    ) external view returns (address[] memory) {\n        return userArbitrages[_user];\n    }\n\n    function getUserArbitragesCount(\n        address _user\n    ) external view returns (uint) {\n        return userArbitrages[_user].length;\n    }\n\n    function getUserArbitrageByIndex(\n        address _user,\n        uint index\n    ) external view returns (address) {\n        require(index >= 0, \"Index cannot be below 0\");\n        require(index <= userArbitrages[_user].length, \"Index out of range\");\n        return userArbitrages[_user][index];\n    }\n}\n",
  "sourcePath": "C:\\Users\\surge\\Desktop\\dapp-projects\\liquidip\\contracts\\ArbitrageFactory.sol",
  "compiler": {
    "name": "solc",
    "version": "0.8.12+commit.f00d7308.Emscripten.clang"
  },
  "schemaVersion": "3.4.15",
  "updatedAt": "2023-08-27T21:10:33.063Z",
  "networkType": "ethereum",
  "devdoc": {
    "kind": "dev",
    "methods": {},
    "version": 1
  },
  "userdoc": {
    "kind": "user",
    "methods": {},
    "version": 1
  }
}