{
  "contractName": "ArbitrageFactory",
  "abi": [
    {
      "inputs": [
        {
          "internalType": "address",
          "name": "_dexA",
          "type": "address"
        },
        {
          "internalType": "address",
          "name": "_dexB",
          "type": "address"
        },
        {
          "internalType": "address",
          "name": "_flashLoanProvider",
          "type": "address"
        },
        {
          "internalType": "address",
          "name": "_token0",
          "type": "address"
        },
        {
          "internalType": "address",
          "name": "_token1",
          "type": "address"
        }
      ],
      "name": "createArbitrage",
      "outputs": [],
      "stateMutability": "nonpayable",
      "type": "function"
    },
    {
      "inputs": [
        {
          "internalType": "address",
          "name": "_user",
          "type": "address"
        }
      ],
      "name": "getUserArbitrages",
      "outputs": [
        {
          "internalType": "address[]",
          "name": "",
          "type": "address[]"
        }
      ],
      "stateMutability": "view",
      "type": "function",
      "constant": true
    },
    {
      "inputs": [
        {
          "internalType": "address",
          "name": "_user",
          "type": "address"
        }
      ],
      "name": "getUserArbitragesCount",
      "outputs": [
        {
          "internalType": "uint256",
          "name": "",
          "type": "uint256"
        }
      ],
      "stateMutability": "view",
      "type": "function",
      "constant": true
    },
    {
      "inputs": [
        {
          "internalType": "address",
          "name": "_user",
          "type": "address"
        },
        {
          "internalType": "uint256",
          "name": "index",
          "type": "uint256"
        }
      ],
      "name": "getUserArbitrageByIndex",
      "outputs": [
        {
          "internalType": "address",
          "name": "",
          "type": "address"
        }
      ],
      "stateMutability": "view",
      "type": "function",
      "constant": true
    }
  ],
  "bytecode": "0x608060405234801561000f575f80fd5b506111f38061001d5f395ff3fe608060405234801561000f575f80fd5b506004361061004a575f3560e01c8063122011d71461004e57806351688aac14610063578063a676841f14610093578063ae8fb2aa146100c9575b5f80fd5b61006161005c3660046102ce565b6100e9565b005b61007661007136600461032f565b610186565b6040516001600160a01b0390911681526020015b60405180910390f35b6100bb6100a1366004610357565b6001600160a01b03165f9081526020819052604090205490565b60405190815260200161008a565b6100dc6100d7366004610357565b610235565b60405161008a9190610377565b5f85858585856040516100fb906102a6565b6001600160a01b0395861681529385166020850152918416604084015283166060830152909116608082015260a001604051809103905ff080158015610143573d5f803e3d5ffd5b50335f908152602081815260408220805460018101825590835291200180546001600160a01b0319166001600160a01b0392909216919091179055505050505050565b5f610195565b60405180910390fd5b6001600160a01b0383165f908152602081905260409020548211156101f15760405162461bcd60e51b8152602060048201526012602482015271496e646578206f7574206f662072616e676560701b604482015260640161018c565b6001600160a01b0383165f90815260208190526040902080548390811061021a5761021a6103c3565b5f918252602090912001546001600160a01b03169392505050565b6001600160a01b0381165f908152602081815260409182902080548351818402810184019094528084526060939283018282801561029a57602002820191905f5260205f20905b81546001600160a01b0316815260019091019060200180831161027c575b50505050509050919050565b610de6806103d883390190565b80356001600160a01b03811681146102c9575f80fd5b919050565b5f805f805f60a086880312156102e2575f80fd5b6102eb866102b3565b94506102f9602087016102b3565b9350610307604087016102b3565b9250610315606087016102b3565b9150610323608087016102b3565b90509295509295909350565b5f8060408385031215610340575f80fd5b610349836102b3565b946020939093013593505050565b5f60208284031215610367575f80fd5b610370826102b3565b9392505050565b602080825282518282018190525f9190848201906040850190845b818110156103b75783516001600160a01b031683529284019291840191600101610392565b50909695505050505050565b634e487b7160e01b5f52603260045260245ffdfe608060405234801561000f575f80fd5b50604051610de6380380610de683398101604081905261002e916100b4565b5f8054336001600160a01b0319918216179091556001805482166001600160a01b039788161790556002805482169587169590951790945560038054851693861693909317909255600480548416918516919091179055600580549092169216919091179055610115565b80516001600160a01b03811681146100af575f80fd5b919050565b5f805f805f60a086880312156100c8575f80fd5b6100d186610099565b94506100df60208701610099565b93506100ed60408701610099565b92506100fb60608701610099565b915061010960808701610099565b90509295509295909350565b610cc4806101225f395ff3fe608060405234801561000f575f80fd5b506004361061009b575f3560e01c8063639af6d011610063578063639af6d01461011c5780638da5cb5b1461012f578063d21220a714610141578063e086e5ec14610154578063fa29e6b11461015c575f80fd5b80630dfe16811461009f57806332978f79146100ce57806332fe3498146100e357806349df728c146100f65780634c02a7a714610109575b5f80fd5b6004546100b2906001600160a01b031681565b6040516001600160a01b03909116815260200160405180910390f35b6100e16100dc366004610b31565b61016f565b005b6100e16100f1366004610b63565b61088b565b6100e1610104366004610b7a565b61091e565b6001546100b2906001600160a01b031681565b6003546100b2906001600160a01b031681565b5f546100b2906001600160a01b031681565b6005546100b2906001600160a01b031681565b6100e1610a70565b6002546100b2906001600160a01b031681565b6040805160028082526060820183525f92602083019080368337505060045482519293506001600160a01b0316918391505f906101ae576101ae610b9a565b6001600160a01b0392831660209182029290920101526005548251911690829060019081106101df576101df610b9a565b6001600160a01b0392831660209182029290920101526004805460015460405163095ea7b360e01b815290841692810192909252602482018790529091169063095ea7b3906044016020604051808303815f875af1158015610243573d5f803e3d5ffd5b505050506040513d601f19601f820116820180604052508101906102679190610bae565b5060015460405163c87bff2560e01b81525f916001600160a01b03169063c87bff259061029c90859089908690600401610bcd565b6020604051808303815f875af11580156102b8573d5f803e3d5ffd5b505050506040513d601f19601f820116820180604052508101906102dc9190610c22565b6040805160028082526060820183529293505f929091602083019080368337505060055482519293506001600160a01b0316918391505f9061032057610320610b9a565b6001600160a01b03928316602091820292909201015260045482519116908290600190811061035157610351610b9a565b60200260200101906001600160a01b031690816001600160a01b0316815250505f82116103be5760405162461bcd60e51b81526020600482015260166024820152754e6f20746f6b656e732061667465722073776170203160501b60448201526064015b60405180910390fd5b60055460025460405163095ea7b360e01b81526001600160a01b0391821660048201526024810185905291169063095ea7b3906044016020604051808303815f875af1158015610410573d5f803e3d5ffd5b505050506040513d601f19601f820116820180604052508101906104349190610bae565b5060025460405163c87bff2560e01b81525f916001600160a01b03169063c87bff259061046990859087908690600401610bcd565b6020604051808303815f875af1158015610485573d5f803e3d5ffd5b505050506040513d601f19601f820116820180604052508101906104a99190610c22565b90505f81116104f35760405162461bcd60e51b81526020600482015260166024820152752737903a37b5b2b7399030b33a32b91039bbb0b8101960511b60448201526064016103b5565b600480546040516370a0823160e01b815230928101929092525f916001600160a01b03909116906370a0823190602401602060405180830381865afa15801561053e573d5f803e3d5ffd5b505050506040513d601f19601f820116820180604052508101906105629190610c22565b9050818110156105c45760405162461bcd60e51b815260206004820152602760248201527f42616c616e6365206c657373207468616e20746f6b656e732066726f6d206465604482015266782e205754462160c81b60648201526084016103b5565b5f6105cf888a610c39565b905080831161063e5760405162461bcd60e51b815260206004820152603560248201527f417262697472616765206e6f742070726f66697461626c653b2063616e6e6f7460448201527420636f76657220666c617368206c6f616e2066656560581b60648201526084016103b5565b6004805460405163a9059cbb60e01b81526001600160a01b038a8116938201939093526024810184905291169063a9059cbb906044016020604051808303815f875af1158015610690573d5f803e3d5ffd5b505050506040513d601f19601f820116820180604052508101906106b49190610bae565b6107005760405162461bcd60e51b815260206004820152601960248201527f436f756c64206e6f74207472616e7366657220746f6b656e730000000000000060448201526064016103b5565b600480546040516370a0823160e01b815230928101929092525f916001600160a01b03909116906370a0823190602401602060405180830381865afa15801561074b573d5f803e3d5ffd5b505050506040513d601f19601f8201168201806040525081019061076f9190610c22565b90505f81116107b15760405162461bcd60e51b815260206004820152600e60248201526d4e6f2070726f666974206d61646560901b60448201526064016103b5565b600480545f5460405163a9059cbb60e01b81526001600160a01b039182169381019390935260248301849052169063a9059cbb906044016020604051808303815f875af1158015610804573d5f803e3d5ffd5b505050506040513d601f19601f820116820180604052508101906108289190610bae565b61087f5760405162461bcd60e51b815260206004820152602260248201527f436f756c64206e6f74207472616e736665722070726f66697420746f206f776e60448201526132b960f11b60648201526084016103b5565b50505050505050505050565b5f546001600160a01b031633146108b45760405162461bcd60e51b81526004016103b590610c5e565b60035460048054604051633552ea5560e21b81526001600160a01b0391821692810192909252602482018490529091169063d54ba954906044015f604051808303815f87803b158015610905575f80fd5b505af1158015610917573d5f803e3d5ffd5b5050505050565b5f546001600160a01b031633146109475760405162461bcd60e51b81526004016103b590610c5e565b6040516370a0823160e01b81523060048201525f906001600160a01b038316906370a0823190602401602060405180830381865afa15801561098b573d5f803e3d5ffd5b505050506040513d601f19601f820116820180604052508101906109af9190610c22565b90505f81116109f85760405162461bcd60e51b81526020600482015260156024820152744e6f20746f6b656e7320746f20776974686472617760581b60448201526064016103b5565b5f5460405163a9059cbb60e01b81526001600160a01b039182166004820152602481018390529083169063a9059cbb906044016020604051808303815f875af1158015610a47573d5f803e3d5ffd5b505050506040513d601f19601f82011682018060405250810190610a6b9190610bae565b505050565b5f546001600160a01b03163314610a995760405162461bcd60e51b81526004016103b590610c5e565b4780610adc5760405162461bcd60e51b81526020600482015260126024820152714e6f2045544820746f20776974686472617760701b60448201526064016103b5565b5f80546040516001600160a01b039091169183156108fc02918491818181858888f19350505050158015610b12573d5f803e3d5ffd5b5050565b80356001600160a01b0381168114610b2c575f80fd5b919050565b5f805f60608486031215610b43575f80fd5b8335925060208401359150610b5a60408501610b16565b90509250925092565b5f60208284031215610b73575f80fd5b5035919050565b5f60208284031215610b8a575f80fd5b610b9382610b16565b9392505050565b634e487b7160e01b5f52603260045260245ffd5b5f60208284031215610bbe575f80fd5b81518015158114610b93575f80fd5b606080825284519082018190525f906020906080840190828801845b82811015610c0e5781516001600160a01b031684529284019290840190600101610be9565b505050908301949094525060400152919050565b5f60208284031215610c32575f80fd5b5051919050565b80820180821115610c5857634e487b7160e01b5f52601160045260245ffd5b92915050565b6020808252601690820152752737ba103a34329031b7b73a3930b1ba1037bbb732b960511b60408201526060019056fea2646970667358221220347e167a12ac7b3bac99c26c13283b84d20192b0bf686cb6d7b917a32ac89f3964736f6c63430008150033a2646970667358221220682fc9a04456bb409389d09578241b0953e52682334460bab143323046742d3564736f6c63430008150033",
  "immutableReferences": {},
  "source": "// SPDX-License-Identifier: MIT\npragma solidity ^0.8.0;\n\nimport \"./Arbitrage.sol\";\n\ncontract ArbitrageFactory {\n    mapping(address => address[]) private userArbitrages;\n\n    function createArbitrage(\n        address _dexA,\n        address _dexB,\n        address _flashLoanProvider,\n        address _token0,\n        address _token1\n    ) external {\n        Arbitrage arb = new Arbitrage(\n            _dexA,\n            _dexB,\n            _flashLoanProvider,\n            _token0,\n            _token1\n        );\n        userArbitrages[msg.sender].push(address(arb));\n    }\n\n    //use these helper functions\n    function getUserArbitrages(\n        address _user\n    ) external view returns (address[] memory) {\n        return userArbitrages[_user];\n    }\n\n    function getUserArbitragesCount(\n        address _user\n    ) external view returns (uint) {\n        return userArbitrages[_user].length;\n    }\n\n    function getUserArbitrageByIndex(\n        address _user,\n        uint index\n    ) external view returns (address) {\n        require(index >= 0, \"Index cannot be below 0\");\n        require(index <= userArbitrages[_user].length, \"Index out of range\");\n        return userArbitrages[_user][index];\n    }\n}\n",
  "sourcePath": "/media/scott/E8A0D408A0D3DB60/Users/surge/Desktop/dapp-projects/liquidip/contracts/ArbitrageFactory.sol",
  "compiler": {
    "name": "solc",
    "version": "0.8.21+commit.d9974bed.Emscripten.clang"
  },
  "schemaVersion": "3.4.15",
  "updatedAt": "2023-08-25T16:43:49.259Z",
  "networkType": "ethereum",
  "devdoc": {
    "kind": "dev",
    "methods": {},
    "version": 1
  },
  "userdoc": {
    "kind": "user",
    "methods": {},
    "version": 1
  }
}