{
  "contractName": "Arbitrage",
  "abi": [
    {
      "inputs": [
        {
          "internalType": "address",
          "name": "_dexA",
          "type": "address"
        },
        {
          "internalType": "address",
          "name": "_dexB",
          "type": "address"
        },
        {
          "internalType": "address",
          "name": "_flashLoanProvider",
          "type": "address"
        },
        {
          "internalType": "address",
          "name": "_token0",
          "type": "address"
        },
        {
          "internalType": "address",
          "name": "_token1",
          "type": "address"
        }
      ],
      "stateMutability": "nonpayable",
      "type": "constructor"
    },
    {
      "inputs": [],
      "name": "dexA",
      "outputs": [
        {
          "internalType": "contract DEX",
          "name": "",
          "type": "address"
        }
      ],
      "stateMutability": "view",
      "type": "function"
    },
    {
      "inputs": [],
      "name": "dexB",
      "outputs": [
        {
          "internalType": "contract DEX",
          "name": "",
          "type": "address"
        }
      ],
      "stateMutability": "view",
      "type": "function"
    },
    {
      "inputs": [],
      "name": "flashLoanProvider",
      "outputs": [
        {
          "internalType": "contract FlashLoanProvider",
          "name": "",
          "type": "address"
        }
      ],
      "stateMutability": "view",
      "type": "function"
    },
    {
      "inputs": [],
      "name": "owner",
      "outputs": [
        {
          "internalType": "address",
          "name": "",
          "type": "address"
        }
      ],
      "stateMutability": "view",
      "type": "function"
    },
    {
      "inputs": [],
      "name": "token0",
      "outputs": [
        {
          "internalType": "address",
          "name": "",
          "type": "address"
        }
      ],
      "stateMutability": "view",
      "type": "function"
    },
    {
      "inputs": [],
      "name": "token1",
      "outputs": [
        {
          "internalType": "address",
          "name": "",
          "type": "address"
        }
      ],
      "stateMutability": "view",
      "type": "function"
    },
    {
      "inputs": [
        {
          "internalType": "uint256",
          "name": "amount",
          "type": "uint256"
        }
      ],
      "name": "startArbitrage",
      "outputs": [],
      "stateMutability": "nonpayable",
      "type": "function"
    },
    {
      "inputs": [
        {
          "internalType": "uint256",
          "name": "amount",
          "type": "uint256"
        },
        {
          "internalType": "uint256",
          "name": "fee",
          "type": "uint256"
        },
        {
          "internalType": "address",
          "name": "pool",
          "type": "address"
        }
      ],
      "name": "executeFlashloan",
      "outputs": [],
      "stateMutability": "nonpayable",
      "type": "function"
    },
    {
      "inputs": [
        {
          "internalType": "address",
          "name": "tokenAddress",
          "type": "address"
        }
      ],
      "name": "withdrawTokens",
      "outputs": [],
      "stateMutability": "nonpayable",
      "type": "function"
    },
    {
      "inputs": [],
      "name": "withdrawETH",
      "outputs": [],
      "stateMutability": "nonpayable",
      "type": "function"
    }
  ],
  "bytecode": "0x608060405234801561001057600080fd5b50604051610b54380380610b5483398101604081905261002f916100b7565b60008054336001600160a01b0319918216179091556001805482166001600160a01b03978816179055600280548216958716959095179094556003805485169386169390931790925560048054841691851691909117905560058054909216921691909117905561011c565b80516001600160a01b03811681146100b257600080fd5b919050565b600080600080600060a086880312156100cf57600080fd5b6100d88661009b565b94506100e66020870161009b565b93506100f46040870161009b565b92506101026060870161009b565b91506101106080870161009b565b90509295509295909350565b610a298061012b6000396000f3fe608060405234801561001057600080fd5b506004361061009e5760003560e01c8063639af6d011610066578063639af6d0146101205780638da5cb5b14610133578063d21220a714610146578063e086e5ec14610159578063fa29e6b11461016157600080fd5b80630dfe1681146100a357806332978f79146100d257806332fe3498146100e757806349df728c146100fa5780634c02a7a71461010d575b600080fd5b6004546100b6906001600160a01b031681565b6040516001600160a01b03909116815260200160405180910390f35b6100e56100e0366004610867565b610174565b005b6100e56100f536600461089c565b6105ad565b6100e56101083660046108b5565b610646565b6001546100b6906001600160a01b031681565b6003546100b6906001600160a01b031681565b6000546100b6906001600160a01b031681565b6005546100b6906001600160a01b031681565b6100e56107a1565b6002546100b6906001600160a01b031681565b6003546001600160a01b031633146101ef5760405162461bcd60e51b815260206004820152603360248201527f4f6e6c792074686520666c617368206c6f616e2070726f76696465722063616e6044820152721031b0b636103a3434b990333ab731ba34b7b760691b60648201526084015b60405180910390fd5b604080516002808252606082018352600092602083019080368337505060045482519293506001600160a01b031691839150600090610230576102306108d7565b6001600160a01b039283166020918202929092010152600554825191169082906001908110610261576102616108d7565b6001600160a01b03928316602091820292909201015260015460405163c87bff2560e01b815291169063c87bff25906102a390849088906000906004016108ed565b600060405180830381600087803b1580156102bd57600080fd5b505af11580156102d1573d6000803e3d6000fd5b50506005546040516370a0823160e01b8152306004820152600093506001600160a01b0390911691506370a0823190602401602060405180830381865afa158015610320573d6000803e3d6000fd5b505050506040513d601f19601f820116820180604052508101906103449190610943565b6040805160028082526060820183529293506000929091602083019080368337505060055482519293506001600160a01b03169183915060009061038a5761038a6108d7565b6001600160a01b0392831660209182029290920101526004548251911690829060019081106103bb576103bb6108d7565b6001600160a01b03928316602091820292909201015260025460405163c87bff2560e01b815291169063c87bff25906103fd90849086906000906004016108ed565b600060405180830381600087803b15801561041757600080fd5b505af115801561042b573d6000803e3d6000fd5b5050600480546040516370a0823160e01b81523092810192909252600093506001600160a01b031691506370a0823190602401602060405180830381865afa15801561047b573d6000803e3d6000fd5b505050506040513d601f19601f8201168201806040525081019061049f9190610943565b9050856104ac8883610972565b10156105185760405162461bcd60e51b815260206004820152603560248201527f417262697472616765206e6f742070726f66697461626c653b2063616e6e6f7460448201527420636f76657220666c617368206c6f616e2066656560581b60648201526084016101e6565b6003546004546001600160a01b039182169163b29771a1911661053b898b610989565b6040516001600160e01b031960e085901b1681526001600160a01b03928316600482015260248101919091529088166044820152606401600060405180830381600087803b15801561058c57600080fd5b505af11580156105a0573d6000803e3d6000fd5b5050505050505050505050565b6000546001600160a01b031633146105d75760405162461bcd60e51b81526004016101e6906109a1565b60035460048054604051633552ea5560e21b81526001600160a01b0391821692810192909252602482018490529091169063d54ba95490604401600060405180830381600087803b15801561062b57600080fd5b505af115801561063f573d6000803e3d6000fd5b5050505050565b6000546001600160a01b031633146106705760405162461bcd60e51b81526004016101e6906109a1565b6040516370a0823160e01b81523060048201526000906001600160a01b038316906370a0823190602401602060405180830381865afa1580156106b7573d6000803e3d6000fd5b505050506040513d601f19601f820116820180604052508101906106db9190610943565b9050600081116107255760405162461bcd60e51b81526020600482015260156024820152744e6f20746f6b656e7320746f20776974686472617760581b60448201526064016101e6565b60005460405163a9059cbb60e01b81526001600160a01b039182166004820152602481018390529083169063a9059cbb906044016020604051808303816000875af1158015610778573d6000803e3d6000fd5b505050506040513d601f19601f8201168201806040525081019061079c91906109d1565b505050565b6000546001600160a01b031633146107cb5760405162461bcd60e51b81526004016101e6906109a1565b478061080e5760405162461bcd60e51b81526020600482015260126024820152714e6f2045544820746f20776974686472617760701b60448201526064016101e6565b600080546040516001600160a01b039091169183156108fc02918491818181858888f19350505050158015610847573d6000803e3d6000fd5b5050565b80356001600160a01b038116811461086257600080fd5b919050565b60008060006060848603121561087c57600080fd5b83359250602084013591506108936040850161084b565b90509250925092565b6000602082840312156108ae57600080fd5b5035919050565b6000602082840312156108c757600080fd5b6108d08261084b565b9392505050565b634e487b7160e01b600052603260045260246000fd5b606080825284519082018190526000906020906080840190828801845b8281101561092f5781516001600160a01b03168452928401929084019060010161090a565b505050908301949094525060400152919050565b60006020828403121561095557600080fd5b5051919050565b634e487b7160e01b600052601160045260246000fd5b6000828210156109845761098461095c565b500390565b6000821982111561099c5761099c61095c565b500190565b6020808252601690820152752737ba103a34329031b7b73a3930b1ba1037bbb732b960511b604082015260600190565b6000602082840312156109e357600080fd5b815180151581146108d057600080fdfea2646970667358221220f05b49b0d336f5bb4d09d4c68133ca443fce171144a5550887fc1969fd26f5bf64736f6c634300080c0033",
  "immutableReferences": {},
  "source": "// SPDX-License-Identifier: MIT\npragma solidity ^0.8.9;\n\nimport \"./DEX.sol\";\nimport \"./FlashLoanProvider.sol\";\n\ncontract Arbitrage {\n    address public owner;\n    DEX public dexA;\n    DEX public dexB;\n    FlashLoanProvider public flashLoanProvider;\n    address public token0;\n    address public token1;\n\n    constructor(\n        address _dexA,\n        address _dexB,\n        address _flashLoanProvider,\n        address _token0,\n        address _token1\n    ) {\n        owner = msg.sender;\n        dexA = DEX(_dexA);\n        dexB = DEX(_dexB);\n        flashLoanProvider = FlashLoanProvider(_flashLoanProvider);\n        token0 = _token0;\n        token1 = _token1;\n    }\n\n    modifier onlyOwner() {\n        require(msg.sender == owner, \"Not the contract owner\");\n        _;\n    }\n\n    // Start the arbitrage by requesting a flash loan\n    function startArbitrage(uint256 amount) external onlyOwner {\n        flashLoanProvider.requestFlashLoan(token0, amount);\n    }\n\n    // This function is called by the Flash Loan provider once the loaned amount is received\n    function executeFlashloan(\n        uint256 amount,\n        uint256 fee,\n        address pool\n    ) external {\n        require(\n            msg.sender == address(flashLoanProvider),\n            \"Only the flash loan provider can call this function\"\n        );\n\n        // First, we'll swap the borrowed amount on dexA for token1\n        address[] memory routeA = new address[](2);\n        routeA[0] = token0;\n        routeA[1] = token1;\n\n        // Here, we're assuming `swapByRoute` is a function in the DEX contract that handles the swap.\n        // If not, you'll need to adjust the logic here accordingly.\n        dexA.swapByRoute(routeA, amount, 0);\n\n        // Let's determine the amount of token1 we received from dexA\n        uint256 token1AmountFromDexA = IERC20(token1).balanceOf(address(this));\n\n        // Now, we'll swap this amount of token1 back to token0 on dexB\n        address[] memory routeB = new address[](2);\n        routeB[0] = token1;\n        routeB[1] = token0;\n\n        dexB.swapByRoute(routeB, token1AmountFromDexA, 0);\n\n        // Let's determine the amount of token0 we received from dexB after the swap\n        uint256 token0AmountFromDexB = IERC20(token0).balanceOf(address(this));\n\n        // Ensure that the amount we have now (minus the initial borrowed amount) is greater than the fee\n        require(\n            token0AmountFromDexB - amount >= fee,\n            \"Arbitrage not profitable; cannot cover flash loan fee\"\n        );\n\n        // Repay the flash loan\n        flashLoanProvider.repayLoan(token0, amount + fee, pool);\n\n        // Any remaining tokens (profit) stay in the contract and can be withdrawn by the owner\n    }\n\n    // Allows the owner to withdraw any ERC20 tokens from the contract\n    function withdrawTokens(address tokenAddress) external onlyOwner {\n        uint256 balance = IERC20(tokenAddress).balanceOf(address(this));\n        require(balance > 0, \"No tokens to withdraw\");\n        IERC20(tokenAddress).transfer(owner, balance);\n    }\n\n    // If any ETH gets trapped in the contract, this function allows the owner to withdraw it\n    function withdrawETH() external onlyOwner {\n        uint256 balance = address(this).balance;\n        require(balance > 0, \"No ETH to withdraw\");\n        payable(owner).transfer(balance);\n    }\n}\n",
  "sourcePath": "C:\\Users\\surge\\Desktop\\dapp-projects\\liquidip\\contracts\\Arbitrage.sol",
  "compiler": {
    "name": "solc",
    "version": "0.8.12+commit.f00d7308.Emscripten.clang"
  },
  "schemaVersion": "3.4.15",
  "updatedAt": "2023-08-15T05:05:28.224Z",
  "devdoc": {
    "kind": "dev",
    "methods": {},
    "version": 1
  },
  "userdoc": {
    "kind": "user",
    "methods": {},
    "version": 1
  }
}