{
  "contractName": "DEX",
  "abi": [
    {
      "inputs": [
        {
          "internalType": "address",
          "name": "_factory",
          "type": "address"
        }
      ],
      "stateMutability": "nonpayable",
      "type": "constructor"
    },
    {
      "inputs": [],
      "name": "factory",
      "outputs": [
        {
          "internalType": "contract LiquidityPoolFactory",
          "name": "",
          "type": "address"
        }
      ],
      "stateMutability": "view",
      "type": "function"
    },
    {
      "inputs": [
        {
          "internalType": "address[]",
          "name": "route",
          "type": "address[]"
        },
        {
          "internalType": "uint256",
          "name": "amountIn",
          "type": "uint256"
        },
        {
          "internalType": "uint256",
          "name": "minAmountOut",
          "type": "uint256"
        }
      ],
      "name": "swapByRoute",
      "outputs": [
        {
          "internalType": "uint256",
          "name": "",
          "type": "uint256"
        }
      ],
      "stateMutability": "nonpayable",
      "type": "function"
    },
    {
      "inputs": [
        {
          "internalType": "address",
          "name": "tokenA",
          "type": "address"
        },
        {
          "internalType": "address",
          "name": "tokenB",
          "type": "address"
        }
      ],
      "name": "getRoute",
      "outputs": [
        {
          "internalType": "address[]",
          "name": "",
          "type": "address[]"
        }
      ],
      "stateMutability": "view",
      "type": "function"
    },
    {
      "inputs": [
        {
          "internalType": "address[]",
          "name": "route",
          "type": "address[]"
        },
        {
          "internalType": "uint256",
          "name": "amountIn",
          "type": "uint256"
        }
      ],
      "name": "estimateOutput",
      "outputs": [
        {
          "internalType": "uint256",
          "name": "",
          "type": "uint256"
        }
      ],
      "stateMutability": "view",
      "type": "function"
    }
  ],
  "bytecode": "0x608060405234801561001057600080fd5b506040516113db3803806113db83398101604081905261002f91610054565b600080546001600160a01b0319166001600160a01b0392909216919091179055610084565b60006020828403121561006657600080fd5b81516001600160a01b038116811461007d57600080fd5b9392505050565b611348806100936000396000f3fe608060405234801561001057600080fd5b506004361061004c5760003560e01c80636f58ceb814610051578063a375bb8614610077578063c45a015514610097578063c87bff25146100c2575b600080fd5b61006461005f36600461110a565b6100d5565b6040519081526020015b60405180910390f35b61008a61008536600461114f565b61039f565b60405161006e9190611188565b6000546100aa906001600160a01b031681565b6040516001600160a01b03909116815260200161006e565b6100646100d03660046111d5565b610bba565b600060028351101561011e5760405162461bcd60e51b815260206004820152600d60248201526c496e76616c696420726f75746560981b60448201526064015b60405180910390fd5b6000821161016e5760405162461bcd60e51b815260206004820152601d60248201527f416d6f756e74206d7573742062652067726561746572207468616e20300000006044820152606401610115565b6000805b600185516101809190611239565b811015610395576000805486516001600160a01b039091169063f4f31ede908890859081106101b1576101b1611250565b6020026020010151888560016101c79190611266565b815181106101d7576101d7611250565b60200260200101516040518363ffffffff1660e01b81526004016101fc92919061127e565b602060405180830381865afa158015610219573d6000803e3d6000fd5b505050506040513d601f19601f8201168201806040525081019061023d9190611298565b90506001600160a01b0381166102b45760405162461bcd60e51b815260206004820152603660248201527f4c697175696469747920706f6f6c20646f6573206e6f7420657869737420666f60448201527539103a34329033b4bb32b7103a37b5b2b7103830b4b960511b6064820152608401610115565b806001600160a01b0316634aa066528784815181106102d5576102d5611250565b6020026020010151888560016102eb9190611266565b815181106102fb576102fb611250565b60209081029190910101516040516001600160e01b031960e085901b1681526001600160a01b0392831660048201529116602482015260448101889052606401602060405180830381865afa158015610358573d6000803e3d6000fd5b505050506040513d601f19601f8201168201806040525081019061037c91906112bc565b925082945050808061038d906112d5565b915050610172565b5090505b92915050565b60005460405163d6432fab60e01b81526060916001600160a01b03169063d6432fab906103d2908690869060040161127e565b602060405180830381865afa1580156103ef573d6000803e3d6000fd5b505050506040513d601f19601f8201168201806040525081019061041391906112f0565b156104a057604080516002808252606082018352600092602083019080368337019050509050838160008151811061044d5761044d611250565b60200260200101906001600160a01b031690816001600160a01b031681525050828160018151811061048157610481611250565b6001600160a01b03909216602092830291909101909101529050610399565b60008060009054906101000a90046001600160a01b03166001600160a01b0316633962f82d6040518163ffffffff1660e01b8152600401602060405180830381865afa1580156104f4573d6000803e3d6000fd5b505050506040513d601f19601f8201168201806040525081019061051891906112bc565b905060008167ffffffffffffffff8111156105355761053561102a565b60405190808252806020026020018201604052801561055e578160200160208202803683370190505b50905060005b82811015610615576000546040516327b2595f60e11b8152600481018390526001600160a01b0390911690634f64b2be90602401602060405180830381865afa1580156105b5573d6000803e3d6000fd5b505050506040513d601f19601f820116820180604052508101906105d99190611298565b8282815181106105eb576105eb611250565b6001600160a01b03909216602092830291909101909101528061060d816112d5565b915050610564565b5060005b815181101561083c5760005482516001600160a01b039091169063d6432fab90889085908590811061064d5761064d611250565b60200260200101516040518363ffffffff1660e01b815260040161067292919061127e565b602060405180830381865afa15801561068f573d6000803e3d6000fd5b505050506040513d601f19601f820116820180604052508101906106b391906112f0565b801561074a575060005482516001600160a01b039091169063d6432fab908490849081106106e3576106e3611250565b6020026020010151876040518363ffffffff1660e01b815260040161070992919061127e565b602060405180830381865afa158015610726573d6000803e3d6000fd5b505050506040513d601f19601f8201168201806040525081019061074a91906112f0565b1561082a576040805160038082526080820190925260009160208201606080368337019050509050868160008151811061078657610786611250565b60200260200101906001600160a01b031690816001600160a01b0316815250508282815181106107b8576107b8611250565b6020026020010151816001815181106107d3576107d3611250565b60200260200101906001600160a01b031690816001600160a01b031681525050858160028151811061080757610807611250565b6001600160a01b0390921660209283029190910190910152935061039992505050565b80610834816112d5565b915050610619565b5060005b8151811015610b805760005b8251811015610b6d5760005483516001600160a01b039091169063d6432fab90899086908690811061088057610880611250565b60200260200101516040518363ffffffff1660e01b81526004016108a592919061127e565b602060405180830381865afa1580156108c2573d6000803e3d6000fd5b505050506040513d601f19601f820116820180604052508101906108e691906112f0565b8015610996575060005483516001600160a01b039091169063d6432fab9085908590811061091657610916611250565b602002602001015185848151811061093057610930611250565b60200260200101516040518363ffffffff1660e01b815260040161095592919061127e565b602060405180830381865afa158015610972573d6000803e3d6000fd5b505050506040513d601f19601f8201168201806040525081019061099691906112f0565b8015610a2d575060005483516001600160a01b039091169063d6432fab908590849081106109c6576109c6611250565b6020026020010151886040518363ffffffff1660e01b81526004016109ec92919061127e565b602060405180830381865afa158015610a09573d6000803e3d6000fd5b505050506040513d601f19601f82011682018060405250810190610a2d91906112f0565b15610b5b5760408051600480825260a08201909252600091602082016080803683370190505090508781600081518110610a6957610a69611250565b60200260200101906001600160a01b031690816001600160a01b031681525050838381518110610a9b57610a9b611250565b602002602001015181600181518110610ab657610ab6611250565b60200260200101906001600160a01b031690816001600160a01b031681525050838281518110610ae857610ae8611250565b602002602001015181600281518110610b0357610b03611250565b60200260200101906001600160a01b031690816001600160a01b0316815250508681600381518110610b3757610b37611250565b6001600160a01b039092166020928302919091019091015294506103999350505050565b80610b65816112d5565b91505061084c565b5080610b78816112d5565b915050610840565b5060405162461bcd60e51b815260206004820152600e60248201526d139bc81c9bdd5d1948199bdd5b9960921b6044820152606401610115565b6000600284511015610bfe5760405162461bcd60e51b815260206004820152600d60248201526c496e76616c696420726f75746560981b6044820152606401610115565b60008311610c4e5760405162461bcd60e51b815260206004820152601d60248201527f416d6f756e74206d7573742062652067726561746572207468616e20300000006044820152606401610115565b83600081518110610c6157610c61611250565b60209081029190910101516040516323b872dd60e01b8152336004820152306024820152604481018590526001600160a01b03909116906323b872dd906064016020604051808303816000875af1158015610cc0573d6000803e3d6000fd5b505050506040513d601f19601f82011682018060405250810190610ce491906112f0565b50600083815b60018751610cf89190611239565b811015610ed1576000878281518110610d1357610d13611250565b60200260200101519050600088836001610d2d9190611266565b81518110610d3d57610d3d611250565b602090810291909101015160008054604051637a798f6f60e11b815292935090916001600160a01b039091169063f4f31ede90610d80908690869060040161127e565b602060405180830381865afa158015610d9d573d6000803e3d6000fd5b505050506040513d601f19601f82011682018060405250810190610dc19190611298565b60405163095ea7b360e01b81526001600160a01b03808316600483015260248201889052919250849182169063095ea7b3906044016020604051808303816000875af1158015610e15573d6000803e3d6000fd5b505050506040513d601f19601f82011682018060405250810190610e3991906112f0565b50604051633b1b303360e21b81526001600160a01b03858116600483015284811660248301526044820188905283169063ec6cc0cc906064016020604051808303816000875af1158015610e91573d6000803e3d6000fd5b505050506040513d601f19601f82011682018060405250810190610eb591906112bc565b9650869550505050508080610ec9906112d5565b915050610cea565b5083821015610f335760405162461bcd60e51b815260206004820152602860248201527f4f757470757420616d6f756e742069732062656c6f7720737065636966696564604482015267206d696e696d756d60c01b6064820152608401610115565b60008660018851610f449190611239565b81518110610f5457610f54611250565b602090810291909101015160405163a9059cbb60e01b8152336004820152602481018590529091506001600160a01b0382169063a9059cbb906044016020604051808303816000875af1158015610faf573d6000803e3d6000fd5b505050506040513d601f19601f82011682018060405250810190610fd391906112f0565b61101f5760405162461bcd60e51b815260206004820181905260248201527f4661696c656420746f207472616e73666572206f757470757420746f6b656e736044820152606401610115565b509095945050505050565b634e487b7160e01b600052604160045260246000fd5b6001600160a01b038116811461105557600080fd5b50565b803561106381611040565b919050565b600082601f83011261107957600080fd5b8135602067ffffffffffffffff808311156110965761109661102a565b8260051b604051601f19603f830116810181811084821117156110bb576110bb61102a565b6040529384528581018301938381019250878511156110d957600080fd5b83870191505b848210156110ff576110f082611058565b835291830191908301906110df565b979650505050505050565b6000806040838503121561111d57600080fd5b823567ffffffffffffffff81111561113457600080fd5b61114085828601611068565b95602094909401359450505050565b6000806040838503121561116257600080fd5b823561116d81611040565b9150602083013561117d81611040565b809150509250929050565b6020808252825182820181905260009190848201906040850190845b818110156111c95783516001600160a01b0316835292840192918401916001016111a4565b50909695505050505050565b6000806000606084860312156111ea57600080fd5b833567ffffffffffffffff81111561120157600080fd5b61120d86828701611068565b9660208601359650604090950135949350505050565b634e487b7160e01b600052601160045260246000fd5b60008282101561124b5761124b611223565b500390565b634e487b7160e01b600052603260045260246000fd5b6000821982111561127957611279611223565b500190565b6001600160a01b0392831681529116602082015260400190565b6000602082840312156112aa57600080fd5b81516112b581611040565b9392505050565b6000602082840312156112ce57600080fd5b5051919050565b60006000198214156112e9576112e9611223565b5060010190565b60006020828403121561130257600080fd5b815180151581146112b557600080fdfea2646970667358221220233e29fe0c5baeff756afe91f5f700fae7e11df1d4a9b03352ad3142dfa84eeb64736f6c634300080c0033",
  "immutableReferences": {},
  "source": "// SPDX-License-Identifier: MIT\r\npragma solidity ^0.8.0;\r\n\r\nimport \"./LiquidityPool.sol\";\r\nimport \"./LiquidityPoolFactory.sol\";\r\nimport \"./IERC20.sol\";\r\n\r\ncontract DEX {\r\n    LiquidityPoolFactory public factory;\r\n\r\n    constructor(address _factory) {\r\n        factory = LiquidityPoolFactory(_factory);\r\n    }\r\n\r\n    function swapByRoute(\r\n        address[] memory route,\r\n        uint amountIn,\r\n        uint minAmountOut\r\n    ) external returns (uint) {\r\n        require(route.length >= 2, \"Invalid route\");\r\n        require(amountIn > 0, \"Amount must be greater than 0\");\r\n\r\n        //send the tokens to this contract\r\n        IERC20(route[0]).transferFrom(msg.sender, address(this), amountIn);\r\n\r\n        uint amountOut;\r\n        uint amountInNext = amountIn;\r\n\r\n        for (uint i = 0; i < route.length - 1; i++) {\r\n            address tokenIn = route[i];\r\n            address tokenOut = route[i + 1];\r\n\r\n            LiquidityPool pool = LiquidityPool(\r\n                factory.getLiquidityPool(tokenIn, tokenOut)\r\n            );\r\n            IERC20 token = IERC20(tokenIn);\r\n            token.approve(address(pool), amountInNext);\r\n            amountOut = pool.swapTokens(tokenIn, tokenOut, amountInNext);\r\n\r\n            amountInNext = amountOut;\r\n        }\r\n\r\n        require(\r\n            amountOut >= minAmountOut,\r\n            \"Output amount is below specified minimum\"\r\n        );\r\n\r\n        IERC20 outputToken = IERC20(route[route.length - 1]);\r\n        // require(\r\n        //     outputToken.transferFrom(address(pool), msg.sender, amountOut),\r\n        //     \"Failed to transfer output tokens\"\r\n        // );\r\n        require(\r\n            outputToken.transfer(msg.sender, amountOut),\r\n            \"Failed to transfer output tokens\"\r\n        );\r\n\r\n        return amountOut;\r\n    }\r\n\r\n    function getRoute(\r\n        address tokenA,\r\n        address tokenB\r\n    ) external view returns (address[] memory) {\r\n        if (factory.hasPool(tokenA, tokenB)) {\r\n            address[] memory route = new address[](2);\r\n            route[0] = tokenA;\r\n            route[1] = tokenB;\r\n            return route;\r\n        }\r\n\r\n        uint256 tokenCount = factory.getTokensCount();\r\n        address[] memory tokens = new address[](tokenCount);\r\n        for (uint256 i = 0; i < tokenCount; i++) {\r\n            tokens[i] = factory.tokens(i);\r\n        }\r\n\r\n        for (uint256 i = 0; i < tokens.length; i++) {\r\n            if (\r\n                factory.hasPool(tokenA, tokens[i]) &&\r\n                factory.hasPool(tokens[i], tokenB)\r\n            ) {\r\n                address[] memory oneHopRoute = new address[](3);\r\n                oneHopRoute[0] = tokenA;\r\n                oneHopRoute[1] = tokens[i];\r\n                oneHopRoute[2] = tokenB;\r\n                return oneHopRoute;\r\n            }\r\n        }\r\n\r\n        for (uint256 i = 0; i < tokens.length; i++) {\r\n            for (uint256 j = 0; j < tokens.length; j++) {\r\n                if (\r\n                    factory.hasPool(tokenA, tokens[i]) &&\r\n                    factory.hasPool(tokens[i], tokens[j]) &&\r\n                    factory.hasPool(tokens[j], tokenB)\r\n                ) {\r\n                    address[] memory twoHopRoute = new address[](4);\r\n                    twoHopRoute[0] = tokenA;\r\n                    twoHopRoute[1] = tokens[i];\r\n                    twoHopRoute[2] = tokens[j];\r\n                    twoHopRoute[3] = tokenB;\r\n                    return twoHopRoute;\r\n                }\r\n            }\r\n        }\r\n\r\n        revert(\"No route found\");\r\n    }\r\n\r\n    function estimateOutput(\r\n        address[] memory route,\r\n        uint amountIn\r\n    ) external view returns (uint) {\r\n        require(route.length >= 2, \"Invalid route\");\r\n        require(amountIn > 0, \"Amount must be greater than 0\");\r\n\r\n        uint amountOut;\r\n\r\n        for (uint i = 0; i < route.length - 1; i++) {\r\n            LiquidityPool pool = LiquidityPool(\r\n                factory.getLiquidityPool(route[i], route[i + 1])\r\n            );\r\n            require(\r\n                address(pool) != address(0),\r\n                \"Liquidity pool does not exist for the given token pair\"\r\n            );\r\n\r\n            amountOut = pool.getAmountOut(route[i], route[i + 1], amountIn);\r\n            amountIn = amountOut;\r\n        }\r\n\r\n        return amountOut;\r\n    }\r\n}\r\n",
  "sourcePath": "C:\\Users\\surge\\Desktop\\dapp-projects\\liquidip\\contracts\\DEX.sol",
  "compiler": {
    "name": "solc",
    "version": "0.8.12+commit.f00d7308.Emscripten.clang"
  },
  "schemaVersion": "3.4.15",
  "updatedAt": "2023-08-27T21:07:42.739Z",
  "devdoc": {
    "kind": "dev",
    "methods": {},
    "version": 1
  },
  "userdoc": {
    "kind": "user",
    "methods": {},
    "version": 1
  }
}