{
  "contractName": "DEX",
  "abi": [
    {
      "inputs": [
        {
          "internalType": "address",
          "name": "_factory",
          "type": "address"
        }
      ],
      "stateMutability": "nonpayable",
      "type": "constructor"
    },
    {
      "inputs": [],
      "name": "factory",
      "outputs": [
        {
          "internalType": "contract LiquidityPoolFactory",
          "name": "",
          "type": "address"
        }
      ],
      "stateMutability": "view",
      "type": "function"
    },
    {
      "inputs": [
        {
          "internalType": "address[]",
          "name": "route",
          "type": "address[]"
        },
        {
          "internalType": "uint256",
          "name": "amountIn",
          "type": "uint256"
        },
        {
          "internalType": "uint256",
          "name": "minAmountOut",
          "type": "uint256"
        }
      ],
      "name": "swapByRoute",
      "outputs": [
        {
          "internalType": "uint256",
          "name": "",
          "type": "uint256"
        }
      ],
      "stateMutability": "nonpayable",
      "type": "function"
    },
    {
      "inputs": [
        {
          "internalType": "address",
          "name": "tokenA",
          "type": "address"
        },
        {
          "internalType": "address",
          "name": "tokenB",
          "type": "address"
        }
      ],
      "name": "getRoute",
      "outputs": [
        {
          "internalType": "address[]",
          "name": "",
          "type": "address[]"
        }
      ],
      "stateMutability": "view",
      "type": "function"
    },
    {
      "inputs": [
        {
          "internalType": "address[]",
          "name": "route",
          "type": "address[]"
        },
        {
          "internalType": "uint256",
          "name": "amountIn",
          "type": "uint256"
        }
      ],
      "name": "estimateOutput",
      "outputs": [
        {
          "internalType": "uint256",
          "name": "",
          "type": "uint256"
        }
      ],
      "stateMutability": "view",
      "type": "function"
    }
  ],
  "bytecode": "0x608060405234801561000f575f80fd5b5060405161136738038061136783398101604081905261002e91610052565b5f80546001600160a01b0319166001600160a01b039290921691909117905561007f565b5f60208284031215610062575f80fd5b81516001600160a01b0381168114610078575f80fd5b9392505050565b6112db8061008c5f395ff3fe608060405234801561000f575f80fd5b506004361061004a575f3560e01c80636f58ceb81461004e578063a375bb8614610074578063c45a015514610094578063c87bff25146100be575b5f80fd5b61006161005c3660046110be565b6100d1565b6040519081526020015b60405180910390f35b610087610082366004611100565b610393565b60405161006b9190611137565b5f546100a6906001600160a01b031681565b6040516001600160a01b03909116815260200161006b565b6100616100cc366004611183565b610b8a565b5f6002835110156101195760405162461bcd60e51b815260206004820152600d60248201526c496e76616c696420726f75746560981b60448201526064015b60405180910390fd5b5f82116101685760405162461bcd60e51b815260206004820152601d60248201527f416d6f756e74206d7573742062652067726561746572207468616e20300000006044820152606401610110565b5f805b6001855161017991906111e1565b811015610389575f805486516001600160a01b039091169063f4f31ede908890859081106101a9576101a96111f4565b6020026020010151888560016101bf9190611208565b815181106101cf576101cf6111f4565b60200260200101516040518363ffffffff1660e01b81526004016101f492919061121b565b602060405180830381865afa15801561020f573d5f803e3d5ffd5b505050506040513d601f19601f820116820180604052508101906102339190611235565b90506001600160a01b0381166102aa5760405162461bcd60e51b815260206004820152603660248201527f4c697175696469747920706f6f6c20646f6573206e6f7420657869737420666f60448201527539103a34329033b4bb32b7103a37b5b2b7103830b4b960511b6064820152608401610110565b806001600160a01b0316634aa066528784815181106102cb576102cb6111f4565b6020026020010151888560016102e19190611208565b815181106102f1576102f16111f4565b60209081029190910101516040516001600160e01b031960e085901b1681526001600160a01b0392831660048201529116602482015260448101889052606401602060405180830381865afa15801561034c573d5f803e3d5ffd5b505050506040513d601f19601f820116820180604052508101906103709190611257565b92508294505080806103819061126e565b91505061016b565b5090505b92915050565b5f5460405163d6432fab60e01b81526060916001600160a01b03169063d6432fab906103c5908690869060040161121b565b602060405180830381865afa1580156103e0573d5f803e3d5ffd5b505050506040513d601f19601f820116820180604052508101906104049190611286565b1561048f576040805160028082526060820183525f9260208301908036833701905050905083815f8151811061043c5761043c6111f4565b60200260200101906001600160a01b031690816001600160a01b0316815250508281600181518110610470576104706111f4565b6001600160a01b0390921660209283029190910190910152905061038d565b5f805f9054906101000a90046001600160a01b03166001600160a01b0316633962f82d6040518163ffffffff1660e01b8152600401602060405180830381865afa1580156104df573d5f803e3d5ffd5b505050506040513d601f19601f820116820180604052508101906105039190611257565b90505f8167ffffffffffffffff81111561051f5761051f610fe4565b604051908082528060200260200182016040528015610548578160200160208202803683370190505b5090505f5b828110156105fb575f546040516327b2595f60e11b8152600481018390526001600160a01b0390911690634f64b2be90602401602060405180830381865afa15801561059b573d5f803e3d5ffd5b505050506040513d601f19601f820116820180604052508101906105bf9190611235565b8282815181106105d1576105d16111f4565b6001600160a01b0390921660209283029190910190910152806105f38161126e565b91505061054d565b505f5b8151811015610819575f5482516001600160a01b039091169063d6432fab908890859085908110610631576106316111f4565b60200260200101516040518363ffffffff1660e01b815260040161065692919061121b565b602060405180830381865afa158015610671573d5f803e3d5ffd5b505050506040513d601f19601f820116820180604052508101906106959190611286565b801561072957505f5482516001600160a01b039091169063d6432fab908490849081106106c4576106c46111f4565b6020026020010151876040518363ffffffff1660e01b81526004016106ea92919061121b565b602060405180830381865afa158015610705573d5f803e3d5ffd5b505050506040513d601f19601f820116820180604052508101906107299190611286565b1561080757604080516003808252608082019092525f916020820160608036833701905050905086815f81518110610763576107636111f4565b60200260200101906001600160a01b031690816001600160a01b031681525050828281518110610795576107956111f4565b6020026020010151816001815181106107b0576107b06111f4565b60200260200101906001600160a01b031690816001600160a01b03168152505085816002815181106107e4576107e46111f4565b6001600160a01b0390921660209283029190910190910152935061038d92505050565b806108118161126e565b9150506105fe565b505f5b8151811015610b50575f5b8251811015610b3d575f5483516001600160a01b039091169063d6432fab90899086908690811061085a5761085a6111f4565b60200260200101516040518363ffffffff1660e01b815260040161087f92919061121b565b602060405180830381865afa15801561089a573d5f803e3d5ffd5b505050506040513d601f19601f820116820180604052508101906108be9190611286565b801561096b57505f5483516001600160a01b039091169063d6432fab908590859081106108ed576108ed6111f4565b6020026020010151858481518110610907576109076111f4565b60200260200101516040518363ffffffff1660e01b815260040161092c92919061121b565b602060405180830381865afa158015610947573d5f803e3d5ffd5b505050506040513d601f19601f8201168201806040525081019061096b9190611286565b80156109ff57505f5483516001600160a01b039091169063d6432fab9085908490811061099a5761099a6111f4565b6020026020010151886040518363ffffffff1660e01b81526004016109c092919061121b565b602060405180830381865afa1580156109db573d5f803e3d5ffd5b505050506040513d601f19601f820116820180604052508101906109ff9190611286565b15610b2b5760408051600480825260a082019092525f916020820160808036833701905050905087815f81518110610a3957610a396111f4565b60200260200101906001600160a01b031690816001600160a01b031681525050838381518110610a6b57610a6b6111f4565b602002602001015181600181518110610a8657610a866111f4565b60200260200101906001600160a01b031690816001600160a01b031681525050838281518110610ab857610ab86111f4565b602002602001015181600281518110610ad357610ad36111f4565b60200260200101906001600160a01b031690816001600160a01b0316815250508681600381518110610b0757610b076111f4565b6001600160a01b0390921660209283029190910190910152945061038d9350505050565b80610b358161126e565b915050610827565b5080610b488161126e565b91505061081c565b5060405162461bcd60e51b815260206004820152600e60248201526d139bc81c9bdd5d1948199bdd5b9960921b6044820152606401610110565b5f600284511015610bcd5760405162461bcd60e51b815260206004820152600d60248201526c496e76616c696420726f75746560981b6044820152606401610110565b5f8311610c1c5760405162461bcd60e51b815260206004820152601d60248201527f416d6f756e74206d7573742062652067726561746572207468616e20300000006044820152606401610110565b835f81518110610c2e57610c2e6111f4565b60209081029190910101516040516323b872dd60e01b8152336004820152306024820152604481018590526001600160a01b03909116906323b872dd906064016020604051808303815f875af1158015610c8a573d5f803e3d5ffd5b505050506040513d601f19601f82011682018060405250810190610cae9190611286565b505f83815b60018751610cc191906111e1565b811015610e8f575f878281518110610cdb57610cdb6111f4565b602002602001015190505f88836001610cf49190611208565b81518110610d0457610d046111f4565b60209081029190910101515f8054604051637a798f6f60e11b815292935090916001600160a01b039091169063f4f31ede90610d46908690869060040161121b565b602060405180830381865afa158015610d61573d5f803e3d5ffd5b505050506040513d601f19601f82011682018060405250810190610d859190611235565b60405163095ea7b360e01b81526001600160a01b03808316600483015260248201889052919250849182169063095ea7b3906044016020604051808303815f875af1158015610dd6573d5f803e3d5ffd5b505050506040513d601f19601f82011682018060405250810190610dfa9190611286565b50604051633b1b303360e21b81526001600160a01b03858116600483015284811660248301526044820188905283169063ec6cc0cc906064016020604051808303815f875af1158015610e4f573d5f803e3d5ffd5b505050506040513d601f19601f82011682018060405250810190610e739190611257565b9650869550505050508080610e879061126e565b915050610cb3565b5083821015610ef15760405162461bcd60e51b815260206004820152602860248201527f4f757470757420616d6f756e742069732062656c6f7720737065636966696564604482015267206d696e696d756d60c01b6064820152608401610110565b5f8660018851610f0191906111e1565b81518110610f1157610f116111f4565b602090810291909101015160405163a9059cbb60e01b8152336004820152602481018590529091506001600160a01b0382169063a9059cbb906044016020604051808303815f875af1158015610f69573d5f803e3d5ffd5b505050506040513d601f19601f82011682018060405250810190610f8d9190611286565b610fd95760405162461bcd60e51b815260206004820181905260248201527f4661696c656420746f207472616e73666572206f757470757420746f6b656e736044820152606401610110565b509095945050505050565b634e487b7160e01b5f52604160045260245ffd5b6001600160a01b038116811461100c575f80fd5b50565b803561101a81610ff8565b919050565b5f82601f83011261102e575f80fd5b8135602067ffffffffffffffff8083111561104b5761104b610fe4565b8260051b604051601f19603f8301168101818110848211171561107057611070610fe4565b60405293845285810183019383810192508785111561108d575f80fd5b83870191505b848210156110b3576110a48261100f565b83529183019190830190611093565b979650505050505050565b5f80604083850312156110cf575f80fd5b823567ffffffffffffffff8111156110e5575f80fd5b6110f18582860161101f565b95602094909401359450505050565b5f8060408385031215611111575f80fd5b823561111c81610ff8565b9150602083013561112c81610ff8565b809150509250929050565b602080825282518282018190525f9190848201906040850190845b818110156111775783516001600160a01b031683529284019291840191600101611152565b50909695505050505050565b5f805f60608486031215611195575f80fd5b833567ffffffffffffffff8111156111ab575f80fd5b6111b78682870161101f565b9660208601359650604090950135949350505050565b634e487b7160e01b5f52601160045260245ffd5b8181038181111561038d5761038d6111cd565b634e487b7160e01b5f52603260045260245ffd5b8082018082111561038d5761038d6111cd565b6001600160a01b0392831681529116602082015260400190565b5f60208284031215611245575f80fd5b815161125081610ff8565b9392505050565b5f60208284031215611267575f80fd5b5051919050565b5f6001820161127f5761127f6111cd565b5060010190565b5f60208284031215611296575f80fd5b81518015158114611250575f80fdfea26469706673582212204a8b07e8c5ffe097bf15d37d86bf9376e98aedacbb922cdb1e526585a0e448b864736f6c63430008150033",
  "immutableReferences": {},
  "source": "// SPDX-License-Identifier: MIT\r\npragma solidity ^0.8.0;\r\n\r\nimport \"./LiquidityPool.sol\";\r\nimport \"./LiquidityPoolFactory.sol\";\r\nimport \"./IERC20.sol\";\r\n\r\ncontract DEX {\r\n    LiquidityPoolFactory public factory;\r\n\r\n    constructor(address _factory) {\r\n        factory = LiquidityPoolFactory(_factory);\r\n    }\r\n\r\n    function swapByRoute(\r\n        address[] memory route,\r\n        uint amountIn,\r\n        uint minAmountOut\r\n    ) external returns (uint) {\r\n        require(route.length >= 2, \"Invalid route\");\r\n        require(amountIn > 0, \"Amount must be greater than 0\");\r\n\r\n        //send the tokens to this contract\r\n        IERC20(route[0]).transferFrom(msg.sender, address(this), amountIn);\r\n\r\n        uint amountOut;\r\n        uint amountInNext = amountIn;\r\n\r\n        for (uint i = 0; i < route.length - 1; i++) {\r\n            address tokenIn = route[i];\r\n            address tokenOut = route[i + 1];\r\n\r\n            LiquidityPool pool = LiquidityPool(\r\n                factory.getLiquidityPool(tokenIn, tokenOut)\r\n            );\r\n            IERC20 token = IERC20(tokenIn);\r\n            token.approve(address(pool), amountInNext);\r\n            amountOut = pool.swapTokens(tokenIn, tokenOut, amountInNext);\r\n\r\n            amountInNext = amountOut;\r\n        }\r\n\r\n        require(\r\n            amountOut >= minAmountOut,\r\n            \"Output amount is below specified minimum\"\r\n        );\r\n\r\n        IERC20 outputToken = IERC20(route[route.length - 1]);\r\n        // require(\r\n        //     outputToken.transferFrom(address(pool), msg.sender, amountOut),\r\n        //     \"Failed to transfer output tokens\"\r\n        // );\r\n        require(\r\n            outputToken.transfer(msg.sender, amountOut),\r\n            \"Failed to transfer output tokens\"\r\n        );\r\n\r\n        return amountOut;\r\n    }\r\n\r\n    function getRoute(\r\n        address tokenA,\r\n        address tokenB\r\n    ) external view returns (address[] memory) {\r\n        if (factory.hasPool(tokenA, tokenB)) {\r\n            address[] memory route = new address[](2);\r\n            route[0] = tokenA;\r\n            route[1] = tokenB;\r\n            return route;\r\n        }\r\n\r\n        uint256 tokenCount = factory.getTokensCount();\r\n        address[] memory tokens = new address[](tokenCount);\r\n        for (uint256 i = 0; i < tokenCount; i++) {\r\n            tokens[i] = factory.tokens(i);\r\n        }\r\n\r\n        for (uint256 i = 0; i < tokens.length; i++) {\r\n            if (\r\n                factory.hasPool(tokenA, tokens[i]) &&\r\n                factory.hasPool(tokens[i], tokenB)\r\n            ) {\r\n                address[] memory oneHopRoute = new address[](3);\r\n                oneHopRoute[0] = tokenA;\r\n                oneHopRoute[1] = tokens[i];\r\n                oneHopRoute[2] = tokenB;\r\n                return oneHopRoute;\r\n            }\r\n        }\r\n\r\n        for (uint256 i = 0; i < tokens.length; i++) {\r\n            for (uint256 j = 0; j < tokens.length; j++) {\r\n                if (\r\n                    factory.hasPool(tokenA, tokens[i]) &&\r\n                    factory.hasPool(tokens[i], tokens[j]) &&\r\n                    factory.hasPool(tokens[j], tokenB)\r\n                ) {\r\n                    address[] memory twoHopRoute = new address[](4);\r\n                    twoHopRoute[0] = tokenA;\r\n                    twoHopRoute[1] = tokens[i];\r\n                    twoHopRoute[2] = tokens[j];\r\n                    twoHopRoute[3] = tokenB;\r\n                    return twoHopRoute;\r\n                }\r\n            }\r\n        }\r\n\r\n        revert(\"No route found\");\r\n    }\r\n\r\n    function estimateOutput(\r\n        address[] memory route,\r\n        uint amountIn\r\n    ) external view returns (uint) {\r\n        require(route.length >= 2, \"Invalid route\");\r\n        require(amountIn > 0, \"Amount must be greater than 0\");\r\n\r\n        uint amountOut;\r\n\r\n        for (uint i = 0; i < route.length - 1; i++) {\r\n            LiquidityPool pool = LiquidityPool(\r\n                factory.getLiquidityPool(route[i], route[i + 1])\r\n            );\r\n            require(\r\n                address(pool) != address(0),\r\n                \"Liquidity pool does not exist for the given token pair\"\r\n            );\r\n\r\n            amountOut = pool.getAmountOut(route[i], route[i + 1], amountIn);\r\n            amountIn = amountOut;\r\n        }\r\n\r\n        return amountOut;\r\n    }\r\n}\r\n",
  "sourcePath": "C:\\Users\\surge\\Desktop\\dapp-projects\\liquidip\\contracts\\DEX.sol",
  "compiler": {
    "name": "solc",
    "version": "0.8.21+commit.d9974bed.Emscripten.clang"
  },
  "schemaVersion": "3.4.15",
  "updatedAt": "2023-08-20T22:30:46.459Z",
  "devdoc": {
    "kind": "dev",
    "methods": {},
    "version": 1
  },
  "userdoc": {
    "kind": "user",
    "methods": {},
    "version": 1
  }
}