{
  "contractName": "DEXFactory",
  "abi": [
    {
      "anonymous": false,
      "inputs": [
        {
          "indexed": true,
          "internalType": "address",
          "name": "dex",
          "type": "address"
        },
        {
          "indexed": true,
          "internalType": "address",
          "name": "flashLoanProvider",
          "type": "address"
        },
        {
          "indexed": true,
          "internalType": "address",
          "name": "liquidityPoolFactory",
          "type": "address"
        }
      ],
      "name": "DEXCreated",
      "type": "event"
    },
    {
      "inputs": [
        {
          "internalType": "address",
          "name": "",
          "type": "address"
        }
      ],
      "name": "dexToDetails",
      "outputs": [
        {
          "internalType": "address",
          "name": "dex",
          "type": "address"
        },
        {
          "internalType": "address",
          "name": "flashLoanProvider",
          "type": "address"
        },
        {
          "internalType": "address",
          "name": "liquidityPoolFactory",
          "type": "address"
        }
      ],
      "stateMutability": "view",
      "type": "function",
      "constant": true
    },
    {
      "inputs": [
        {
          "internalType": "uint256",
          "name": "",
          "type": "uint256"
        }
      ],
      "name": "dexes",
      "outputs": [
        {
          "internalType": "address",
          "name": "dex",
          "type": "address"
        },
        {
          "internalType": "address",
          "name": "flashLoanProvider",
          "type": "address"
        },
        {
          "internalType": "address",
          "name": "liquidityPoolFactory",
          "type": "address"
        }
      ],
      "stateMutability": "view",
      "type": "function",
      "constant": true
    },
    {
      "inputs": [],
      "name": "createDex",
      "outputs": [
        {
          "components": [
            {
              "internalType": "address",
              "name": "dex",
              "type": "address"
            },
            {
              "internalType": "address",
              "name": "flashLoanProvider",
              "type": "address"
            },
            {
              "internalType": "address",
              "name": "liquidityPoolFactory",
              "type": "address"
            }
          ],
          "internalType": "struct DEXFactory.DEXData",
          "name": "",
          "type": "tuple"
        }
      ],
      "stateMutability": "nonpayable",
      "type": "function"
    },
    {
      "inputs": [],
      "name": "getDEXCount",
      "outputs": [
        {
          "internalType": "uint256",
          "name": "",
          "type": "uint256"
        }
      ],
      "stateMutability": "view",
      "type": "function",
      "constant": true
    },
    {
      "inputs": [
        {
          "internalType": "uint256",
          "name": "index",
          "type": "uint256"
        }
      ],
      "name": "getDEXDetails",
      "outputs": [
        {
          "internalType": "address",
          "name": "dex",
          "type": "address"
        },
        {
          "internalType": "address",
          "name": "flashLoanProvider",
          "type": "address"
        },
        {
          "internalType": "address",
          "name": "liquidityPoolFactory",
          "type": "address"
        }
      ],
      "stateMutability": "view",
      "type": "function",
      "constant": true
    },
    {
      "inputs": [
        {
          "internalType": "address",
          "name": "dexAddress",
          "type": "address"
        }
      ],
      "name": "getDEXDetailsByAddress",
      "outputs": [
        {
          "internalType": "address",
          "name": "dex",
          "type": "address"
        },
        {
          "internalType": "address",
          "name": "flashLoanProvider",
          "type": "address"
        },
        {
          "internalType": "address",
          "name": "liquidityPoolFactory",
          "type": "address"
        }
      ],
      "stateMutability": "view",
      "type": "function",
      "constant": true
    },
    {
      "inputs": [],
      "name": "getAllDexes",
      "outputs": [
        {
          "components": [
            {
              "internalType": "address",
              "name": "dex",
              "type": "address"
            },
            {
              "internalType": "address",
              "name": "flashLoanProvider",
              "type": "address"
            },
            {
              "internalType": "address",
              "name": "liquidityPoolFactory",
              "type": "address"
            }
          ],
          "internalType": "struct DEXFactory.DEXData[]",
          "name": "",
          "type": "tuple[]"
        }
      ],
      "stateMutability": "view",
      "type": "function",
      "constant": true
    }
  ],
  "bytecode": "0x608060405234801561000f575f80fd5b50614c158061001d5f395ff3fe608060405234801561000f575f80fd5b506004361061007a575f3560e01c806329410d361161005857806329410d36146101145780636338a7c014610127578063a6b4a0021461013a578063f315742b1461014d575f80fd5b8063043d41b01461007e5780631b4450b71461009c5780631dd73b1d146100ac575b5f80fd5b610086610162565b60405161009391906105e4565b60405180910390f35b5f54604051908152602001610093565b6100ea6100ba36600461061a565b600160208190525f91825260409091208054918101546002909101546001600160a01b0392831692918216911683565b604080516001600160a01b0394851681529284166020840152921691810191909152606001610093565b6100ea61012236600461061a565b61036e565b6100ea610135366004610647565b610414565b6100ea610148366004610647565b610453565b610155610539565b604051610093919061065e565b604080516060810182525f80825260208201819052918101919091525f60405161018b906105bd565b604051809103905ff0801580156101a4573d5f803e3d5ffd5b5090505f816040516101b5906105ca565b6001600160a01b039091168152602001604051809103905ff0801580156101de573d5f803e3d5ffd5b5090505f826040516101ef906105d7565b6001600160a01b039091168152602001604051809103905ff080158015610218573d5f803e3d5ffd5b50604080516060810182526001600160a01b0385811680835284821660208085018281528a85168688018181525f8054600180820183558280528a517f290decd9548b62a8d60345a988386fc84ba6bc95484008f6362f93160ef3e563600390930292830180546001600160a01b0319908116928d1692909217905586517f290decd9548b62a8d60345a988386fc84ba6bc95484008f6362f93160ef3e564840180548316918d1691909117905584517f290decd9548b62a8d60345a988386fc84ba6bc95484008f6362f93160ef3e56590930180548216938c1693909317909255888352958690528a82208a5181548316908b16178155945195850180548216968a169690961790955590516002909301805490941692909616919091179091559451959650929490917f3be863b5a0008eec79de319f265c5b6c1b200668ca48166dc57a80c2f62b9edb91a4949350505050565b6001600160a01b038082165f908152600160208181526040808420815160608101835281548716808252948201548716938101939093526002015490941693810193909352909182918291906103fb5760405162461bcd60e51b815260206004820152600d60248201526c111156081b9bdd08199bdd5b99609a1b60448201526064015b60405180910390fd5b8051602082015160409092015190969195509350915050565b5f8181548110610422575f80fd5b5f9182526020909120600390910201805460018201546002909201546001600160a01b039182169350918116911683565b5f805481908190841061049e5760405162461bcd60e51b8152602060048201526013602482015272496e646578206f7574206f6620626f756e647360681b60448201526064016103f2565b5f84815481106104b0576104b06106cd565b5f918252602082206003909102015481546001600160a01b039091169190869081106104de576104de6106cd565b5f918252602082206001600390920201015481546001600160a01b0390911691908790811061050f5761050f6106cd565b5f91825260209091206002600390920201015491945092506001600160a01b031690509193909250565b60605f805480602002602001604051908101604052809291908181526020015f905b828210156105b4575f848152602090819020604080516060810182526003860290920180546001600160a01b0390811684526001808301548216858701526002909201541691830191909152908352909201910161055b565b50505050905090565b612cb2806106e283390190565b6113678061339483390190565b6104e5806146fb83390190565b60608101610614828480516001600160a01b03908116835260208083015182169084015260409182015116910152565b92915050565b5f6020828403121561062a575f80fd5b81356001600160a01b0381168114610640575f80fd5b9392505050565b5f60208284031215610657575f80fd5b5035919050565b602080825282518282018190525f9190848201906040850190845b818110156106c1576106ae83855180516001600160a01b03908116835260208083015182169084015260409182015116910152565b9284019260609290920191600101610679565b50909695505050505050565b634e487b7160e01b5f52603260045260245ffdfe60806040525f600655348015610013575f80fd5b50612c91806100215f395ff3fe608060405234801561000f575f80fd5b50600436106100fb575f3560e01c8063427f91a611610093578063d75a2d7211610063578063d75a2d721461024a578063d88ff1f41461025d578063f4f31ede14610265578063f525cb681461029c575f80fd5b8063427f91a6146101c25780634f64b2be146101e1578063901754d7146101f4578063d6432fab14610227575f80fd5b8063291c73ed116100ce578063291c73ed146101695780632a5c792a1461017e5780633962f82d1461019357806341d1de971461019a575f80fd5b8063059a9127146100ff5780631d0f4c661461012f578063215d4cde146101415780632384d3d014610154575b5f80fd5b61011261010d366004610a79565b6102a5565b6040516001600160a01b0390911681526020015b60405180910390f35b6004545b604051908152602001610126565b61011261014f366004610ab4565b6102e4565b610167610162366004610adc565b6102fd565b005b6101716105e6565b6040516101269190610b0d565b610186610685565b6040516101269190610b9e565b5f54610133565b6101126101a8366004610bea565b60056020525f90815260409020546001600160a01b031681565b6101336101d0366004610c01565b60016020525f908152604090205481565b6101126101ef366004610bea565b610746565b610112610202366004610adc565b600260209081525f92835260408084209091529082529020546001600160a01b031681565b61023a610235366004610adc565b61076d565b6040519015158152602001610126565b610186610258366004610c01565b61079d565b610186610810565b610112610273366004610adc565b6001600160a01b039182165f908152600260209081526040808320938516835292905220541690565b61013360065481565b600482815481106102b4575f80fd5b905f5260205f200181815481106102c9575f80fd5b5f918252602090912001546001600160a01b03169150829050565b6003602052815f5260405f2081815481106102c9575f80fd5b806001600160a01b0316826001600160a01b0316036103635760405162461bcd60e51b815260206004820152601860248201527f546f6b656e73206d75737420626520646966666572656e74000000000000000060448201526064015b60405180910390fd5b61036d828261076d565b156103b05760405162461bcd60e51b8152602060048201526013602482015272506f6f6c20616c72656164792065786973747360681b604482015260640161035a565b5f82826040516103bf906109fe565b6001600160a01b03928316815291166020820152604001604051809103905ff0801580156103ef573d5f803e3d5ffd5b506001600160a01b038085165f81815260026020818152604080842089871680865290835281852080549789166001600160a01b0319988916811790915593835281852095855294825280842080548716841790556003825280842080546001818101835591865283862001805488168517905594845280842080548087018255908552828520018054871684179055600680548552600590925283208054909516909117909355825493945090926104a9908490610c35565b90915550506040805160028082526060820183525f9260208301908036833701905050905083815f815181106104e1576104e1610c5c565b60200260200101906001600160a01b031690816001600160a01b031681525050828160018151811061051557610515610c5c565b6001600160a01b03909216602092830291909101820152600480546001810182555f91909152825161056e927f8a35acfbc15ff81a39ae7d344fd709f28e8600b4aa8c65c6b64bfe7fe36bd19b90920191840190610a0b565b50610578846108bd565b6105855761058584610940565b61058e836108bd565b61059b5761059b83610940565b6040516001600160a01b03838116825280851691908616907fef12eed5b10ee0380818f3c2634078836b5ca46cf50742b894ebf13bc3e561a79060200160405180910390a350505050565b60606004805480602002602001604051908101604052809291908181526020015f905b8282101561067c575f8481526020908190208301805460408051828502810185019091528181529283018282801561066857602002820191905f5260205f20905b81546001600160a01b0316815260019091019060200180831161064a575b505050505081526020019060010190610609565b50505050905090565b5f5460609067ffffffffffffffff8111156106a2576106a2610c48565b6040519080825280602002602001820160405280156106cb578160200160208202803683370190505b5090505f5b5f54811015610742575f81815481106106eb576106eb610c5c565b905f5260205f20015f9054906101000a90046001600160a01b031682828151811061071857610718610c5c565b6001600160a01b03909216602092830291909101909101528061073a81610c70565b9150506106d0565b5090565b5f8181548110610754575f80fd5b5f918252602090912001546001600160a01b0316905081565b6001600160a01b038281165f90815260026020908152604080832085851684529091529020541615155b92915050565b6001600160a01b0381165f9081526003602090815260409182902080548351818402810184019094528084526060939283018282801561080457602002820191905f5260205f20905b81546001600160a01b031681526001909101906020018083116107e6575b50505050509050919050565b606060065467ffffffffffffffff81111561082d5761082d610c48565b604051908082528060200260200182016040528015610856578160200160208202803683370190505b5090505f5b600654811015610742575f8181526005602052604090205482516001600160a01b039091169083908390811061089357610893610c5c565b6001600160a01b0390921660209283029190910190910152806108b581610c70565b91505061085b565b6001600160a01b0381165f9081526001602052604081205415158061079757506001600160a01b0382165f9081526001602052604090205415801561090257505f5415155b80156107975750816001600160a01b03165f808154811061092557610925610c5c565b5f918252602090912001546001600160a01b03161492915050565b610949816108bd565b1561098d5760405162461bcd60e51b8152602060048201526014602482015273546f6b656e20616c72656164792065786973747360601b604482015260640161035a565b5f8054600180820183558280527f290decd9548b62a8d60345a988386fc84ba6bc95484008f6362f93160ef3e56390910180546001600160a01b0319166001600160a01b03851617905590546109e39190610c88565b6001600160a01b039091165f90815260016020526040902055565b611fc080610c9c83390190565b828054828255905f5260205f20908101928215610a5e579160200282015b82811115610a5e57825182546001600160a01b0319166001600160a01b03909116178255602090920191600190910190610a29565b506107429291505b80821115610742575f8155600101610a66565b5f8060408385031215610a8a575f80fd5b50508035926020909101359150565b80356001600160a01b0381168114610aaf575f80fd5b919050565b5f8060408385031215610ac5575f80fd5b610ace83610a99565b946020939093013593505050565b5f8060408385031215610aed575f80fd5b610af683610a99565b9150610b0460208401610a99565b90509250929050565b5f602080830181845280855180835260408601915060408160051b87010192508387015f805b83811015610b9057888603603f19018552825180518088529088019088880190845b81811015610b7a5783516001600160a01b03168352928a0192918a0191600101610b55565b5090975050509386019391860191600101610b33565b509398975050505050505050565b602080825282518282018190525f9190848201906040850190845b81811015610bde5783516001600160a01b031683529284019291840191600101610bb9565b50909695505050505050565b5f60208284031215610bfa575f80fd5b5035919050565b5f60208284031215610c11575f80fd5b610c1a82610a99565b9392505050565b634e487b7160e01b5f52601160045260245ffd5b8082018082111561079757610797610c21565b634e487b7160e01b5f52604160045260245ffd5b634e487b7160e01b5f52603260045260245ffd5b5f60018201610c8157610c81610c21565b5060010190565b8181038181111561079757610797610c2156fe608060405234801562000010575f80fd5b5060405162001fc038038062001fc0833981016040819052620000339162000081565b600280546001600160a01b039384166001600160a01b03199182161790915560038054929093169116179055620000b7565b80516001600160a01b03811681146200007c575f80fd5b919050565b5f806040838503121562000093575f80fd5b6200009e8362000065565b9150620000ae6020840162000065565b90509250929050565b611efb80620000c55f395ff3fe608060405234801561000f575f80fd5b5060043610610106575f3560e01c806395d89b411161009e578063a9059cbb1161006e578063a9059cbb14610274578063aca34c1114610287578063d21220a7146102a1578063dd62ed3e146102b4578063ec6cc0cc146102de575f80fd5b806395d89b41146102175780639c8f9f23146102395780639cd441da1461024e5780639d9638a114610261575f80fd5b806323b872dd116100d957806323b872dd146101b8578063313ce567146101cb5780634aa06652146101e557806370a08231146101f8575f80fd5b806306fdde031461010a578063095ea7b3146101535780630dfe16811461017657806318160ddd146101a1575b5f80fd5b61013d604051806040016040528060148152602001732634b8bab4b234ba3c902837b7b6102a37b5b2b760611b81525081565b60405161014a9190611b9b565b60405180910390f35b610166610161366004611bc8565b6102f1565b604051901515815260200161014a565b600254610189906001600160a01b031681565b6040516001600160a01b03909116815260200161014a565b6101aa60045481565b60405190815260200161014a565b6101666101c6366004611bf0565b6103ac565b6101d3601281565b60405160ff909116815260200161014a565b6101aa6101f3366004611bf0565b610472565b6101aa610206366004611c29565b5f6020819052908152604090205481565b61013d6040518060400160405280600381526020016213141560ea1b81525081565b61024c610247366004611c42565b6106a2565b005b61024c61025c366004611c59565b61096a565b61024c61026f366004611bf0565b610ce6565b610166610282366004611bc8565b611078565b61028f61108d565b60405161014a96959493929190611c79565b600354610189906001600160a01b031681565b6101aa6102c2366004611cdf565b600160209081525f928352604080842090915290825290205481565b6101aa6102ec366004611bf0565b611354565b335f908152602081905260408120548211156103485760405162461bcd60e51b81526020600482015260116024820152704e6f7420656e6f75676820746f6b656e7360781b60448201526064015b60405180910390fd5b335f8181526001602090815260408083206001600160a01b03881680855290835292819020869055518581529192917f8c5be1e5ebec7d5bd14f71427d1e84f3dd0314c0f7b2291e5b200ac8c7c3b925910160405180910390a35060015b92915050565b6001600160a01b038084165f9081526001602090815260408083209386168352929052908120548211156104225760405162461bcd60e51b815260206004820152601f60248201527f4e6f7420616c6c6f77656420746f2073656e64207468697320616d6f756e7400604482015260640161033f565b61042d8484846117e6565b6001600160a01b038085165f90815260016020908152604080832093871683529290529081208054849290610463908490611d24565b90915550600195945050505050565b6002545f9081906001600160a01b038681169116146104fa576003546040516370a0823160e01b81523060048201526001600160a01b03909116906370a0823190602401602060405180830381865afa1580156104d1573d5f803e3d5ffd5b505050506040513d601f19601f820116820180604052508101906104f59190611d37565b610564565b6002546040516370a0823160e01b81523060048201526001600160a01b03909116906370a0823190602401602060405180830381865afa158015610540573d5f803e3d5ffd5b505050506040513d601f19601f820116820180604052508101906105649190611d37565b6002549091505f906001600160a01b038681169116146105ed576003546040516370a0823160e01b81523060048201526001600160a01b03909116906370a0823190602401602060405180830381865afa1580156105c4573d5f803e3d5ffd5b505050506040513d601f19601f820116820180604052508101906105e89190611d37565b610657565b6002546040516370a0823160e01b81523060048201526001600160a01b03909116906370a0823190602401602060405180830381865afa158015610633573d5f803e3d5ffd5b505050506040513d601f19601f820116820180604052508101906106579190611d37565b90505f826106658387611d4e565b61066f9190611d65565b90505f6103e8610680836003611d4e565b61068a9190611d65565b90506106968183611d24565b98975050505050505050565b6106ac33826119bf565b6002546040516370a0823160e01b81523060048201525f916001600160a01b0316906370a0823190602401602060405180830381865afa1580156106f2573d5f803e3d5ffd5b505050506040513d601f19601f820116820180604052508101906107169190611d37565b6003546040516370a0823160e01b81523060048201529192505f916001600160a01b03909116906370a0823190602401602060405180830381865afa158015610761573d5f803e3d5ffd5b505050506040513d601f19601f820116820180604052508101906107859190611d37565b90505f60045483856107979190611d4e565b6107a19190611d65565b90505f60045483866107b39190611d4e565b6107bd9190611d65565b90505f821180156107cd57505f81115b6108125760405162461bcd60e51b8152602060048201526016602482015275496e73756666696369656e74206c697175696469747960501b604482015260640161033f565b60025460405163a9059cbb60e01b8152336004820152602481018490526001600160a01b039091169063a9059cbb906044016020604051808303815f875af1158015610860573d5f803e3d5ffd5b505050506040513d601f19601f820116820180604052508101906108849190611d84565b6108a05760405162461bcd60e51b815260040161033f90611da3565b60035460405163a9059cbb60e01b8152336004820152602481018390526001600160a01b039091169063a9059cbb906044016020604051808303815f875af11580156108ee573d5f803e3d5ffd5b505050506040513d601f19601f820116820180604052508101906109129190611d84565b61092e5760405162461bcd60e51b815260040161033f90611da3565b60405185815233907fc2c3f06e49b9f15e7b4af9055e183b0d73362e033ad82a07dec9bf98401717199060200160405180910390a25050505050565b5f8211801561097857505f81115b6109c45760405162461bcd60e51b815260206004820152601e60248201527f416d6f756e7473206d7573742062652067726561746572207468616e20300000604482015260640161033f565b6002546040516323b872dd60e01b81526001600160a01b03909116906323b872dd906109f890339030908790600401611dd2565b6020604051808303815f875af1158015610a14573d5f803e3d5ffd5b505050506040513d601f19601f82011682018060405250810190610a389190611d84565b610a7d5760405162461bcd60e51b8152602060048201526016602482015275151bdad95b8c081d1c985b9cd9995c8819985a5b195960521b604482015260640161033f565b6003546040516323b872dd60e01b81526001600160a01b03909116906323b872dd90610ab190339030908690600401611dd2565b6020604051808303815f875af1158015610acd573d5f803e3d5ffd5b505050506040513d601f19601f82011682018060405250810190610af19190611d84565b610b365760405162461bcd60e51b8152602060048201526016602482015275151bdad95b8c481d1c985b9cd9995c8819985a5b195960521b604482015260640161033f565b6004545f818103610b5f576107d0610b4e8486611df6565b610b589190611d65565b9050610ca1565b6002546040516370a0823160e01b81523060048201525f916001600160a01b0316906370a0823190602401602060405180830381865afa158015610ba5573d5f803e3d5ffd5b505050506040513d601f19601f82011682018060405250810190610bc99190611d37565b6003546040516370a0823160e01b81523060048201529192505f916001600160a01b03909116906370a0823190602401602060405180830381865afa158015610c14573d5f803e3d5ffd5b505050506040513d601f19601f82011682018060405250810190610c389190611d37565b90505f82610c468689611d4e565b610c509190611d65565b90505f82610c5e8789611d4e565b610c689190611d65565b90505f610c758383611ab8565b90506107d088610c858b84611df6565b610c8f9190611df6565b610c999190611d65565b955050505050505b610cab3382611acf565b60405181815233907fc17cea59c2955cb181b03393209566960365771dbba9dc3d510180e7cb3120889060200160405180910390a250505050565b6002546001600160a01b0383811691161480610d0f57506003546001600160a01b038381169116145b610d545760405162461bcd60e51b8152602060048201526016602482015275151bdad95b881b9bdd081a5b881d1a1a5cc81c1bdbdb60521b604482015260640161033f565b6040516370a0823160e01b81523060048201525f906001600160a01b038416906370a0823190602401602060405180830381865afa158015610d98573d5f803e3d5ffd5b505050506040513d601f19601f82011682018060405250810190610dbc9190611d37565b905081811015610e0e5760405162461bcd60e51b815260206004820152601c60248201527f4e6f7420656e6f756768206c697175696469747920696e20706f6f6c00000000604482015260640161033f565b5f612710610e1d846005611d4e565b610e279190611d65565b60405163a9059cbb60e01b81526001600160a01b038781166004830152602482018690529192509085169063a9059cbb906044016020604051808303815f875af1158015610e77573d5f803e3d5ffd5b505050506040513d601f19601f82011682018060405250810190610e9b9190611d84565b610ee75760405162461bcd60e51b815260206004820152601960248201527f436f756c64206e6f74207472616e7366657220746f6b656e7300000000000000604482015260640161033f565b6040516332978f7960e01b815260048101849052602481018290523060448201526001600160a01b038616906332978f79906064015f604051808303815f87803b158015610f33575f80fd5b505af1158015610f45573d5f803e3d5ffd5b50506040516370a0823160e01b81523060048201525f92506001600160a01b03871691506370a0823190602401602060405180830381865afa158015610f8d573d5f803e3d5ffd5b505050506040513d601f19601f82011682018060405250810190610fb19190611d37565b9050610fbd8284611df6565b811461101a5760405162461bcd60e51b815260206004820152602660248201527f466c617368206c6f616e206861736e2774206265656e2072657061696420776960448201526574682066656560d01b606482015260840161033f565b846001600160a01b0316866001600160a01b03167f0d7d75e01ab95780d3cd1c8ec0dd6c2ce19e3a20427eec8bf53283b6fb8e95f08685604051611068929190918252602082015260400190565b60405180910390a3505050505050565b5f6110843384846117e6565b50600192915050565b6060805f6060805f60025f9054906101000a90046001600160a01b03166001600160a01b03166306fdde036040518163ffffffff1660e01b81526004015f60405180830381865afa1580156110e4573d5f803e3d5ffd5b505050506040513d5f823e601f3d908101601f1916820160405261110b9190810190611e1d565b60025f9054906101000a90046001600160a01b03166001600160a01b03166395d89b416040518163ffffffff1660e01b81526004015f60405180830381865afa15801561115a573d5f803e3d5ffd5b505050506040513d5f823e601f3d908101601f191682016040526111819190810190611e1d565b6002546040516370a0823160e01b81523060048201526001600160a01b03909116906370a0823190602401602060405180830381865afa1580156111c7573d5f803e3d5ffd5b505050506040513d601f19601f820116820180604052508101906111eb9190611d37565b60035f9054906101000a90046001600160a01b03166001600160a01b03166306fdde036040518163ffffffff1660e01b81526004015f60405180830381865afa15801561123a573d5f803e3d5ffd5b505050506040513d5f823e601f3d908101601f191682016040526112619190810190611e1d565b60035f9054906101000a90046001600160a01b03166001600160a01b03166395d89b416040518163ffffffff1660e01b81526004015f60405180830381865afa1580156112b0573d5f803e3d5ffd5b505050506040513d5f823e601f3d908101601f191682016040526112d79190810190611e1d565b6003546040516370a0823160e01b81523060048201526001600160a01b03909116906370a0823190602401602060405180830381865afa15801561131d573d5f803e3d5ffd5b505050506040513d601f19601f820116820180604052508101906113419190611d37565b949b939a50919850965094509092509050565b6002545f906001600160a01b038581169116148061137f57506003546001600160a01b038581169116145b6113c15760405162461bcd60e51b815260206004820152601360248201527224b73b30b634b21034b7383aba103a37b5b2b760691b604482015260640161033f565b6002546001600160a01b03848116911614806113ea57506003546001600160a01b038481169116145b61142d5760405162461bcd60e51b815260206004820152601460248201527324b73b30b634b21037baba383aba103a37b5b2b760611b604482015260640161033f565b826001600160a01b0316846001600160a01b0316036114a05760405162461bcd60e51b815260206004820152602960248201527f496e70757420616e64206f757470757420746f6b656e73206d75737420626520604482015268191a5999995c995b9d60ba1b606482015260840161033f565b5f82116114ef5760405162461bcd60e51b815260206004820152601d60248201527f416d6f756e74206d7573742062652067726561746572207468616e2030000000604482015260640161033f565b5f6114fb858585610472565b90505f811161154c5760405162461bcd60e51b815260206004820152601d60248201527f416d6f756e74206d7573742062652067726561746572207468616e2030000000604482015260640161033f565b6002546001600160a01b0390811690861603611685576002546040516323b872dd60e01b81526001600160a01b03909116906323b872dd9061159690339030908890600401611dd2565b6020604051808303815f875af11580156115b2573d5f803e3d5ffd5b505050506040513d601f19601f820116820180604052508101906115d69190611d84565b6115f25760405162461bcd60e51b815260040161033f90611da3565b60035460405163a9059cbb60e01b8152336004820152602481018390526001600160a01b039091169063a9059cbb906044016020604051808303815f875af1158015611640573d5f803e3d5ffd5b505050506040513d601f19601f820116820180604052508101906116649190611d84565b6116805760405162461bcd60e51b815260040161033f90611da3565b6117a3565b6003546040516323b872dd60e01b81526001600160a01b03909116906323b872dd906116b990339030908890600401611dd2565b6020604051808303815f875af11580156116d5573d5f803e3d5ffd5b505050506040513d601f19601f820116820180604052508101906116f99190611d84565b6117155760405162461bcd60e51b815260040161033f90611da3565b60025460405163a9059cbb60e01b8152336004820152602481018390526001600160a01b039091169063a9059cbb906044016020604051808303815f875af1158015611763573d5f803e3d5ffd5b505050506040513d601f19601f820116820180604052508101906117879190611d84565b6117a35760405162461bcd60e51b815260040161033f90611da3565b604080518481526020810183905233917f18704ae982dcd24a1beeeed3ecf045ab0520d7b7519b97adf3e4f40bf7efe339910160405180910390a2949350505050565b6001600160a01b03831661184a5760405162461bcd60e51b815260206004820152602560248201527f45524332303a207472616e736665722066726f6d20746865207a65726f206164604482015264647265737360d81b606482015260840161033f565b6001600160a01b0382166118ac5760405162461bcd60e51b815260206004820152602360248201527f45524332303a207472616e7366657220746f20746865207a65726f206164647260448201526265737360e81b606482015260840161033f565b6001600160a01b0383165f908152602081905260409020548111156119135760405162461bcd60e51b815260206004820152601f60248201527f42616c616e6365206f662073656e646572206973206e6f7420656e6f75676800604482015260640161033f565b6001600160a01b0383165f908152602081905260408120805483929061193a908490611d24565b90915550506001600160a01b0382165f9081526020819052604081208054839290611966908490611df6565b92505081905550816001600160a01b0316836001600160a01b03167fddf252ad1be2c89b69c2b068fc378daa952ba7f163c4a11628f55a4df523b3ef836040516119b291815260200190565b60405180910390a3505050565b6001600160a01b0382165f90815260208190526040902054811115611a315760405162461bcd60e51b815260206004820152602260248201527f45524332303a206275726e20616d6f756e7420657863656564732062616c616e604482015261636560f01b606482015260840161033f565b8060045f828254611a429190611d24565b90915550506001600160a01b0382165f9081526020819052604081208054839290611a6e908490611d24565b90915550506040518181525f906001600160a01b038416907fddf252ad1be2c89b69c2b068fc378daa952ba7f163c4a11628f55a4df523b3ef906020015b60405180910390a35050565b5f818310611ac65781611ac8565b825b9392505050565b8060045f828254611ae09190611df6565b90915550506001600160a01b0382165f9081526020819052604081208054839290611b0c908490611df6565b90915550506040518181526001600160a01b038316905f907fddf252ad1be2c89b69c2b068fc378daa952ba7f163c4a11628f55a4df523b3ef90602001611aac565b5f5b83811015611b68578181015183820152602001611b50565b50505f910152565b5f8151808452611b87816020860160208601611b4e565b601f01601f19169290920160200192915050565b602081525f611ac86020830184611b70565b80356001600160a01b0381168114611bc3575f80fd5b919050565b5f8060408385031215611bd9575f80fd5b611be283611bad565b946020939093013593505050565b5f805f60608486031215611c02575f80fd5b611c0b84611bad565b9250611c1960208501611bad565b9150604084013590509250925092565b5f60208284031215611c39575f80fd5b611ac882611bad565b5f60208284031215611c52575f80fd5b5035919050565b5f8060408385031215611c6a575f80fd5b50508035926020909101359150565b60c081525f611c8b60c0830189611b70565b8281036020840152611c9d8189611b70565b90508660408401528281036060840152611cb78187611b70565b90508281036080840152611ccb8186611b70565b9150508260a0830152979650505050505050565b5f8060408385031215611cf0575f80fd5b611cf983611bad565b9150611d0760208401611bad565b90509250929050565b634e487b7160e01b5f52601160045260245ffd5b818103818111156103a6576103a6611d10565b5f60208284031215611d47575f80fd5b5051919050565b80820281158282048414176103a6576103a6611d10565b5f82611d7f57634e487b7160e01b5f52601260045260245ffd5b500490565b5f60208284031215611d94575f80fd5b81518015158114611ac8575f80fd5b602080825260159082015274151bdad95b881d1c985b9cd9995c8819985a5b1959605a1b604082015260600190565b6001600160a01b039384168152919092166020820152604081019190915260600190565b808201808211156103a6576103a6611d10565b634e487b7160e01b5f52604160045260245ffd5b5f60208284031215611e2d575f80fd5b815167ffffffffffffffff80821115611e44575f80fd5b818401915084601f830112611e57575f80fd5b815181811115611e6957611e69611e09565b604051601f8201601f19908116603f01168101908382118183101715611e9157611e91611e09565b81604052828152876020848701011115611ea9575f80fd5b611eba836020830160208801611b4e565b97965050505050505056fea2646970667358221220fa286633ca9075641f1c63a0db41b4af514826911ef3ead289b2d79021fabd5d64736f6c63430008150033a264697066735822122030b0ef9110b58123ee452fff37525a835a4c94992de1ed47cec2305106f85a8064736f6c63430008150033608060405234801561000f575f80fd5b5060405161136738038061136783398101604081905261002e91610052565b5f80546001600160a01b0319166001600160a01b039290921691909117905561007f565b5f60208284031215610062575f80fd5b81516001600160a01b0381168114610078575f80fd5b9392505050565b6112db8061008c5f395ff3fe608060405234801561000f575f80fd5b506004361061004a575f3560e01c80636f58ceb81461004e578063a375bb8614610074578063c45a015514610094578063c87bff25146100be575b5f80fd5b61006161005c3660046110be565b6100d1565b6040519081526020015b60405180910390f35b610087610082366004611100565b610393565b60405161006b9190611137565b5f546100a6906001600160a01b031681565b6040516001600160a01b03909116815260200161006b565b6100616100cc366004611183565b610b8a565b5f6002835110156101195760405162461bcd60e51b815260206004820152600d60248201526c496e76616c696420726f75746560981b60448201526064015b60405180910390fd5b5f82116101685760405162461bcd60e51b815260206004820152601d60248201527f416d6f756e74206d7573742062652067726561746572207468616e20300000006044820152606401610110565b5f805b6001855161017991906111e1565b811015610389575f805486516001600160a01b039091169063f4f31ede908890859081106101a9576101a96111f4565b6020026020010151888560016101bf9190611208565b815181106101cf576101cf6111f4565b60200260200101516040518363ffffffff1660e01b81526004016101f492919061121b565b602060405180830381865afa15801561020f573d5f803e3d5ffd5b505050506040513d601f19601f820116820180604052508101906102339190611235565b90506001600160a01b0381166102aa5760405162461bcd60e51b815260206004820152603660248201527f4c697175696469747920706f6f6c20646f6573206e6f7420657869737420666f60448201527539103a34329033b4bb32b7103a37b5b2b7103830b4b960511b6064820152608401610110565b806001600160a01b0316634aa066528784815181106102cb576102cb6111f4565b6020026020010151888560016102e19190611208565b815181106102f1576102f16111f4565b60209081029190910101516040516001600160e01b031960e085901b1681526001600160a01b0392831660048201529116602482015260448101889052606401602060405180830381865afa15801561034c573d5f803e3d5ffd5b505050506040513d601f19601f820116820180604052508101906103709190611257565b92508294505080806103819061126e565b91505061016b565b5090505b92915050565b5f5460405163d6432fab60e01b81526060916001600160a01b03169063d6432fab906103c5908690869060040161121b565b602060405180830381865afa1580156103e0573d5f803e3d5ffd5b505050506040513d601f19601f820116820180604052508101906104049190611286565b1561048f576040805160028082526060820183525f9260208301908036833701905050905083815f8151811061043c5761043c6111f4565b60200260200101906001600160a01b031690816001600160a01b0316815250508281600181518110610470576104706111f4565b6001600160a01b0390921660209283029190910190910152905061038d565b5f805f9054906101000a90046001600160a01b03166001600160a01b0316633962f82d6040518163ffffffff1660e01b8152600401602060405180830381865afa1580156104df573d5f803e3d5ffd5b505050506040513d601f19601f820116820180604052508101906105039190611257565b90505f8167ffffffffffffffff81111561051f5761051f610fe4565b604051908082528060200260200182016040528015610548578160200160208202803683370190505b5090505f5b828110156105fb575f546040516327b2595f60e11b8152600481018390526001600160a01b0390911690634f64b2be90602401602060405180830381865afa15801561059b573d5f803e3d5ffd5b505050506040513d601f19601f820116820180604052508101906105bf9190611235565b8282815181106105d1576105d16111f4565b6001600160a01b0390921660209283029190910190910152806105f38161126e565b91505061054d565b505f5b8151811015610819575f5482516001600160a01b039091169063d6432fab908890859085908110610631576106316111f4565b60200260200101516040518363ffffffff1660e01b815260040161065692919061121b565b602060405180830381865afa158015610671573d5f803e3d5ffd5b505050506040513d601f19601f820116820180604052508101906106959190611286565b801561072957505f5482516001600160a01b039091169063d6432fab908490849081106106c4576106c46111f4565b6020026020010151876040518363ffffffff1660e01b81526004016106ea92919061121b565b602060405180830381865afa158015610705573d5f803e3d5ffd5b505050506040513d601f19601f820116820180604052508101906107299190611286565b1561080757604080516003808252608082019092525f916020820160608036833701905050905086815f81518110610763576107636111f4565b60200260200101906001600160a01b031690816001600160a01b031681525050828281518110610795576107956111f4565b6020026020010151816001815181106107b0576107b06111f4565b60200260200101906001600160a01b031690816001600160a01b03168152505085816002815181106107e4576107e46111f4565b6001600160a01b0390921660209283029190910190910152935061038d92505050565b806108118161126e565b9150506105fe565b505f5b8151811015610b50575f5b8251811015610b3d575f5483516001600160a01b039091169063d6432fab90899086908690811061085a5761085a6111f4565b60200260200101516040518363ffffffff1660e01b815260040161087f92919061121b565b602060405180830381865afa15801561089a573d5f803e3d5ffd5b505050506040513d601f19601f820116820180604052508101906108be9190611286565b801561096b57505f5483516001600160a01b039091169063d6432fab908590859081106108ed576108ed6111f4565b6020026020010151858481518110610907576109076111f4565b60200260200101516040518363ffffffff1660e01b815260040161092c92919061121b565b602060405180830381865afa158015610947573d5f803e3d5ffd5b505050506040513d601f19601f8201168201806040525081019061096b9190611286565b80156109ff57505f5483516001600160a01b039091169063d6432fab9085908490811061099a5761099a6111f4565b6020026020010151886040518363ffffffff1660e01b81526004016109c092919061121b565b602060405180830381865afa1580156109db573d5f803e3d5ffd5b505050506040513d601f19601f820116820180604052508101906109ff9190611286565b15610b2b5760408051600480825260a082019092525f916020820160808036833701905050905087815f81518110610a3957610a396111f4565b60200260200101906001600160a01b031690816001600160a01b031681525050838381518110610a6b57610a6b6111f4565b602002602001015181600181518110610a8657610a866111f4565b60200260200101906001600160a01b031690816001600160a01b031681525050838281518110610ab857610ab86111f4565b602002602001015181600281518110610ad357610ad36111f4565b60200260200101906001600160a01b031690816001600160a01b0316815250508681600381518110610b0757610b076111f4565b6001600160a01b0390921660209283029190910190910152945061038d9350505050565b80610b358161126e565b915050610827565b5080610b488161126e565b91505061081c565b5060405162461bcd60e51b815260206004820152600e60248201526d139bc81c9bdd5d1948199bdd5b9960921b6044820152606401610110565b5f600284511015610bcd5760405162461bcd60e51b815260206004820152600d60248201526c496e76616c696420726f75746560981b6044820152606401610110565b5f8311610c1c5760405162461bcd60e51b815260206004820152601d60248201527f416d6f756e74206d7573742062652067726561746572207468616e20300000006044820152606401610110565b835f81518110610c2e57610c2e6111f4565b60209081029190910101516040516323b872dd60e01b8152336004820152306024820152604481018590526001600160a01b03909116906323b872dd906064016020604051808303815f875af1158015610c8a573d5f803e3d5ffd5b505050506040513d601f19601f82011682018060405250810190610cae9190611286565b505f83815b60018751610cc191906111e1565b811015610e8f575f878281518110610cdb57610cdb6111f4565b602002602001015190505f88836001610cf49190611208565b81518110610d0457610d046111f4565b60209081029190910101515f8054604051637a798f6f60e11b815292935090916001600160a01b039091169063f4f31ede90610d46908690869060040161121b565b602060405180830381865afa158015610d61573d5f803e3d5ffd5b505050506040513d601f19601f82011682018060405250810190610d859190611235565b60405163095ea7b360e01b81526001600160a01b03808316600483015260248201889052919250849182169063095ea7b3906044016020604051808303815f875af1158015610dd6573d5f803e3d5ffd5b505050506040513d601f19601f82011682018060405250810190610dfa9190611286565b50604051633b1b303360e21b81526001600160a01b03858116600483015284811660248301526044820188905283169063ec6cc0cc906064016020604051808303815f875af1158015610e4f573d5f803e3d5ffd5b505050506040513d601f19601f82011682018060405250810190610e739190611257565b9650869550505050508080610e879061126e565b915050610cb3565b5083821015610ef15760405162461bcd60e51b815260206004820152602860248201527f4f757470757420616d6f756e742069732062656c6f7720737065636966696564604482015267206d696e696d756d60c01b6064820152608401610110565b5f8660018851610f0191906111e1565b81518110610f1157610f116111f4565b602090810291909101015160405163a9059cbb60e01b8152336004820152602481018590529091506001600160a01b0382169063a9059cbb906044016020604051808303815f875af1158015610f69573d5f803e3d5ffd5b505050506040513d601f19601f82011682018060405250810190610f8d9190611286565b610fd95760405162461bcd60e51b815260206004820181905260248201527f4661696c656420746f207472616e73666572206f757470757420746f6b656e736044820152606401610110565b509095945050505050565b634e487b7160e01b5f52604160045260245ffd5b6001600160a01b038116811461100c575f80fd5b50565b803561101a81610ff8565b919050565b5f82601f83011261102e575f80fd5b8135602067ffffffffffffffff8083111561104b5761104b610fe4565b8260051b604051601f19603f8301168101818110848211171561107057611070610fe4565b60405293845285810183019383810192508785111561108d575f80fd5b83870191505b848210156110b3576110a48261100f565b83529183019190830190611093565b979650505050505050565b5f80604083850312156110cf575f80fd5b823567ffffffffffffffff8111156110e5575f80fd5b6110f18582860161101f565b95602094909401359450505050565b5f8060408385031215611111575f80fd5b823561111c81610ff8565b9150602083013561112c81610ff8565b809150509250929050565b602080825282518282018190525f9190848201906040850190845b818110156111775783516001600160a01b031683529284019291840191600101611152565b50909695505050505050565b5f805f60608486031215611195575f80fd5b833567ffffffffffffffff8111156111ab575f80fd5b6111b78682870161101f565b9660208601359650604090950135949350505050565b634e487b7160e01b5f52601160045260245ffd5b8181038181111561038d5761038d6111cd565b634e487b7160e01b5f52603260045260245ffd5b8082018082111561038d5761038d6111cd565b6001600160a01b0392831681529116602082015260400190565b5f60208284031215611245575f80fd5b815161125081610ff8565b9392505050565b5f60208284031215611267575f80fd5b5051919050565b5f6001820161127f5761127f6111cd565b5060010190565b5f60208284031215611296575f80fd5b81518015158114611250575f80fdfea264697066735822122047c0045152a319841cf3f38976e9716a32ef03a09c8ba83f678f8ff1cb2f7de164736f6c63430008150033608060405234801561000f575f80fd5b506040516104e53803806104e583398101604081905261002e91610052565b5f80546001600160a01b0319166001600160a01b039290921691909117905561007f565b5f60208284031215610062575f80fd5b81516001600160a01b0381168114610078575f80fd5b9392505050565b6104598061008c5f395ff3fe608060405234801561000f575f80fd5b5060043610610034575f3560e01c8063c45a015514610038578063d54ba95414610066575b5f80fd5b5f5461004a906001600160a01b031681565b6040516001600160a01b03909116815260200160405180910390f35b6100796100743660046102c6565b61007b565b005b5f6100868383610143565b90506001600160a01b0381166100db5760405162461bcd60e51b8152602060048201526016602482015275139bc81cdd5a5d18589b19481c1bdbdb08199bdd5b9960521b604482015260640160405180910390fd5b604051639d9638a160e01b81523360048201526001600160a01b03848116602483015260448201849052821690639d9638a1906064015f604051808303815f87803b158015610128575f80fd5b505af115801561013a573d5f803e3d5ffd5b50505050505050565b5f8054604051636bad16b960e11b81526001600160a01b0385811660048301528392169063d75a2d72906024015f60405180830381865afa15801561018a573d5f803e3d5ffd5b505050506040513d5f823e601f3d908101601f191682016040526101b19190810190610314565b905080515f036101c4575f9150506102a9565b5f5b81518110156102a3575f856001600160a01b03166370a082318484815181106101f1576101f16103d4565b60200260200101516040518263ffffffff1660e01b815260040161022491906001600160a01b0391909116815260200190565b602060405180830381865afa15801561023f573d5f803e3d5ffd5b505050506040513d601f19601f8201168201806040525081019061026391906103e8565b90508481106102905782828151811061027e5761027e6103d4565b602002602001015193505050506102a9565b508061029b816103ff565b9150506101c6565b505f9150505b92915050565b6001600160a01b03811681146102c3575f80fd5b50565b5f80604083850312156102d7575f80fd5b82356102e2816102af565b946020939093013593505050565b634e487b7160e01b5f52604160045260245ffd5b805161030f816102af565b919050565b5f6020808385031215610325575f80fd5b825167ffffffffffffffff8082111561033c575f80fd5b818501915085601f83011261034f575f80fd5b815181811115610361576103616102f0565b8060051b604051601f19603f83011681018181108582111715610386576103866102f0565b6040529182528482019250838101850191888311156103a3575f80fd5b938501935b828510156103c8576103b985610304565b845293850193928501926103a8565b98975050505050505050565b634e487b7160e01b5f52603260045260245ffd5b5f602082840312156103f8575f80fd5b5051919050565b5f6001820161041c57634e487b7160e01b5f52601160045260245ffd5b506001019056fea2646970667358221220bb7dc4f41502b51ac3e270b277861821a5418fa614e9902f75ea2d77b23b36bf64736f6c63430008150033a2646970667358221220711715b020686dfe844177c20d43fd2eec3168a8013738467a55e3703a193eb464736f6c63430008150033",
  "immutableReferences": {},
  "source": "// SPDX-License-Identifier: MIT\npragma solidity ^0.8.0;\n\nimport \"./LiquidityPoolFactory.sol\";\nimport \"./FlashLoanProvider.sol\";\nimport \"./DEX.sol\";\n\ncontract DEXFactory {\n    struct DEXData {\n        address dex;\n        address flashLoanProvider;\n        address liquidityPoolFactory;\n    }\n    DEXData[] public dexes;\n\n    mapping(address => DEXData) public dexToDetails;\n\n    event DEXCreated(\n        address indexed dex,\n        address indexed flashLoanProvider,\n        address indexed liquidityPoolFactory\n    );\n\n    function createDex() external returns (DEXData memory) {\n        LiquidityPoolFactory newLPF = new LiquidityPoolFactory();\n        DEX newDex = new DEX(address(newLPF));\n        FlashLoanProvider newFLP = new FlashLoanProvider(address(newLPF));\n\n        DEXData memory data = DEXData({\n            dex: address(newDex),\n            flashLoanProvider: address(newFLP),\n            liquidityPoolFactory: address(newLPF)\n        });\n\n        dexes.push(data);\n        dexToDetails[address(newDex)] = data;\n\n        emit DEXCreated(address(newDex), address(newFLP), address(newLPF));\n        return data;\n    }\n\n    function getDEXCount() external view returns (uint256) {\n        return dexes.length;\n    }\n\n    function getDEXDetails(\n        uint256 index\n    )\n        external\n        view\n        returns (\n            address dex,\n            address flashLoanProvider,\n            address liquidityPoolFactory\n        )\n    {\n        require(index < dexes.length, \"Index out of bounds\");\n        return (\n            dexes[index].dex,\n            dexes[index].flashLoanProvider,\n            dexes[index].liquidityPoolFactory\n        );\n    }\n\n    function getDEXDetailsByAddress(\n        address dexAddress\n    )\n        external\n        view\n        returns (\n            address dex,\n            address flashLoanProvider,\n            address liquidityPoolFactory\n        )\n    {\n        DEXData memory details = dexToDetails[dexAddress];\n        require(details.dex != address(0), \"DEX not found\");\n        return (\n            details.dex,\n            details.flashLoanProvider,\n            details.liquidityPoolFactory\n        );\n    }\n\n    function getAllDexes() external view returns (DEXData[] memory) {\n        return dexes;\n    }\n}\n",
  "sourcePath": "/media/scott/E8A0D408A0D3DB60/Users/surge/Desktop/dapp-projects/liquidip/contracts/DexFactory.sol",
  "compiler": {
    "name": "solc",
    "version": "0.8.21+commit.d9974bed.Emscripten.clang"
  },
  "schemaVersion": "3.4.15",
  "updatedAt": "2023-08-25T16:43:49.232Z",
  "networkType": "ethereum",
  "devdoc": {
    "kind": "dev",
    "methods": {},
    "version": 1
  },
  "userdoc": {
    "kind": "user",
    "methods": {},
    "version": 1
  }
}