{
  "contractName": "DEXFactory",
  "abi": [
    {
      "anonymous": false,
      "inputs": [
        {
          "indexed": true,
          "internalType": "address",
          "name": "dex",
          "type": "address"
        },
        {
          "indexed": true,
          "internalType": "address",
          "name": "flashLoanProvider",
          "type": "address"
        },
        {
          "indexed": true,
          "internalType": "address",
          "name": "liquidityPoolFactory",
          "type": "address"
        }
      ],
      "name": "DEXCreated",
      "type": "event"
    },
    {
      "inputs": [
        {
          "internalType": "address",
          "name": "",
          "type": "address"
        }
      ],
      "name": "dexToDetails",
      "outputs": [
        {
          "internalType": "address",
          "name": "dex",
          "type": "address"
        },
        {
          "internalType": "address",
          "name": "flashLoanProvider",
          "type": "address"
        },
        {
          "internalType": "address",
          "name": "liquidityPoolFactory",
          "type": "address"
        }
      ],
      "stateMutability": "view",
      "type": "function",
      "constant": true
    },
    {
      "inputs": [
        {
          "internalType": "uint256",
          "name": "",
          "type": "uint256"
        }
      ],
      "name": "dexes",
      "outputs": [
        {
          "internalType": "address",
          "name": "dex",
          "type": "address"
        },
        {
          "internalType": "address",
          "name": "flashLoanProvider",
          "type": "address"
        },
        {
          "internalType": "address",
          "name": "liquidityPoolFactory",
          "type": "address"
        }
      ],
      "stateMutability": "view",
      "type": "function",
      "constant": true
    },
    {
      "inputs": [],
      "name": "createDex",
      "outputs": [],
      "stateMutability": "nonpayable",
      "type": "function"
    },
    {
      "inputs": [],
      "name": "getDEXCount",
      "outputs": [
        {
          "internalType": "uint256",
          "name": "",
          "type": "uint256"
        }
      ],
      "stateMutability": "view",
      "type": "function",
      "constant": true
    },
    {
      "inputs": [
        {
          "internalType": "uint256",
          "name": "index",
          "type": "uint256"
        }
      ],
      "name": "getDEXDetails",
      "outputs": [
        {
          "internalType": "address",
          "name": "dex",
          "type": "address"
        },
        {
          "internalType": "address",
          "name": "flashLoanProvider",
          "type": "address"
        },
        {
          "internalType": "address",
          "name": "liquidityPoolFactory",
          "type": "address"
        }
      ],
      "stateMutability": "view",
      "type": "function",
      "constant": true
    },
    {
      "inputs": [
        {
          "internalType": "address",
          "name": "dexAddress",
          "type": "address"
        }
      ],
      "name": "getDEXDetailsByAddress",
      "outputs": [
        {
          "internalType": "address",
          "name": "dex",
          "type": "address"
        },
        {
          "internalType": "address",
          "name": "flashLoanProvider",
          "type": "address"
        },
        {
          "internalType": "address",
          "name": "liquidityPoolFactory",
          "type": "address"
        }
      ],
      "stateMutability": "view",
      "type": "function",
      "constant": true
    },
    {
      "inputs": [],
      "name": "getAllDexes",
      "outputs": [
        {
          "components": [
            {
              "internalType": "address",
              "name": "dex",
              "type": "address"
            },
            {
              "internalType": "address",
              "name": "flashLoanProvider",
              "type": "address"
            },
            {
              "internalType": "address",
              "name": "liquidityPoolFactory",
              "type": "address"
            }
          ],
          "internalType": "struct DEXFactory.DEXData[]",
          "name": "",
          "type": "tuple[]"
        }
      ],
      "stateMutability": "view",
      "type": "function",
      "constant": true
    }
  ],
  "bytecode": "0x608060405234801561001057600080fd5b5061466c806100206000396000f3fe608060405234801561001057600080fd5b506004361061007d5760003560e01c806329410d361161005b57806329410d361461010b5780636338a7c01461011e578063a6b4a00214610131578063f315742b1461014457600080fd5b8063043d41b0146100825780631b4450b71461008c5780631dd73b1d146100a2575b600080fd5b61008a610159565b005b6000546040519081526020015b60405180910390f35b6100e16100b03660046105d6565b60016020819052600091825260409091208054918101546002909101546001600160a01b0392831692918216911683565b604080516001600160a01b0394851681529284166020840152921691810191909152606001610099565b6100e16101193660046105d6565b610354565b6100e161012c366004610606565b6103fb565b6100e161013f366004610606565b61043d565b61014c610528565b604051610099919061061f565b6000604051610167906105af565b604051809103906000f080158015610183573d6000803e3d6000fd5b509050600081604051610195906105bc565b6001600160a01b039091168152602001604051809103906000f0801580156101c1573d6000803e3d6000fd5b5090506000826040516101d3906105c9565b6001600160a01b039091168152602001604051809103906000f0801580156101ff573d6000803e3d6000fd5b50604080516060810182526001600160a01b0385811680835284821660208085018281528a851686880181815260008054600180820183558280528a517f290decd9548b62a8d60345a988386fc84ba6bc95484008f6362f93160ef3e563600390930292830180546001600160a01b0319908116928d1692909217905586517f290decd9548b62a8d60345a988386fc84ba6bc95484008f6362f93160ef3e564840180548316918d1691909117905584517f290decd9548b62a8d60345a988386fc84ba6bc95484008f6362f93160ef3e56590930180548216938c1693909317909255888352958690528a82208a5181548316908b16178155945195850180548216968a169690961790955590516002909301805490941692909616919091179091559451959650929490917f3be863b5a0008eec79de319f265c5b6c1b200668ca48166dc57a80c2f62b9edb91a450505050565b6001600160a01b038082166000908152600160208181526040808420815160608101835281548716808252948201548716938101939093526002015490941693810193909352909182918291906103e25760405162461bcd60e51b815260206004820152600d60248201526c111156081b9bdd08199bdd5b99609a1b60448201526064015b60405180910390fd5b8051602082015160409092015190969195509350915050565b6000818154811061040b57600080fd5b60009182526020909120600390910201805460018201546002909201546001600160a01b039182169350918116911683565b600080548190819084106104895760405162461bcd60e51b8152602060048201526013602482015272496e646578206f7574206f6620626f756e647360681b60448201526064016103d9565b6000848154811061049c5761049c610687565b6000918252602082206003909102015481546001600160a01b039091169190869081106104cb576104cb610687565b6000918252602082206001600390920201015481546001600160a01b039091169190879081106104fd576104fd610687565b600091825260209091206002600390920201015491945092506001600160a01b031690509193909250565b60606000805480602002602001604051908101604052809291908181526020016000905b828210156105a6576000848152602090819020604080516060810182526003860290920180546001600160a01b0390811684526001808301548216858701526002909201541691830191909152908352909201910161054c565b50505050905090565b6125838061069e83390190565b61133880612c2183390190565b6106de80613f5983390190565b6000602082840312156105e857600080fd5b81356001600160a01b03811681146105ff57600080fd5b9392505050565b60006020828403121561061857600080fd5b5035919050565b602080825282518282018190526000919060409081850190868401855b8281101561067a57815180516001600160a01b039081168652878201518116888701529086015116858501526060909301929085019060010161063c565b5091979650505050505050565b634e487b7160e01b600052603260045260246000fdfe608060405234801561001057600080fd5b50612563806100206000396000f3fe608060405234801561001057600080fd5b506004361061009e5760003560e01c80634f64b2be116100665780634f64b2be14610130578063901754d714610143578063d6432fab14610177578063d75a2d72146101c1578063f4f31ede146101e157600080fd5b8063215d4cde146100a35780632384d3d0146100d3578063291c73ed146100e85780633962f82d146100fe578063427f91a614610110575b600080fd5b6100b66100b136600461083e565b610219565b6040516001600160a01b0390911681526020015b60405180910390f35b6100e66100e1366004610868565b610251565b005b6100f061046f565b6040516100ca9291906108df565b6000545b6040519081526020016100ca565b61010261011e366004610981565b60016020526000908152604090205481565b6100b661013e3660046109a3565b61062c565b6100b6610151366004610868565b60026020908152600092835260408084209091529082529020546001600160a01b031681565b6101b1610185366004610868565b6001600160a01b0391821660009081526002602090815260408083209385168352929052205416151590565b60405190151581526020016100ca565b6101d46101cf366004610981565b610656565b6040516100ca91906109bc565b6100b66101ef366004610868565b6001600160a01b039182166000908152600260209081526040808320938516835292905220541690565b6003602052816000526040600020818154811061023557600080fd5b6000918252602090912001546001600160a01b03169150829050565b806001600160a01b0316826001600160a01b031614156102b85760405162461bcd60e51b815260206004820152601860248201527f546f6b656e73206d75737420626520646966666572656e74000000000000000060448201526064015b60405180910390fd5b6001600160a01b038083166000908152600260209081526040808320848616845290915290205416156103235760405162461bcd60e51b8152602060048201526013602482015272506f6f6c20616c72656164792065786973747360681b60448201526064016102af565b6000828260405161033390610815565b6001600160a01b03928316815291166020820152604001604051809103906000f080158015610366573d6000803e3d6000fd5b506001600160a01b03808516600081815260026020818152604080842089871680865290835281852080549789166001600160a01b03199889168117909155938352818520958552948252808420805487168417905560038252808420805460018181018355918652838620018054881685179055948452832080549485018155835290912090910180549092161790559050610402836106cc565b61040f5761040f83610755565b610418826106cc565b6104255761042582610755565b6040516001600160a01b03828116825280841691908516907fef12eed5b10ee0380818f3c2634078836b5ca46cf50742b894ebf13bc3e561a79060200160405180910390a3505050565b606080815167ffffffffffffffff81111561048c5761048c6109cf565b6040519080825280602002602001820160405280156104b5578160200160208202803683370190505b509150815167ffffffffffffffff8111156104d2576104d26109cf565b60405190808252806020026020018201604052801561050557816020015b60608152602001906001900390816104f05790505b50905060005b825181101561062757828181518110610526576105266109e5565b6020026020010151838281518110610540576105406109e5565b60200260200101906001600160a01b031690816001600160a01b03168152505060036000848381518110610576576105766109e5565b60200260200101516001600160a01b03166001600160a01b031681526020019081526020016000208054806020026020016040519081016040528092919081815260200182805480156105f257602002820191906000526020600020905b81546001600160a01b031681526001909101906020018083116105d4575b5050505050828281518110610609576106096109e5565b6020026020010181905250808061061f90610a11565b91505061050b565b509091565b6000818154811061063c57600080fd5b6000918252602090912001546001600160a01b0316905081565b6001600160a01b0381166000908152600360209081526040918290208054835181840281018401909452808452606093928301828280156106c057602002820191906000526020600020905b81546001600160a01b031681526001909101906020018083116106a2575b50505050509050919050565b6001600160a01b03811660009081526001602052604081205415158061074f57506001600160a01b038216600090815260016020526040902054158015610714575060005415155b801561074f5750816001600160a01b031660008081548110610738576107386109e5565b6000918252602090912001546001600160a01b0316145b92915050565b61075e816106cc565b156107a25760405162461bcd60e51b8152602060048201526014602482015273546f6b656e20616c72656164792065786973747360601b60448201526064016102af565b60008054600180820183558280527f290decd9548b62a8d60345a988386fc84ba6bc95484008f6362f93160ef3e56390910180546001600160a01b0319166001600160a01b03851617905590546107f99190610a2c565b6001600160a01b03909116600090815260016020526040902055565b611aea80610a4483390190565b80356001600160a01b038116811461083957600080fd5b919050565b6000806040838503121561085157600080fd5b61085a83610822565b946020939093013593505050565b6000806040838503121561087b57600080fd5b61088483610822565b915061089260208401610822565b90509250929050565b600081518084526020808501945080840160005b838110156108d45781516001600160a01b0316875295820195908201906001016108af565b509495945050505050565b6040815260006108f2604083018561089b565b6020838203818501528185518084528284019150828160051b8501018388016000805b8481101561097157878403601f19018652825180518086529088019088860190845b8181101561095c5783516001600160a01b03168352928a0192918a0191600101610937565b50509688019694505091860191600101610915565b50919a9950505050505050505050565b60006020828403121561099357600080fd5b61099c82610822565b9392505050565b6000602082840312156109b557600080fd5b5035919050565b60208152600061099c602083018461089b565b634e487b7160e01b600052604160045260246000fd5b634e487b7160e01b600052603260045260246000fd5b634e487b7160e01b600052601160045260246000fd5b6000600019821415610a2557610a256109fb565b5060010190565b600082821015610a3e57610a3e6109fb565b50039056fe60806040523480156200001157600080fd5b5060405162001aea38038062001aea833981016040819052620000349162000083565b600280546001600160a01b039384166001600160a01b03199182161790915560038054929093169116179055620000bb565b80516001600160a01b03811681146200007e57600080fd5b919050565b600080604083850312156200009757600080fd5b620000a28362000066565b9150620000b26020840162000066565b90509250929050565b611a1f80620000cb6000396000f3fe608060405234801561001057600080fd5b50600436106101005760003560e01c806395d89b4111610097578063a9059cbb11610066578063a9059cbb14610270578063d21220a714610283578063dd62ed3e14610296578063ec6cc0cc146102c157600080fd5b806395d89b41146102135780639c8f9f23146102355780639cd441da1461024a5780639d9638a11461025d57600080fd5b806323b872dd116100d357806323b872dd146101b3578063313ce567146101c65780634aa06652146101e057806370a08231146101f357600080fd5b806306fdde0314610105578063095ea7b31461014e5780630dfe16811461017157806318160ddd1461019c575b600080fd5b610138604051806040016040528060148152602001732634b8bab4b234ba3c902837b7b6102a37b5b2b760611b81525081565b6040516101459190611775565b60405180910390f35b61016161015c3660046117e6565b6102d4565b6040519015158152602001610145565b600254610184906001600160a01b031681565b6040516001600160a01b039091168152602001610145565b6101a560045481565b604051908152602001610145565b6101616101c1366004611810565b610390565b6101ce601281565b60405160ff9091168152602001610145565b6101a56101ee366004611810565b610458565b6101a561020136600461184c565b60006020819052908152604090205481565b6101386040518060400160405280600381526020016213141560ea1b81525081565b610248610243366004611867565b610694565b005b610248610258366004611880565b61096c565b61024861026b366004611810565b610bac565b61016161027e3660046117e6565b610f0a565b600354610184906001600160a01b031681565b6101a56102a43660046118a2565b600160209081526000928352604080842090915290825290205481565b6101a56102cf366004611810565b610f20565b3360009081526020819052604081205482111561032c5760405162461bcd60e51b81526020600482015260116024820152704e6f7420656e6f75676820746f6b656e7360781b60448201526064015b60405180910390fd5b3360008181526001602090815260408083206001600160a01b03881680855290835292819020869055518581529192917f8c5be1e5ebec7d5bd14f71427d1e84f3dd0314c0f7b2291e5b200ac8c7c3b925910160405180910390a350600192915050565b6001600160a01b0380841660009081526001602090815260408083209386168352929052908120548211156104075760405162461bcd60e51b815260206004820152601f60248201527f4e6f7420616c6c6f77656420746f2073656e64207468697320616d6f756e74006044820152606401610323565b6104128484846113c3565b6001600160a01b038085166000908152600160209081526040808320938716835292905290812080548492906104499084906118eb565b90915550600195945050505050565b60025460009081906001600160a01b038681169116146104e3576003546040516370a0823160e01b81523060048201526001600160a01b03909116906370a0823190602401602060405180830381865afa1580156104ba573d6000803e3d6000fd5b505050506040513d601f19601f820116820180604052508101906104de9190611902565b61054f565b6002546040516370a0823160e01b81523060048201526001600160a01b03909116906370a0823190602401602060405180830381865afa15801561052b573d6000803e3d6000fd5b505050506040513d601f19601f8201168201806040525081019061054f9190611902565b6002549091506000906001600160a01b038681169116146105db576003546040516370a0823160e01b81523060048201526001600160a01b03909116906370a0823190602401602060405180830381865afa1580156105b2573d6000803e3d6000fd5b505050506040513d601f19601f820116820180604052508101906105d69190611902565b610647565b6002546040516370a0823160e01b81523060048201526001600160a01b03909116906370a0823190602401602060405180830381865afa158015610623573d6000803e3d6000fd5b505050506040513d601f19601f820116820180604052508101906106479190611902565b9050600082610656838761191b565b610660919061193a565b905060006103e861067283600361191b565b61067c919061193a565b905061068881836118eb565b98975050505050505050565b61069e338261159f565b6002546040516370a0823160e01b81523060048201526000916001600160a01b0316906370a0823190602401602060405180830381865afa1580156106e7573d6000803e3d6000fd5b505050506040513d601f19601f8201168201806040525081019061070b9190611902565b6003546040516370a0823160e01b81523060048201529192506000916001600160a01b03909116906370a0823190602401602060405180830381865afa158015610759573d6000803e3d6000fd5b505050506040513d601f19601f8201168201806040525081019061077d9190611902565b905060006004548385610790919061191b565b61079a919061193a565b9050600060045483866107ad919061191b565b6107b7919061193a565b90506000821180156107c95750600081115b61080e5760405162461bcd60e51b8152602060048201526016602482015275496e73756666696369656e74206c697175696469747960501b6044820152606401610323565b60025460405163a9059cbb60e01b8152336004820152602481018490526001600160a01b039091169063a9059cbb906044016020604051808303816000875af115801561085f573d6000803e3d6000fd5b505050506040513d601f19601f82011682018060405250810190610883919061195c565b61089f5760405162461bcd60e51b81526004016103239061197e565b60035460405163a9059cbb60e01b8152336004820152602481018390526001600160a01b039091169063a9059cbb906044016020604051808303816000875af11580156108f0573d6000803e3d6000fd5b505050506040513d601f19601f82011682018060405250810190610914919061195c565b6109305760405162461bcd60e51b81526004016103239061197e565b60405185815233907fc2c3f06e49b9f15e7b4af9055e183b0d73362e033ad82a07dec9bf98401717199060200160405180910390a25050505050565b60008211801561097c5750600081115b6109c85760405162461bcd60e51b815260206004820152601e60248201527f416d6f756e7473206d7573742062652067726561746572207468616e203000006044820152606401610323565b6002546040516323b872dd60e01b81526001600160a01b03909116906323b872dd906109fc903390309087906004016119ad565b6020604051808303816000875af1158015610a1b573d6000803e3d6000fd5b505050506040513d601f19601f82011682018060405250810190610a3f919061195c565b610a845760405162461bcd60e51b8152602060048201526016602482015275151bdad95b8c081d1c985b9cd9995c8819985a5b195960521b6044820152606401610323565b6003546040516323b872dd60e01b81526001600160a01b03909116906323b872dd90610ab8903390309086906004016119ad565b6020604051808303816000875af1158015610ad7573d6000803e3d6000fd5b505050506040513d601f19601f82011682018060405250810190610afb919061195c565b610b405760405162461bcd60e51b8152602060048201526016602482015275151bdad95b8c481d1c985b9cd9995c8819985a5b195960521b6044820152606401610323565b6000600454600014610b5457600454610b66565b610b66610b61838561191b565b61169c565b9050610b7233826116f3565b60405181815233907fc17cea59c2955cb181b03393209566960365771dbba9dc3d510180e7cb3120889060200160405180910390a2505050565b6002546001600160a01b0383811691161480610bd557506003546001600160a01b038381169116145b610c1a5760405162461bcd60e51b8152602060048201526016602482015275151bdad95b881b9bdd081a5b881d1a1a5cc81c1bdbdb60521b6044820152606401610323565b6040516370a0823160e01b81523060048201526000906001600160a01b038416906370a0823190602401602060405180830381865afa158015610c61573d6000803e3d6000fd5b505050506040513d601f19601f82011682018060405250810190610c859190611902565b905081811015610cd75760405162461bcd60e51b815260206004820152601c60248201527f4e6f7420656e6f756768206c697175696469747920696e20706f6f6c000000006044820152606401610323565b6000612710610ce784600561191b565b610cf1919061193a565b60405163a9059cbb60e01b81526001600160a01b038781166004830152602482018690529192509085169063a9059cbb906044016020604051808303816000875af1158015610d44573d6000803e3d6000fd5b505050506040513d601f19601f82011682018060405250810190610d68919061195c565b506040516379b392a960e11b81526001600160a01b038581166004830152602482018590526044820183905230606483015286169063f367255290608401600060405180830381600087803b158015610dc057600080fd5b505af1158015610dd4573d6000803e3d6000fd5b50506040516370a0823160e01b8152306004820152600092506001600160a01b03871691506370a0823190602401602060405180830381865afa158015610e1f573d6000803e3d6000fd5b505050506040513d601f19601f82011682018060405250810190610e439190611902565b9050610e4f82846119d1565b8114610eac5760405162461bcd60e51b815260206004820152602660248201527f466c617368206c6f616e206861736e2774206265656e2072657061696420776960448201526574682066656560d01b6064820152608401610323565b846001600160a01b0316866001600160a01b03167f0d7d75e01ab95780d3cd1c8ec0dd6c2ce19e3a20427eec8bf53283b6fb8e95f08685604051610efa929190918252602082015260400190565b60405180910390a3505050505050565b6000610f173384846113c3565b50600192915050565b6002546000906001600160a01b0385811691161480610f4c57506003546001600160a01b038581169116145b610f8e5760405162461bcd60e51b815260206004820152601360248201527224b73b30b634b21034b7383aba103a37b5b2b760691b6044820152606401610323565b6002546001600160a01b0384811691161480610fb757506003546001600160a01b038481169116145b610ffa5760405162461bcd60e51b815260206004820152601460248201527324b73b30b634b21037baba383aba103a37b5b2b760611b6044820152606401610323565b826001600160a01b0316846001600160a01b0316141561106e5760405162461bcd60e51b815260206004820152602960248201527f496e70757420616e64206f757470757420746f6b656e73206d75737420626520604482015268191a5999995c995b9d60ba1b6064820152608401610323565b600082116110be5760405162461bcd60e51b815260206004820152601d60248201527f416d6f756e74206d7573742062652067726561746572207468616e20300000006044820152606401610323565b60006110cb858585610458565b90506000811161111d5760405162461bcd60e51b815260206004820152601d60248201527f416d6f756e74206d7573742062652067726561746572207468616e20300000006044820152606401610323565b6002546001600160a01b038681169116141561125c576002546040516323b872dd60e01b81526001600160a01b03909116906323b872dd90611167903390309088906004016119ad565b6020604051808303816000875af1158015611186573d6000803e3d6000fd5b505050506040513d601f19601f820116820180604052508101906111aa919061195c565b6111c65760405162461bcd60e51b81526004016103239061197e565b60035460405163a9059cbb60e01b8152336004820152602481018390526001600160a01b039091169063a9059cbb906044016020604051808303816000875af1158015611217573d6000803e3d6000fd5b505050506040513d601f19601f8201168201806040525081019061123b919061195c565b6112575760405162461bcd60e51b81526004016103239061197e565b611380565b6003546040516323b872dd60e01b81526001600160a01b03909116906323b872dd90611290903390309088906004016119ad565b6020604051808303816000875af11580156112af573d6000803e3d6000fd5b505050506040513d601f19601f820116820180604052508101906112d3919061195c565b6112ef5760405162461bcd60e51b81526004016103239061197e565b60025460405163a9059cbb60e01b8152336004820152602481018390526001600160a01b039091169063a9059cbb906044016020604051808303816000875af1158015611340573d6000803e3d6000fd5b505050506040513d601f19601f82011682018060405250810190611364919061195c565b6113805760405162461bcd60e51b81526004016103239061197e565b604080518481526020810183905233917f18704ae982dcd24a1beeeed3ecf045ab0520d7b7519b97adf3e4f40bf7efe339910160405180910390a2949350505050565b6001600160a01b0383166114275760405162461bcd60e51b815260206004820152602560248201527f45524332303a207472616e736665722066726f6d20746865207a65726f206164604482015264647265737360d81b6064820152608401610323565b6001600160a01b0382166114895760405162461bcd60e51b815260206004820152602360248201527f45524332303a207472616e7366657220746f20746865207a65726f206164647260448201526265737360e81b6064820152608401610323565b6001600160a01b0383166000908152602081905260409020548111156114f15760405162461bcd60e51b815260206004820152601f60248201527f42616c616e6365206f662073656e646572206973206e6f7420656e6f756768006044820152606401610323565b6001600160a01b038316600090815260208190526040812080548392906115199084906118eb565b90915550506001600160a01b038216600090815260208190526040812080548392906115469084906119d1565b92505081905550816001600160a01b0316836001600160a01b03167fddf252ad1be2c89b69c2b068fc378daa952ba7f163c4a11628f55a4df523b3ef8360405161159291815260200190565b60405180910390a3505050565b6001600160a01b0382166000908152602081905260409020548111156116125760405162461bcd60e51b815260206004820152602260248201527f45524332303a206275726e20616d6f756e7420657863656564732062616c616e604482015261636560f01b6064820152608401610323565b806004600082825461162491906118eb565b90915550506001600160a01b038216600090815260208190526040812080548392906116519084906118eb565b90915550506040518181526000906001600160a01b038416907fddf252ad1be2c89b69c2b068fc378daa952ba7f163c4a11628f55a4df523b3ef906020015b60405180910390a35050565b60008060026116ac8460016119d1565b6116b6919061193a565b9050825b838210156116ec5750806002816116d1818761193a565b6116db91906119d1565b6116e5919061193a565b91506116ba565b9392505050565b806004600082825461170591906119d1565b90915550506001600160a01b038216600090815260208190526040812080548392906117329084906119d1565b90915550506040518181526001600160a01b038316906000907fddf252ad1be2c89b69c2b068fc378daa952ba7f163c4a11628f55a4df523b3ef90602001611690565b600060208083528351808285015260005b818110156117a257858101830151858201604001528201611786565b818111156117b4576000604083870101525b50601f01601f1916929092016040019392505050565b80356001600160a01b03811681146117e157600080fd5b919050565b600080604083850312156117f957600080fd5b611802836117ca565b946020939093013593505050565b60008060006060848603121561182557600080fd5b61182e846117ca565b925061183c602085016117ca565b9150604084013590509250925092565b60006020828403121561185e57600080fd5b6116ec826117ca565b60006020828403121561187957600080fd5b5035919050565b6000806040838503121561189357600080fd5b50508035926020909101359150565b600080604083850312156118b557600080fd5b6118be836117ca565b91506118cc602084016117ca565b90509250929050565b634e487b7160e01b600052601160045260246000fd5b6000828210156118fd576118fd6118d5565b500390565b60006020828403121561191457600080fd5b5051919050565b6000816000190483118215151615611935576119356118d5565b500290565b60008261195757634e487b7160e01b600052601260045260246000fd5b500490565b60006020828403121561196e57600080fd5b815180151581146116ec57600080fd5b602080825260159082015274151bdad95b881d1c985b9cd9995c8819985a5b1959605a1b604082015260600190565b6001600160a01b039384168152919092166020820152604081019190915260600190565b600082198211156119e4576119e46118d5565b50019056fea2646970667358221220effce838a2d1e3d99bad4f784d80c7ba6df6854a53ba68c32dcd429a9c0ccfb464736f6c634300080c0033a26469706673582212200585a913dfe6e8892140fa9c00a83740058060be5f00e9d3484501044b1fc7fe64736f6c634300080c0033608060405234801561001057600080fd5b5060405161133838038061133883398101604081905261002f91610054565b600080546001600160a01b0319166001600160a01b0392909216919091179055610084565b60006020828403121561006657600080fd5b81516001600160a01b038116811461007d57600080fd5b9392505050565b6112a5806100936000396000f3fe608060405234801561001057600080fd5b506004361061004c5760003560e01c80636f58ceb814610051578063a375bb8614610077578063c45a015514610097578063c87bff25146100c2575b600080fd5b61006461005f366004611067565b6100d7565b6040519081526020015b60405180910390f35b61008a6100853660046110ac565b6103a1565b60405161006e91906110e5565b6000546100aa906001600160a01b031681565b6040516001600160a01b03909116815260200161006e565b6100d56100d0366004611132565b610bbc565b005b60006002835110156101205760405162461bcd60e51b815260206004820152600d60248201526c496e76616c696420726f75746560981b60448201526064015b60405180910390fd5b600082116101705760405162461bcd60e51b815260206004820152601d60248201527f416d6f756e74206d7573742062652067726561746572207468616e20300000006044820152606401610117565b6000805b600185516101829190611196565b811015610397576000805486516001600160a01b039091169063f4f31ede908890859081106101b3576101b36111ad565b6020026020010151888560016101c991906111c3565b815181106101d9576101d96111ad565b60200260200101516040518363ffffffff1660e01b81526004016101fe9291906111db565b602060405180830381865afa15801561021b573d6000803e3d6000fd5b505050506040513d601f19601f8201168201806040525081019061023f91906111f5565b90506001600160a01b0381166102b65760405162461bcd60e51b815260206004820152603660248201527f4c697175696469747920706f6f6c20646f6573206e6f7420657869737420666f60448201527539103a34329033b4bb32b7103a37b5b2b7103830b4b960511b6064820152608401610117565b806001600160a01b0316634aa066528784815181106102d7576102d76111ad565b6020026020010151888560016102ed91906111c3565b815181106102fd576102fd6111ad565b60209081029190910101516040516001600160e01b031960e085901b1681526001600160a01b0392831660048201529116602482015260448101889052606401602060405180830381865afa15801561035a573d6000803e3d6000fd5b505050506040513d601f19601f8201168201806040525081019061037e9190611219565b925082945050808061038f90611232565b915050610174565b5090505b92915050565b60005460405163d6432fab60e01b81526060916001600160a01b03169063d6432fab906103d490869086906004016111db565b602060405180830381865afa1580156103f1573d6000803e3d6000fd5b505050506040513d601f19601f82011682018060405250810190610415919061124d565b156104a257604080516002808252606082018352600092602083019080368337019050509050838160008151811061044f5761044f6111ad565b60200260200101906001600160a01b031690816001600160a01b0316815250508281600181518110610483576104836111ad565b6001600160a01b0390921660209283029190910190910152905061039b565b60008060009054906101000a90046001600160a01b03166001600160a01b0316633962f82d6040518163ffffffff1660e01b8152600401602060405180830381865afa1580156104f6573d6000803e3d6000fd5b505050506040513d601f19601f8201168201806040525081019061051a9190611219565b905060008167ffffffffffffffff81111561053757610537610f87565b604051908082528060200260200182016040528015610560578160200160208202803683370190505b50905060005b82811015610617576000546040516327b2595f60e11b8152600481018390526001600160a01b0390911690634f64b2be90602401602060405180830381865afa1580156105b7573d6000803e3d6000fd5b505050506040513d601f19601f820116820180604052508101906105db91906111f5565b8282815181106105ed576105ed6111ad565b6001600160a01b03909216602092830291909101909101528061060f81611232565b915050610566565b5060005b815181101561083e5760005482516001600160a01b039091169063d6432fab90889085908590811061064f5761064f6111ad565b60200260200101516040518363ffffffff1660e01b81526004016106749291906111db565b602060405180830381865afa158015610691573d6000803e3d6000fd5b505050506040513d601f19601f820116820180604052508101906106b5919061124d565b801561074c575060005482516001600160a01b039091169063d6432fab908490849081106106e5576106e56111ad565b6020026020010151876040518363ffffffff1660e01b815260040161070b9291906111db565b602060405180830381865afa158015610728573d6000803e3d6000fd5b505050506040513d601f19601f8201168201806040525081019061074c919061124d565b1561082c5760408051600380825260808201909252600091602082016060803683370190505090508681600081518110610788576107886111ad565b60200260200101906001600160a01b031690816001600160a01b0316815250508282815181106107ba576107ba6111ad565b6020026020010151816001815181106107d5576107d56111ad565b60200260200101906001600160a01b031690816001600160a01b0316815250508581600281518110610809576108096111ad565b6001600160a01b0390921660209283029190910190910152935061039b92505050565b8061083681611232565b91505061061b565b5060005b8151811015610b825760005b8251811015610b6f5760005483516001600160a01b039091169063d6432fab908990869086908110610882576108826111ad565b60200260200101516040518363ffffffff1660e01b81526004016108a79291906111db565b602060405180830381865afa1580156108c4573d6000803e3d6000fd5b505050506040513d601f19601f820116820180604052508101906108e8919061124d565b8015610998575060005483516001600160a01b039091169063d6432fab90859085908110610918576109186111ad565b6020026020010151858481518110610932576109326111ad565b60200260200101516040518363ffffffff1660e01b81526004016109579291906111db565b602060405180830381865afa158015610974573d6000803e3d6000fd5b505050506040513d601f19601f82011682018060405250810190610998919061124d565b8015610a2f575060005483516001600160a01b039091169063d6432fab908590849081106109c8576109c86111ad565b6020026020010151886040518363ffffffff1660e01b81526004016109ee9291906111db565b602060405180830381865afa158015610a0b573d6000803e3d6000fd5b505050506040513d601f19601f82011682018060405250810190610a2f919061124d565b15610b5d5760408051600480825260a08201909252600091602082016080803683370190505090508781600081518110610a6b57610a6b6111ad565b60200260200101906001600160a01b031690816001600160a01b031681525050838381518110610a9d57610a9d6111ad565b602002602001015181600181518110610ab857610ab86111ad565b60200260200101906001600160a01b031690816001600160a01b031681525050838281518110610aea57610aea6111ad565b602002602001015181600281518110610b0557610b056111ad565b60200260200101906001600160a01b031690816001600160a01b0316815250508681600381518110610b3957610b396111ad565b6001600160a01b0390921660209283029190910190910152945061039b9350505050565b80610b6781611232565b91505061084e565b5080610b7a81611232565b915050610842565b5060405162461bcd60e51b815260206004820152600e60248201526d139bc81c9bdd5d1948199bdd5b9960921b6044820152606401610117565b600283511015610bfe5760405162461bcd60e51b815260206004820152600d60248201526c496e76616c696420726f75746560981b6044820152606401610117565b60008211610c4e5760405162461bcd60e51b815260206004820152601d60248201527f416d6f756e74206d7573742062652067726561746572207468616e20300000006044820152606401610117565b600082815b60018651610c619190611196565b811015610dc4576000868281518110610c7c57610c7c6111ad565b60200260200101519050600087836001610c9691906111c3565b81518110610ca657610ca66111ad565b602090810291909101015160008054604051637a798f6f60e11b815292935090916001600160a01b039091169063f4f31ede90610ce990869086906004016111db565b602060405180830381865afa158015610d06573d6000803e3d6000fd5b505050506040513d601f19601f82011682018060405250810190610d2a91906111f5565b604051633b1b303360e21b81526001600160a01b0385811660048301528481166024830152604482018890529192509082169063ec6cc0cc906064016020604051808303816000875af1158015610d85573d6000803e3d6000fd5b505050506040513d601f19601f82011682018060405250810190610da99190611219565b95508594505050508080610dbc90611232565b915050610c53565b5082821015610e265760405162461bcd60e51b815260206004820152602860248201527f4f757470757420616d6f756e742069732062656c6f7720737065636966696564604482015267206d696e696d756d60c01b6064820152608401610117565b60008560018751610e379190611196565b81518110610e4757610e476111ad565b602002602001015190506000816001600160a01b031663d21220a76040518163ffffffff1660e01b8152600401602060405180830381865afa158015610e91573d6000803e3d6000fd5b505050506040513d601f19601f82011682018060405250810190610eb591906111f5565b6040516323b872dd60e01b81526001600160a01b03848116600483015233602483015260448201879052919250908216906323b872dd906064016020604051808303816000875af1158015610f0e573d6000803e3d6000fd5b505050506040513d601f19601f82011682018060405250810190610f32919061124d565b610f7e5760405162461bcd60e51b815260206004820181905260248201527f4661696c656420746f207472616e73666572206f757470757420746f6b656e736044820152606401610117565b50505050505050565b634e487b7160e01b600052604160045260246000fd5b6001600160a01b0381168114610fb257600080fd5b50565b8035610fc081610f9d565b919050565b600082601f830112610fd657600080fd5b8135602067ffffffffffffffff80831115610ff357610ff3610f87565b8260051b604051601f19603f8301168101818110848211171561101857611018610f87565b60405293845285810183019383810192508785111561103657600080fd5b83870191505b8482101561105c5761104d82610fb5565b8352918301919083019061103c565b979650505050505050565b6000806040838503121561107a57600080fd5b823567ffffffffffffffff81111561109157600080fd5b61109d85828601610fc5565b95602094909401359450505050565b600080604083850312156110bf57600080fd5b82356110ca81610f9d565b915060208301356110da81610f9d565b809150509250929050565b6020808252825182820181905260009190848201906040850190845b818110156111265783516001600160a01b031683529284019291840191600101611101565b50909695505050505050565b60008060006060848603121561114757600080fd5b833567ffffffffffffffff81111561115e57600080fd5b61116a86828701610fc5565b9660208601359650604090950135949350505050565b634e487b7160e01b600052601160045260246000fd5b6000828210156111a8576111a8611180565b500390565b634e487b7160e01b600052603260045260246000fd5b600082198211156111d6576111d6611180565b500190565b6001600160a01b0392831681529116602082015260400190565b60006020828403121561120757600080fd5b815161121281610f9d565b9392505050565b60006020828403121561122b57600080fd5b5051919050565b600060001982141561124657611246611180565b5060010190565b60006020828403121561125f57600080fd5b8151801515811461121257600080fdfea2646970667358221220c5783a0cabd48bb91d7483ae2a9b90c60a241dd461b22588a70212992d9aed6464736f6c634300080c0033608060405234801561001057600080fd5b506040516106de3803806106de83398101604081905261002f91610054565b600080546001600160a01b0319166001600160a01b0392909216919091179055610084565b60006020828403121561006657600080fd5b81516001600160a01b038116811461007d57600080fd5b9392505050565b61064b806100936000396000f3fe608060405234801561001057600080fd5b50600436106100415760003560e01c8063b29771a114610046578063c45a01551461005b578063d54ba9541461008a575b600080fd5b61005961005436600461043b565b61009d565b005b60005461006e906001600160a01b031681565b6040516001600160a01b03909116815260200160405180910390f35b61005961009836600461047d565b6101e0565b6001600160a01b0381166100ef5760405162461bcd60e51b8152602060048201526014602482015273496e76616c696420706f6f6c206164647265737360601b60448201526064015b60405180910390fd5b60405163095ea7b360e01b8152336004820152602481018390526001600160a01b0384169063095ea7b3906044016020604051808303816000875af115801561013c573d6000803e3d6000fd5b505050506040513d601f19601f8201168201806040525081019061016091906104a9565b506040516323b872dd60e01b81523360048201526001600160a01b038281166024830152604482018490528416906323b872dd906064016020604051808303816000875af11580156101b6573d6000803e3d6000fd5b505050506040513d601f19601f820116820180604052508101906101da91906104a9565b50505050565b60006101ec83836102aa565b90506001600160a01b03811661023d5760405162461bcd60e51b8152602060048201526016602482015275139bc81cdd5a5d18589b19481c1bdbdb08199bdd5b9960521b60448201526064016100e6565b604051639d9638a160e01b81523360048201526001600160a01b03848116602483015260448201849052821690639d9638a190606401600060405180830381600087803b15801561028d57600080fd5b505af11580156102a1573d6000803e3d6000fd5b50505050505050565b60008054604051636bad16b960e11b81526001600160a01b0385811660048301528392169063d75a2d7290602401600060405180830381865afa1580156102f5573d6000803e3d6000fd5b505050506040513d6000823e601f3d908101601f1916820160405261031d91908101906104f8565b905080516000141561033357600091505061041d565b60005b8151811015610416576000856001600160a01b03166370a08231848481518110610362576103626105bd565b60200260200101516040518263ffffffff1660e01b815260040161039591906001600160a01b0391909116815260200190565b602060405180830381865afa1580156103b2573d6000803e3d6000fd5b505050506040513d601f19601f820116820180604052508101906103d691906105d3565b9050848110610403578282815181106103f1576103f16105bd565b6020026020010151935050505061041d565b508061040e816105ec565b915050610336565b5060009150505b92915050565b6001600160a01b038116811461043857600080fd5b50565b60008060006060848603121561045057600080fd5b833561045b81610423565b925060208401359150604084013561047281610423565b809150509250925092565b6000806040838503121561049057600080fd5b823561049b81610423565b946020939093013593505050565b6000602082840312156104bb57600080fd5b815180151581146104cb57600080fd5b9392505050565b634e487b7160e01b600052604160045260246000fd5b80516104f381610423565b919050565b6000602080838503121561050b57600080fd5b825167ffffffffffffffff8082111561052357600080fd5b818501915085601f83011261053757600080fd5b815181811115610549576105496104d2565b8060051b604051601f19603f8301168101818110858211171561056e5761056e6104d2565b60405291825284820192508381018501918883111561058c57600080fd5b938501935b828510156105b1576105a2856104e8565b84529385019392850192610591565b98975050505050505050565b634e487b7160e01b600052603260045260246000fd5b6000602082840312156105e557600080fd5b5051919050565b600060001982141561060e57634e487b7160e01b600052601160045260246000fd5b506001019056fea26469706673582212205b3485fa655e4d202684fc66fef2d44be46213b027b7e3ce382f0ae4c23fc3ad64736f6c634300080c0033a264697066735822122027a0c0e3df2e0c82d5b261c6241553848f28889afe9e441429a88d9f354dbc0d64736f6c634300080c0033",
  "immutableReferences": {},
  "source": "// SPDX-License-Identifier: MIT\npragma solidity ^0.8.9;\n\nimport \"./LiquidityPoolFactory.sol\";\nimport \"./FlashLoanProvider.sol\";\nimport \"./DEX.sol\";\n\ncontract DEXFactory {\n    struct DEXData {\n        address dex;\n        address flashLoanProvider;\n        address liquidityPoolFactory;\n    }\n    DEXData[] public dexes;\n\n    mapping(address => DEXData) public dexToDetails;\n\n    event DEXCreated(\n        address indexed dex,\n        address indexed flashLoanProvider,\n        address indexed liquidityPoolFactory\n    );\n\n    function createDex() external {\n        LiquidityPoolFactory newLPF = new LiquidityPoolFactory();\n        DEX newDex = new DEX(address(newLPF));\n        FlashLoanProvider newFLP = new FlashLoanProvider(address(newLPF));\n\n        DEXData memory data = DEXData({\n            dex: address(newDex),\n            flashLoanProvider: address(newFLP),\n            liquidityPoolFactory: address(newLPF)\n        });\n\n        dexes.push(data);\n        dexToDetails[address(newDex)] = data;\n\n        emit DEXCreated(address(newDex), address(newFLP), address(newLPF));\n    }\n\n    function getDEXCount() external view returns (uint256) {\n        return dexes.length;\n    }\n\n    function getDEXDetails(\n        uint256 index\n    )\n        external\n        view\n        returns (\n            address dex,\n            address flashLoanProvider,\n            address liquidityPoolFactory\n        )\n    {\n        require(index < dexes.length, \"Index out of bounds\");\n        return (\n            dexes[index].dex,\n            dexes[index].flashLoanProvider,\n            dexes[index].liquidityPoolFactory\n        );\n    }\n\n    function getDEXDetailsByAddress(\n        address dexAddress\n    )\n        external\n        view\n        returns (\n            address dex,\n            address flashLoanProvider,\n            address liquidityPoolFactory\n        )\n    {\n        DEXData memory details = dexToDetails[dexAddress];\n        require(details.dex != address(0), \"DEX not found\");\n        return (\n            details.dex,\n            details.flashLoanProvider,\n            details.liquidityPoolFactory\n        );\n    }\n\n    function getAllDexes() external view returns (DEXData[] memory) {\n        return dexes;\n    }\n}\n",
  "sourcePath": "C:\\Users\\surge\\Desktop\\dapp-projects\\liquidip\\contracts\\DexFactory.sol",
  "compiler": {
    "name": "solc",
    "version": "0.8.12+commit.f00d7308.Emscripten.clang"
  },
  "schemaVersion": "3.4.15",
  "updatedAt": "2023-08-15T05:05:31.744Z",
  "networkType": "ethereum",
  "devdoc": {
    "kind": "dev",
    "methods": {},
    "version": 1
  },
  "userdoc": {
    "kind": "user",
    "methods": {},
    "version": 1
  }
}