{
  "contractName": "ERC20",
  "abi": [
    {
      "anonymous": false,
      "inputs": [
        {
          "indexed": true,
          "internalType": "address",
          "name": "from",
          "type": "address"
        },
        {
          "indexed": true,
          "internalType": "address",
          "name": "to",
          "type": "address"
        },
        {
          "indexed": false,
          "internalType": "uint256",
          "name": "amount",
          "type": "uint256"
        }
      ],
      "name": "Approval",
      "type": "event"
    },
    {
      "anonymous": false,
      "inputs": [
        {
          "indexed": true,
          "internalType": "address",
          "name": "from",
          "type": "address"
        },
        {
          "indexed": true,
          "internalType": "address",
          "name": "to",
          "type": "address"
        },
        {
          "indexed": false,
          "internalType": "uint256",
          "name": "amount",
          "type": "uint256"
        }
      ],
      "name": "Transfer",
      "type": "event"
    },
    {
      "inputs": [
        {
          "internalType": "address",
          "name": "",
          "type": "address"
        },
        {
          "internalType": "address",
          "name": "",
          "type": "address"
        }
      ],
      "name": "allowance",
      "outputs": [
        {
          "internalType": "uint256",
          "name": "",
          "type": "uint256"
        }
      ],
      "stateMutability": "view",
      "type": "function"
    },
    {
      "inputs": [
        {
          "internalType": "address",
          "name": "",
          "type": "address"
        }
      ],
      "name": "balanceOf",
      "outputs": [
        {
          "internalType": "uint256",
          "name": "",
          "type": "uint256"
        }
      ],
      "stateMutability": "view",
      "type": "function"
    },
    {
      "inputs": [
        {
          "internalType": "address",
          "name": "_to",
          "type": "address"
        },
        {
          "internalType": "uint256",
          "name": "_amount",
          "type": "uint256"
        }
      ],
      "name": "transfer",
      "outputs": [
        {
          "internalType": "bool",
          "name": "",
          "type": "bool"
        }
      ],
      "stateMutability": "nonpayable",
      "type": "function"
    },
    {
      "inputs": [
        {
          "internalType": "address",
          "name": "_from",
          "type": "address"
        },
        {
          "internalType": "address",
          "name": "_to",
          "type": "address"
        },
        {
          "internalType": "uint256",
          "name": "_amount",
          "type": "uint256"
        }
      ],
      "name": "transferFrom",
      "outputs": [
        {
          "internalType": "bool",
          "name": "",
          "type": "bool"
        }
      ],
      "stateMutability": "nonpayable",
      "type": "function"
    },
    {
      "inputs": [
        {
          "internalType": "address",
          "name": "_spender",
          "type": "address"
        },
        {
          "internalType": "uint256",
          "name": "_value",
          "type": "uint256"
        }
      ],
      "name": "approve",
      "outputs": [
        {
          "internalType": "bool",
          "name": "success",
          "type": "bool"
        }
      ],
      "stateMutability": "nonpayable",
      "type": "function"
    }
  ],
  "bytecode": "0x608060405234801561000f575f80fd5b506105aa8061001d5f395ff3fe608060405234801561000f575f80fd5b5060043610610055575f3560e01c8063095ea7b31461005957806323b872dd1461008157806370a0823114610094578063a9059cbb146100c1578063dd62ed3e146100d4575b5f80fd5b61006c610067366004610488565b6100fe565b60405190151581526020015b60405180910390f35b61006c61008f3660046104b0565b6101b9565b6100b36100a23660046104e9565b5f6020819052908152604090205481565b604051908152602001610078565b61006c6100cf366004610488565b61027f565b6100b36100e2366004610509565b600160209081525f928352604080842090915290825290205481565b335f908152602081905260408120548211156101555760405162461bcd60e51b81526020600482015260116024820152704e6f7420656e6f75676820746f6b656e7360781b60448201526064015b60405180910390fd5b335f8181526001602090815260408083206001600160a01b03881680855290835292819020869055518581529192917f8c5be1e5ebec7d5bd14f71427d1e84f3dd0314c0f7b2291e5b200ac8c7c3b925910160405180910390a35060015b92915050565b6001600160a01b038084165f90815260016020908152604080832093861683529290529081205482111561022f5760405162461bcd60e51b815260206004820152601f60248201527f4e6f7420616c6c6f77656420746f2073656e64207468697320616d6f756e7400604482015260640161014c565b61023a848484610294565b6001600160a01b038085165f9081526001602090815260408083209387168352929052908120805484929061027090849061054e565b90915550600195945050505050565b5f61028b338484610294565b50600192915050565b6001600160a01b0383166102f85760405162461bcd60e51b815260206004820152602560248201527f45524332303a207472616e736665722066726f6d20746865207a65726f206164604482015264647265737360d81b606482015260840161014c565b6001600160a01b03821661035a5760405162461bcd60e51b815260206004820152602360248201527f45524332303a207472616e7366657220746f20746865207a65726f206164647260448201526265737360e81b606482015260840161014c565b6001600160a01b0383165f908152602081905260409020548111156103c15760405162461bcd60e51b815260206004820152601f60248201527f42616c616e6365206f662073656e646572206973206e6f7420656e6f75676800604482015260640161014c565b6001600160a01b0383165f90815260208190526040812080548392906103e890849061054e565b90915550506001600160a01b0382165f9081526020819052604081208054839290610414908490610561565b92505081905550816001600160a01b0316836001600160a01b03167fddf252ad1be2c89b69c2b068fc378daa952ba7f163c4a11628f55a4df523b3ef8360405161046091815260200190565b60405180910390a3505050565b80356001600160a01b0381168114610483575f80fd5b919050565b5f8060408385031215610499575f80fd5b6104a28361046d565b946020939093013593505050565b5f805f606084860312156104c2575f80fd5b6104cb8461046d565b92506104d96020850161046d565b9150604084013590509250925092565b5f602082840312156104f9575f80fd5b6105028261046d565b9392505050565b5f806040838503121561051a575f80fd5b6105238361046d565b91506105316020840161046d565b90509250929050565b634e487b7160e01b5f52601160045260245ffd5b818103818111156101b3576101b361053a565b808201808211156101b3576101b361053a56fea2646970667358221220a925c916b2cc1e6ece9d224a8688392f76dd49c0b4bf29a6f79f5a68fc69df1464736f6c63430008150033",
  "immutableReferences": {},
  "source": "// SPDX-License-Identifier: MIT\r\npragma solidity ^0.8.0;\r\n\r\ncontract ERC20 {\r\n    mapping(address => uint) public balanceOf;\r\n    mapping(address => mapping(address => uint)) public allowance;\r\n\r\n    event Approval(address indexed from, address indexed to, uint amount);\r\n    event Transfer(address indexed from, address indexed to, uint amount);\r\n\r\n    function transfer(address _to, uint _amount) public returns (bool) {\r\n        _transfer(msg.sender, _to, _amount);\r\n        return true;\r\n    }\r\n\r\n    function transferFrom(\r\n        address _from,\r\n        address _to,\r\n        uint _amount\r\n    ) public returns (bool) {\r\n        require(\r\n            allowance[_from][_to] >= _amount,\r\n            \"Not allowed to send this amount\"\r\n        );\r\n        _transfer(_from, _to, _amount);\r\n        allowance[_from][_to] -= _amount;\r\n        return true;\r\n    }\r\n\r\n    function approve(\r\n        address _spender,\r\n        uint256 _value\r\n    ) external returns (bool success) {\r\n        require(balanceOf[msg.sender] >= _value, \"Not enough tokens\");\r\n        //attach spender address to sender\r\n        allowance[msg.sender][_spender] = _value;\r\n        emit Approval(msg.sender, _spender, _value);\r\n        return true;\r\n    }\r\n\r\n    function _transfer(address _from, address _to, uint _amount) internal {\r\n        require(_from != address(0), \"ERC20: transfer from the zero address\");\r\n        require(_to != address(0), \"ERC20: transfer to the zero address\");\r\n        require(balanceOf[_from] >= _amount, \"Balance of sender is not enough\");\r\n\r\n        balanceOf[_from] -= _amount;\r\n        balanceOf[_to] += _amount;\r\n\r\n        emit Transfer(_from, _to, _amount);\r\n    }\r\n}\r\n",
  "sourcePath": "C:\\Users\\surge\\Desktop\\dapp-projects\\liquidip\\contracts\\ERC20.sol",
  "compiler": {
    "name": "solc",
    "version": "0.8.21+commit.d9974bed.Emscripten.clang"
  },
  "schemaVersion": "3.4.15",
  "updatedAt": "2023-08-20T22:30:46.472Z",
  "devdoc": {
    "kind": "dev",
    "methods": {},
    "version": 1
  },
  "userdoc": {
    "kind": "user",
    "methods": {},
    "version": 1
  }
}