{
  "contractName": "FlashLoanProvider",
  "abi": [
    {
      "inputs": [
        {
          "internalType": "address",
          "name": "_factory",
          "type": "address"
        }
      ],
      "stateMutability": "nonpayable",
      "type": "constructor"
    },
    {
      "inputs": [],
      "name": "factory",
      "outputs": [
        {
          "internalType": "contract LiquidityPoolFactory",
          "name": "",
          "type": "address"
        }
      ],
      "stateMutability": "view",
      "type": "function"
    },
    {
      "inputs": [
        {
          "internalType": "address",
          "name": "desiredToken",
          "type": "address"
        },
        {
          "internalType": "uint256",
          "name": "amount",
          "type": "uint256"
        }
      ],
      "name": "requestFlashLoan",
      "outputs": [],
      "stateMutability": "nonpayable",
      "type": "function"
    },
    {
      "inputs": [
        {
          "internalType": "address",
          "name": "token",
          "type": "address"
        },
        {
          "internalType": "uint256",
          "name": "amount",
          "type": "uint256"
        },
        {
          "internalType": "address",
          "name": "pool",
          "type": "address"
        }
      ],
      "name": "repayLoan",
      "outputs": [],
      "stateMutability": "nonpayable",
      "type": "function"
    }
  ],
  "bytecode": "0x608060405234801561001057600080fd5b506040516106de3803806106de83398101604081905261002f91610054565b600080546001600160a01b0319166001600160a01b0392909216919091179055610084565b60006020828403121561006657600080fd5b81516001600160a01b038116811461007d57600080fd5b9392505050565b61064b806100936000396000f3fe608060405234801561001057600080fd5b50600436106100415760003560e01c8063b29771a114610046578063c45a01551461005b578063d54ba9541461008a575b600080fd5b61005961005436600461043b565b61009d565b005b60005461006e906001600160a01b031681565b6040516001600160a01b03909116815260200160405180910390f35b61005961009836600461047d565b6101e0565b6001600160a01b0381166100ef5760405162461bcd60e51b8152602060048201526014602482015273496e76616c696420706f6f6c206164647265737360601b60448201526064015b60405180910390fd5b60405163095ea7b360e01b8152336004820152602481018390526001600160a01b0384169063095ea7b3906044016020604051808303816000875af115801561013c573d6000803e3d6000fd5b505050506040513d601f19601f8201168201806040525081019061016091906104a9565b506040516323b872dd60e01b81523360048201526001600160a01b038281166024830152604482018490528416906323b872dd906064016020604051808303816000875af11580156101b6573d6000803e3d6000fd5b505050506040513d601f19601f820116820180604052508101906101da91906104a9565b50505050565b60006101ec83836102aa565b90506001600160a01b03811661023d5760405162461bcd60e51b8152602060048201526016602482015275139bc81cdd5a5d18589b19481c1bdbdb08199bdd5b9960521b60448201526064016100e6565b604051639d9638a160e01b81523360048201526001600160a01b03848116602483015260448201849052821690639d9638a190606401600060405180830381600087803b15801561028d57600080fd5b505af11580156102a1573d6000803e3d6000fd5b50505050505050565b60008054604051636bad16b960e11b81526001600160a01b0385811660048301528392169063d75a2d7290602401600060405180830381865afa1580156102f5573d6000803e3d6000fd5b505050506040513d6000823e601f3d908101601f1916820160405261031d91908101906104f8565b905080516000141561033357600091505061041d565b60005b8151811015610416576000856001600160a01b03166370a08231848481518110610362576103626105bd565b60200260200101516040518263ffffffff1660e01b815260040161039591906001600160a01b0391909116815260200190565b602060405180830381865afa1580156103b2573d6000803e3d6000fd5b505050506040513d601f19601f820116820180604052508101906103d691906105d3565b9050848110610403578282815181106103f1576103f16105bd565b6020026020010151935050505061041d565b508061040e816105ec565b915050610336565b5060009150505b92915050565b6001600160a01b038116811461043857600080fd5b50565b60008060006060848603121561045057600080fd5b833561045b81610423565b925060208401359150604084013561047281610423565b809150509250925092565b6000806040838503121561049057600080fd5b823561049b81610423565b946020939093013593505050565b6000602082840312156104bb57600080fd5b815180151581146104cb57600080fd5b9392505050565b634e487b7160e01b600052604160045260246000fd5b80516104f381610423565b919050565b6000602080838503121561050b57600080fd5b825167ffffffffffffffff8082111561052357600080fd5b818501915085601f83011261053757600080fd5b815181811115610549576105496104d2565b8060051b604051601f19603f8301168101818110858211171561056e5761056e6104d2565b60405291825284820192508381018501918883111561058c57600080fd5b938501935b828510156105b1576105a2856104e8565b84529385019392850192610591565b98975050505050505050565b634e487b7160e01b600052603260045260246000fd5b6000602082840312156105e557600080fd5b5051919050565b600060001982141561060e57634e487b7160e01b600052601160045260246000fd5b506001019056fea26469706673582212205b3485fa655e4d202684fc66fef2d44be46213b027b7e3ce382f0ae4c23fc3ad64736f6c634300080c0033",
  "immutableReferences": {},
  "source": "// SPDX-License-Identifier: MIT\npragma solidity ^0.8.9;\n\nimport \"./LiquidityPool.sol\";\nimport \"./LiquidityPoolFactory.sol\";\nimport \"./IERC20.sol\";\n\ncontract FlashLoanProvider {\n    LiquidityPoolFactory public factory;\n\n    constructor(address _factory) {\n        factory = LiquidityPoolFactory(_factory);\n    }\n\n    function requestFlashLoan(address desiredToken, uint amount) external {\n        address pool = findOptimalPool(desiredToken, amount);\n        require(pool != address(0), \"No suitable pool found\");\n        LiquidityPool(pool).flashLoan(msg.sender, desiredToken, amount);\n    }\n\n    function repayLoan(address token, uint amount, address pool) external {\n        require(pool != address(0), \"Invalid pool address\");\n        IERC20(token).approve(msg.sender, amount);\n        IERC20(token).transferFrom(msg.sender, pool, amount);\n    }\n\n    function findOptimalPool(\n        address desiredToken,\n        uint amount\n    ) internal view returns (address) {\n        address[] memory pools = factory.getTokenPools(desiredToken);\n        if (pools.length == 0) return address(0);\n        for (uint i = 0; i < pools.length; i++) {\n            uint poolBal = IERC20(desiredToken).balanceOf(pools[i]);\n            if (poolBal >= amount) {\n                return pools[i];\n            }\n        }\n        return address(0);\n    }\n}\n",
  "sourcePath": "C:\\Users\\surge\\Desktop\\dapp-projects\\liquidip\\contracts\\FlashLoanProvider.sol",
  "compiler": {
    "name": "solc",
    "version": "0.8.12+commit.f00d7308.Emscripten.clang"
  },
  "schemaVersion": "3.4.15",
  "updatedAt": "2023-08-15T05:05:28.249Z",
  "devdoc": {
    "kind": "dev",
    "methods": {},
    "version": 1
  },
  "userdoc": {
    "kind": "user",
    "methods": {},
    "version": 1
  }
}