{
  "contractName": "FlashLoanProvider",
  "abi": [
    {
      "inputs": [
        {
          "internalType": "address",
          "name": "_factory",
          "type": "address"
        }
      ],
      "stateMutability": "nonpayable",
      "type": "constructor"
    },
    {
      "inputs": [],
      "name": "factory",
      "outputs": [
        {
          "internalType": "contract LiquidityPoolFactory",
          "name": "",
          "type": "address"
        }
      ],
      "stateMutability": "view",
      "type": "function"
    },
    {
      "inputs": [
        {
          "internalType": "address",
          "name": "desiredToken",
          "type": "address"
        },
        {
          "internalType": "uint256",
          "name": "amount",
          "type": "uint256"
        }
      ],
      "name": "requestFlashLoan",
      "outputs": [],
      "stateMutability": "nonpayable",
      "type": "function"
    }
  ],
  "bytecode": "0x608060405234801561000f575f80fd5b506040516104e53803806104e583398101604081905261002e91610052565b5f80546001600160a01b0319166001600160a01b039290921691909117905561007f565b5f60208284031215610062575f80fd5b81516001600160a01b0381168114610078575f80fd5b9392505050565b6104598061008c5f395ff3fe608060405234801561000f575f80fd5b5060043610610034575f3560e01c8063c45a015514610038578063d54ba95414610066575b5f80fd5b5f5461004a906001600160a01b031681565b6040516001600160a01b03909116815260200160405180910390f35b6100796100743660046102c6565b61007b565b005b5f6100868383610143565b90506001600160a01b0381166100db5760405162461bcd60e51b8152602060048201526016602482015275139bc81cdd5a5d18589b19481c1bdbdb08199bdd5b9960521b604482015260640160405180910390fd5b604051639d9638a160e01b81523360048201526001600160a01b03848116602483015260448201849052821690639d9638a1906064015f604051808303815f87803b158015610128575f80fd5b505af115801561013a573d5f803e3d5ffd5b50505050505050565b5f8054604051636bad16b960e11b81526001600160a01b0385811660048301528392169063d75a2d72906024015f60405180830381865afa15801561018a573d5f803e3d5ffd5b505050506040513d5f823e601f3d908101601f191682016040526101b19190810190610314565b905080515f036101c4575f9150506102a9565b5f5b81518110156102a3575f856001600160a01b03166370a082318484815181106101f1576101f16103d4565b60200260200101516040518263ffffffff1660e01b815260040161022491906001600160a01b0391909116815260200190565b602060405180830381865afa15801561023f573d5f803e3d5ffd5b505050506040513d601f19601f8201168201806040525081019061026391906103e8565b90508481106102905782828151811061027e5761027e6103d4565b602002602001015193505050506102a9565b508061029b816103ff565b9150506101c6565b505f9150505b92915050565b6001600160a01b03811681146102c3575f80fd5b50565b5f80604083850312156102d7575f80fd5b82356102e2816102af565b946020939093013593505050565b634e487b7160e01b5f52604160045260245ffd5b805161030f816102af565b919050565b5f6020808385031215610325575f80fd5b825167ffffffffffffffff8082111561033c575f80fd5b818501915085601f83011261034f575f80fd5b815181811115610361576103616102f0565b8060051b604051601f19603f83011681018181108582111715610386576103866102f0565b6040529182528482019250838101850191888311156103a3575f80fd5b938501935b828510156103c8576103b985610304565b845293850193928501926103a8565b98975050505050505050565b634e487b7160e01b5f52603260045260245ffd5b5f602082840312156103f8575f80fd5b5051919050565b5f6001820161041c57634e487b7160e01b5f52601160045260245ffd5b506001019056fea2646970667358221220f8dcfb4712e26940f5562becb9687d37ae65cb57ad1961cafa509f490b00372864736f6c63430008150033",
  "immutableReferences": {},
  "source": "// SPDX-License-Identifier: MIT\npragma solidity ^0.8.0;\n\nimport \"./LiquidityPool.sol\";\nimport \"./LiquidityPoolFactory.sol\";\nimport \"./IERC20.sol\";\n\ncontract FlashLoanProvider {\n    LiquidityPoolFactory public factory;\n\n    constructor(address _factory) {\n        factory = LiquidityPoolFactory(_factory);\n    }\n\n    function requestFlashLoan(address desiredToken, uint amount) external {\n        address pool = findOptimalPool(desiredToken, amount);\n        require(pool != address(0), \"No suitable pool found\");\n        LiquidityPool(pool).flashLoan(msg.sender, desiredToken, amount);\n    }\n\n    function findOptimalPool(\n        address desiredToken,\n        uint amount\n    ) internal view returns (address) {\n        address[] memory pools = factory.getTokenPools(desiredToken);\n        if (pools.length == 0) return address(0);\n        for (uint i = 0; i < pools.length; i++) {\n            uint poolBal = IERC20(desiredToken).balanceOf(pools[i]);\n            if (poolBal >= amount) {\n                return pools[i];\n            }\n        }\n        return address(0);\n    }\n}\n",
  "sourcePath": "C:\\Users\\surge\\Desktop\\dapp-projects\\liquidip\\contracts\\FlashLoanProvider.sol",
  "compiler": {
    "name": "solc",
    "version": "0.8.21+commit.d9974bed.Emscripten.clang"
  },
  "schemaVersion": "3.4.15",
  "updatedAt": "2023-08-20T22:30:46.476Z",
  "devdoc": {
    "kind": "dev",
    "methods": {},
    "version": 1
  },
  "userdoc": {
    "kind": "user",
    "methods": {},
    "version": 1
  }
}