{
  "contractName": "LiquidityPoolFactory",
  "abi": [
    {
      "anonymous": false,
      "inputs": [
        {
          "indexed": true,
          "internalType": "address",
          "name": "tokenA",
          "type": "address"
        },
        {
          "indexed": true,
          "internalType": "address",
          "name": "tokenB",
          "type": "address"
        },
        {
          "indexed": false,
          "internalType": "address",
          "name": "pool",
          "type": "address"
        }
      ],
      "name": "LiquidityPoolCreated",
      "type": "event"
    },
    {
      "inputs": [
        {
          "internalType": "uint256",
          "name": "",
          "type": "uint256"
        },
        {
          "internalType": "uint256",
          "name": "",
          "type": "uint256"
        }
      ],
      "name": "allPairs",
      "outputs": [
        {
          "internalType": "address",
          "name": "",
          "type": "address"
        }
      ],
      "stateMutability": "view",
      "type": "function"
    },
    {
      "inputs": [
        {
          "internalType": "uint256",
          "name": "",
          "type": "uint256"
        }
      ],
      "name": "allPools",
      "outputs": [
        {
          "internalType": "address",
          "name": "",
          "type": "address"
        }
      ],
      "stateMutability": "view",
      "type": "function"
    },
    {
      "inputs": [],
      "name": "poolCount",
      "outputs": [
        {
          "internalType": "uint256",
          "name": "",
          "type": "uint256"
        }
      ],
      "stateMutability": "view",
      "type": "function"
    },
    {
      "inputs": [
        {
          "internalType": "address",
          "name": "",
          "type": "address"
        },
        {
          "internalType": "address",
          "name": "",
          "type": "address"
        }
      ],
      "name": "pools",
      "outputs": [
        {
          "internalType": "address",
          "name": "",
          "type": "address"
        }
      ],
      "stateMutability": "view",
      "type": "function"
    },
    {
      "inputs": [
        {
          "internalType": "address",
          "name": "",
          "type": "address"
        }
      ],
      "name": "tokenIndex",
      "outputs": [
        {
          "internalType": "uint256",
          "name": "",
          "type": "uint256"
        }
      ],
      "stateMutability": "view",
      "type": "function"
    },
    {
      "inputs": [
        {
          "internalType": "address",
          "name": "",
          "type": "address"
        },
        {
          "internalType": "uint256",
          "name": "",
          "type": "uint256"
        }
      ],
      "name": "tokenToPools",
      "outputs": [
        {
          "internalType": "address",
          "name": "",
          "type": "address"
        }
      ],
      "stateMutability": "view",
      "type": "function"
    },
    {
      "inputs": [
        {
          "internalType": "uint256",
          "name": "",
          "type": "uint256"
        }
      ],
      "name": "tokens",
      "outputs": [
        {
          "internalType": "address",
          "name": "",
          "type": "address"
        }
      ],
      "stateMutability": "view",
      "type": "function"
    },
    {
      "inputs": [
        {
          "internalType": "address",
          "name": "tokenA",
          "type": "address"
        },
        {
          "internalType": "address",
          "name": "tokenB",
          "type": "address"
        }
      ],
      "name": "createLiquidityPool",
      "outputs": [],
      "stateMutability": "nonpayable",
      "type": "function"
    },
    {
      "inputs": [
        {
          "internalType": "address",
          "name": "tokenA",
          "type": "address"
        },
        {
          "internalType": "address",
          "name": "tokenB",
          "type": "address"
        }
      ],
      "name": "getLiquidityPool",
      "outputs": [
        {
          "internalType": "address",
          "name": "",
          "type": "address"
        }
      ],
      "stateMutability": "view",
      "type": "function"
    },
    {
      "inputs": [
        {
          "internalType": "address",
          "name": "tokenA",
          "type": "address"
        },
        {
          "internalType": "address",
          "name": "tokenB",
          "type": "address"
        }
      ],
      "name": "hasPool",
      "outputs": [
        {
          "internalType": "bool",
          "name": "",
          "type": "bool"
        }
      ],
      "stateMutability": "view",
      "type": "function"
    },
    {
      "inputs": [],
      "name": "getTokensCount",
      "outputs": [
        {
          "internalType": "uint256",
          "name": "",
          "type": "uint256"
        }
      ],
      "stateMutability": "view",
      "type": "function"
    },
    {
      "inputs": [],
      "name": "getPairsCount",
      "outputs": [
        {
          "internalType": "uint256",
          "name": "",
          "type": "uint256"
        }
      ],
      "stateMutability": "view",
      "type": "function"
    },
    {
      "inputs": [],
      "name": "getAllPairings",
      "outputs": [
        {
          "internalType": "address[][]",
          "name": "",
          "type": "address[][]"
        }
      ],
      "stateMutability": "view",
      "type": "function"
    },
    {
      "inputs": [],
      "name": "getAllTokens",
      "outputs": [
        {
          "internalType": "address[]",
          "name": "_tokens",
          "type": "address[]"
        }
      ],
      "stateMutability": "view",
      "type": "function"
    },
    {
      "inputs": [],
      "name": "getAllPools",
      "outputs": [
        {
          "internalType": "address[]",
          "name": "_pools",
          "type": "address[]"
        }
      ],
      "stateMutability": "view",
      "type": "function"
    },
    {
      "inputs": [
        {
          "internalType": "address",
          "name": "token",
          "type": "address"
        }
      ],
      "name": "getTokenPools",
      "outputs": [
        {
          "internalType": "address[]",
          "name": "",
          "type": "address[]"
        }
      ],
      "stateMutability": "view",
      "type": "function"
    }
  ],
  "bytecode": "0x6080604052600060065534801561001557600080fd5b50612dc1806100256000396000f3fe608060405234801561001057600080fd5b50600436106101005760003560e01c8063427f91a611610097578063d75a2d7211610066578063d75a2d721461027b578063d88ff1f41461028e578063f4f31ede14610296578063f525cb68146102ce57600080fd5b8063427f91a6146101ca5780634f64b2be146101ea578063901754d7146101fd578063d6432fab1461023157600080fd5b8063291c73ed116100d3578063291c73ed1461016f5780632a5c792a146101845780633962f82d1461019957806341d1de97146101a157600080fd5b8063059a9127146101055780631d0f4c6614610135578063215d4cde146101475780632384d3d01461015a575b600080fd5b610118610113366004610ac8565b6102d7565b6040516001600160a01b0390911681526020015b60405180910390f35b6004545b60405190815260200161012c565b610118610155366004610b06565b61031b565b61016d610168366004610b30565b610337565b005b610177610647565b60405161012c9190610b63565b61018c6106ea565b60405161012c9190610bf6565b600054610139565b6101186101af366004610c43565b6005602052600090815260409020546001600160a01b031681565b6101396101d8366004610c5c565b60016020526000908152604090205481565b6101186101f8366004610c43565b6107b2565b61011861020b366004610b30565b60026020908152600092835260408084209091529082529020546001600160a01b031681565b61026b61023f366004610b30565b6001600160a01b0391821660009081526002602090815260408083209385168352929052205416151590565b604051901515815260200161012c565b61018c610289366004610c5c565b6107dc565b61018c610852565b6101186102a4366004610b30565b6001600160a01b039182166000908152600260209081526040808320938516835292905220541690565b61013960065481565b600482815481106102e757600080fd5b9060005260206000200181815481106102ff57600080fd5b6000918252602090912001546001600160a01b03169150829050565b600360205281600052604060002081815481106102ff57600080fd5b806001600160a01b0316826001600160a01b0316141561039e5760405162461bcd60e51b815260206004820152601860248201527f546f6b656e73206d75737420626520646966666572656e74000000000000000060448201526064015b60405180910390fd5b6001600160a01b038083166000908152600260209081526040808320848616845290915290205416156104095760405162461bcd60e51b8152602060048201526013602482015272506f6f6c20616c72656164792065786973747360681b6044820152606401610395565b6000828260405161041990610a4a565b6001600160a01b03928316815291166020820152604001604051809103906000f08015801561044c573d6000803e3d6000fd5b506001600160a01b03808516600081815260026020818152604080842089871680865290835281852080549789166001600160a01b031998891681179091559383528185209585529482528084208054871684179055600382528084208054600181810183559186528386200180548816851790559484528084208054808701825590855282852001805487168417905560068054855260059092528320805490951690911790935582549394509092610507908490610c94565b9091555050604080516002808252606082018352600092602083019080368337019050509050838160008151811061054157610541610cc2565b60200260200101906001600160a01b031690816001600160a01b031681525050828160018151811061057557610575610cc2565b6001600160a01b039092166020928302919091018201526004805460018101825560009190915282516105cf927f8a35acfbc15ff81a39ae7d344fd709f28e8600b4aa8c65c6b64bfe7fe36bd19b90920191840190610a57565b506105d984610901565b6105e6576105e68461098a565b6105ef83610901565b6105fc576105fc8361098a565b6040516001600160a01b03838116825280851691908616907fef12eed5b10ee0380818f3c2634078836b5ca46cf50742b894ebf13bc3e561a79060200160405180910390a350505050565b60606004805480602002602001604051908101604052809291908181526020016000905b828210156106e1576000848152602090819020830180546040805182850281018501909152818152928301828280156106cd57602002820191906000526020600020905b81546001600160a01b031681526001909101906020018083116106af575b50505050508152602001906001019061066b565b50505050905090565b60005460609067ffffffffffffffff81111561070857610708610cac565b604051908082528060200260200182016040528015610731578160200160208202803683370190505b50905060005b6000548110156107ae576000818154811061075457610754610cc2565b9060005260206000200160009054906101000a90046001600160a01b031682828151811061078457610784610cc2565b6001600160a01b0390921660209283029190910190910152806107a681610cd8565b915050610737565b5090565b600081815481106107c257600080fd5b6000918252602090912001546001600160a01b0316905081565b6001600160a01b03811660009081526003602090815260409182902080548351818402810184019094528084526060939283018282801561084657602002820191906000526020600020905b81546001600160a01b03168152600190910190602001808311610828575b50505050509050919050565b606060065467ffffffffffffffff81111561086f5761086f610cac565b604051908082528060200260200182016040528015610898578160200160208202803683370190505b50905060005b6006548110156107ae5760008181526005602052604090205482516001600160a01b03909116908390839081106108d7576108d7610cc2565b6001600160a01b0390921660209283029190910190910152806108f981610cd8565b91505061089e565b6001600160a01b03811660009081526001602052604081205415158061098457506001600160a01b038216600090815260016020526040902054158015610949575060005415155b80156109845750816001600160a01b03166000808154811061096d5761096d610cc2565b6000918252602090912001546001600160a01b0316145b92915050565b61099381610901565b156109d75760405162461bcd60e51b8152602060048201526014602482015273546f6b656e20616c72656164792065786973747360601b6044820152606401610395565b60008054600180820183558280527f290decd9548b62a8d60345a988386fc84ba6bc95484008f6362f93160ef3e56390910180546001600160a01b0319166001600160a01b0385161790559054610a2e9190610cf3565b6001600160a01b03909116600090815260016020526040902055565b61208180610d0b83390190565b828054828255906000526020600020908101928215610aac579160200282015b82811115610aac57825182546001600160a01b0319166001600160a01b03909116178255602090920191600190910190610a77565b506107ae9291505b808211156107ae5760008155600101610ab4565b60008060408385031215610adb57600080fd5b50508035926020909101359150565b80356001600160a01b0381168114610b0157600080fd5b919050565b60008060408385031215610b1957600080fd5b610b2283610aea565b946020939093013593505050565b60008060408385031215610b4357600080fd5b610b4c83610aea565b9150610b5a60208401610aea565b90509250929050565b6000602080830181845280855180835260408601915060408160051b87010192508387016000805b83811015610be857888603603f19018552825180518088529088019088880190845b81811015610bd25783516001600160a01b03168352928a0192918a0191600101610bad565b5090975050509386019391860191600101610b8b565b509398975050505050505050565b6020808252825182820181905260009190848201906040850190845b81811015610c375783516001600160a01b031683529284019291840191600101610c12565b50909695505050505050565b600060208284031215610c5557600080fd5b5035919050565b600060208284031215610c6e57600080fd5b610c7782610aea565b9392505050565b634e487b7160e01b600052601160045260246000fd5b60008219821115610ca757610ca7610c7e565b500190565b634e487b7160e01b600052604160045260246000fd5b634e487b7160e01b600052603260045260246000fd5b6000600019821415610cec57610cec610c7e565b5060010190565b600082821015610d0557610d05610c7e565b50039056fe60806040523480156200001157600080fd5b506040516200208138038062002081833981016040819052620000349162000083565b600280546001600160a01b039384166001600160a01b03199182161790915560038054929093169116179055620000bb565b80516001600160a01b03811681146200007e57600080fd5b919050565b600080604083850312156200009757600080fd5b620000a28362000066565b9150620000b26020840162000066565b90509250929050565b611fb680620000cb6000396000f3fe608060405234801561001057600080fd5b506004361061010b5760003560e01c806395d89b41116100a2578063a9059cbb11610071578063a9059cbb1461027b578063aca34c111461028e578063d21220a7146102a8578063dd62ed3e146102bb578063ec6cc0cc146102e657600080fd5b806395d89b411461021e5780639c8f9f23146102405780639cd441da146102555780639d9638a11461026857600080fd5b806323b872dd116100de57806323b872dd146101be578063313ce567146101d15780634aa06652146101eb57806370a08231146101fe57600080fd5b806306fdde0314610110578063095ea7b3146101595780630dfe16811461017c57806318160ddd146101a7575b600080fd5b610143604051806040016040528060148152602001732634b8bab4b234ba3c902837b7b6102a37b5b2b760611b81525081565b6040516101509190611c24565b60405180910390f35b61016c610167366004611c53565b6102f9565b6040519015158152602001610150565b60025461018f906001600160a01b031681565b6040516001600160a01b039091168152602001610150565b6101b060045481565b604051908152602001610150565b61016c6101cc366004611c7d565b6103b5565b6101d9601281565b60405160ff9091168152602001610150565b6101b06101f9366004611c7d565b61047d565b6101b061020c366004611cb9565b60006020819052908152604090205481565b6101436040518060400160405280600381526020016213141560ea1b81525081565b61025361024e366004611cd4565b6106b9565b005b610253610263366004611ced565b61098d565b610253610276366004611c7d565b610d19565b61016c610289366004611c53565b6110bb565b6102966110d1565b60405161015096959493929190611d0f565b60035461018f906001600160a01b031681565b6101b06102c9366004611d76565b600160209081526000928352604080842090915290825290205481565b6101b06102f4366004611c7d565b6113b2565b336000908152602081905260408120548211156103515760405162461bcd60e51b81526020600482015260116024820152704e6f7420656e6f75676820746f6b656e7360781b60448201526064015b60405180910390fd5b3360008181526001602090815260408083206001600160a01b03881680855290835292819020869055518581529192917f8c5be1e5ebec7d5bd14f71427d1e84f3dd0314c0f7b2291e5b200ac8c7c3b925910160405180910390a350600192915050565b6001600160a01b03808416600090815260016020908152604080832093861683529290529081205482111561042c5760405162461bcd60e51b815260206004820152601f60248201527f4e6f7420616c6c6f77656420746f2073656e64207468697320616d6f756e74006044820152606401610348565b610437848484611855565b6001600160a01b0380851660009081526001602090815260408083209387168352929052908120805484929061046e908490611dbf565b90915550600195945050505050565b60025460009081906001600160a01b03868116911614610508576003546040516370a0823160e01b81523060048201526001600160a01b03909116906370a0823190602401602060405180830381865afa1580156104df573d6000803e3d6000fd5b505050506040513d601f19601f820116820180604052508101906105039190611dd6565b610574565b6002546040516370a0823160e01b81523060048201526001600160a01b03909116906370a0823190602401602060405180830381865afa158015610550573d6000803e3d6000fd5b505050506040513d601f19601f820116820180604052508101906105749190611dd6565b6002549091506000906001600160a01b03868116911614610600576003546040516370a0823160e01b81523060048201526001600160a01b03909116906370a0823190602401602060405180830381865afa1580156105d7573d6000803e3d6000fd5b505050506040513d601f19601f820116820180604052508101906105fb9190611dd6565b61066c565b6002546040516370a0823160e01b81523060048201526001600160a01b03909116906370a0823190602401602060405180830381865afa158015610648573d6000803e3d6000fd5b505050506040513d601f19601f8201168201806040525081019061066c9190611dd6565b905060008261067b8387611def565b6106859190611e0e565b905060006103e8610697836003611def565b6106a19190611e0e565b90506106ad8183611dbf565b98975050505050505050565b6004546106c63383611a31565b6002546040516370a0823160e01b81523060048201526000916001600160a01b0316906370a0823190602401602060405180830381865afa15801561070f573d6000803e3d6000fd5b505050506040513d601f19601f820116820180604052508101906107339190611dd6565b6003546040516370a0823160e01b81523060048201529192506000916001600160a01b03909116906370a0823190602401602060405180830381865afa158015610781573d6000803e3d6000fd5b505050506040513d601f19601f820116820180604052508101906107a59190611dd6565b90506000836107b48487611def565b6107be9190611e0e565b90506000846107cd8488611def565b6107d79190611e0e565b90506000821180156107e95750600081115b61082e5760405162461bcd60e51b8152602060048201526016602482015275496e73756666696369656e74206c697175696469747960501b6044820152606401610348565b60025460405163a9059cbb60e01b8152336004820152602481018490526001600160a01b039091169063a9059cbb906044016020604051808303816000875af115801561087f573d6000803e3d6000fd5b505050506040513d601f19601f820116820180604052508101906108a39190611e30565b6108bf5760405162461bcd60e51b815260040161034890611e52565b60035460405163a9059cbb60e01b8152336004820152602481018390526001600160a01b039091169063a9059cbb906044016020604051808303816000875af1158015610910573d6000803e3d6000fd5b505050506040513d601f19601f820116820180604052508101906109349190611e30565b6109505760405162461bcd60e51b815260040161034890611e52565b60405186815233907fc2c3f06e49b9f15e7b4af9055e183b0d73362e033ad82a07dec9bf98401717199060200160405180910390a2505050505050565b60008211801561099d5750600081115b6109e95760405162461bcd60e51b815260206004820152601e60248201527f416d6f756e7473206d7573742062652067726561746572207468616e203000006044820152606401610348565b6002546040516323b872dd60e01b81526001600160a01b03909116906323b872dd90610a1d90339030908790600401611e81565b6020604051808303816000875af1158015610a3c573d6000803e3d6000fd5b505050506040513d601f19601f82011682018060405250810190610a609190611e30565b610aa55760405162461bcd60e51b8152602060048201526016602482015275151bdad95b8c081d1c985b9cd9995c8819985a5b195960521b6044820152606401610348565b6003546040516323b872dd60e01b81526001600160a01b03909116906323b872dd90610ad990339030908690600401611e81565b6020604051808303816000875af1158015610af8573d6000803e3d6000fd5b505050506040513d601f19601f82011682018060405250810190610b1c9190611e30565b610b615760405162461bcd60e51b8152602060048201526016602482015275151bdad95b8c481d1c985b9cd9995c8819985a5b195960521b6044820152606401610348565b600454600081610b89576107d0610b788486611ea5565b610b829190611e0e565b9050610cd4565b6002546040516370a0823160e01b81523060048201526000916001600160a01b0316906370a0823190602401602060405180830381865afa158015610bd2573d6000803e3d6000fd5b505050506040513d601f19601f82011682018060405250810190610bf69190611dd6565b6003546040516370a0823160e01b81523060048201529192506000916001600160a01b03909116906370a0823190602401602060405180830381865afa158015610c44573d6000803e3d6000fd5b505050506040513d601f19601f82011682018060405250810190610c689190611dd6565b9050600082610c778689611def565b610c819190611e0e565b9050600082610c908789611def565b610c9a9190611e0e565b90506000610ca88383611b2e565b90506107d088610cb88b84611ea5565b610cc29190611ea5565b610ccc9190611e0e565b955050505050505b610cde3382611b46565b60405181815233907fc17cea59c2955cb181b03393209566960365771dbba9dc3d510180e7cb3120889060200160405180910390a250505050565b6002546001600160a01b0383811691161480610d4257506003546001600160a01b038381169116145b610d875760405162461bcd60e51b8152602060048201526016602482015275151bdad95b881b9bdd081a5b881d1a1a5cc81c1bdbdb60521b6044820152606401610348565b6040516370a0823160e01b81523060048201526000906001600160a01b038416906370a0823190602401602060405180830381865afa158015610dce573d6000803e3d6000fd5b505050506040513d601f19601f82011682018060405250810190610df29190611dd6565b905081811015610e445760405162461bcd60e51b815260206004820152601c60248201527f4e6f7420656e6f756768206c697175696469747920696e20706f6f6c000000006044820152606401610348565b6000612710610e54846005611def565b610e5e9190611e0e565b60405163a9059cbb60e01b81526001600160a01b038781166004830152602482018690529192509085169063a9059cbb906044016020604051808303816000875af1158015610eb1573d6000803e3d6000fd5b505050506040513d601f19601f82011682018060405250810190610ed59190611e30565b610f215760405162461bcd60e51b815260206004820152601960248201527f436f756c64206e6f74207472616e7366657220746f6b656e73000000000000006044820152606401610348565b6040516332978f7960e01b815260048101849052602481018290523060448201526001600160a01b038616906332978f7990606401600060405180830381600087803b158015610f7057600080fd5b505af1158015610f84573d6000803e3d6000fd5b50506040516370a0823160e01b8152306004820152600092506001600160a01b03871691506370a0823190602401602060405180830381865afa158015610fcf573d6000803e3d6000fd5b505050506040513d601f19601f82011682018060405250810190610ff39190611dd6565b9050610fff8284611ea5565b81101561105d5760405162461bcd60e51b815260206004820152602660248201527f466c617368206c6f616e206861736e2774206265656e2072657061696420776960448201526574682066656560d01b6064820152608401610348565b846001600160a01b0316866001600160a01b03167f0d7d75e01ab95780d3cd1c8ec0dd6c2ce19e3a20427eec8bf53283b6fb8e95f086856040516110ab929190918252602082015260400190565b60405180910390a3505050505050565b60006110c8338484611855565b50600192915050565b60608060006060806000600260009054906101000a90046001600160a01b03166001600160a01b03166306fdde036040518163ffffffff1660e01b8152600401600060405180830381865afa15801561112e573d6000803e3d6000fd5b505050506040513d6000823e601f3d908101601f191682016040526111569190810190611ed3565b600260009054906101000a90046001600160a01b03166001600160a01b03166395d89b416040518163ffffffff1660e01b8152600401600060405180830381865afa1580156111a9573d6000803e3d6000fd5b505050506040513d6000823e601f3d908101601f191682016040526111d19190810190611ed3565b6002546040516370a0823160e01b81523060048201526001600160a01b03909116906370a0823190602401602060405180830381865afa158015611219573d6000803e3d6000fd5b505050506040513d601f19601f8201168201806040525081019061123d9190611dd6565b600360009054906101000a90046001600160a01b03166001600160a01b03166306fdde036040518163ffffffff1660e01b8152600401600060405180830381865afa158015611290573d6000803e3d6000fd5b505050506040513d6000823e601f3d908101601f191682016040526112b89190810190611ed3565b600360009054906101000a90046001600160a01b03166001600160a01b03166395d89b416040518163ffffffff1660e01b8152600401600060405180830381865afa15801561130b573d6000803e3d6000fd5b505050506040513d6000823e601f3d908101601f191682016040526113339190810190611ed3565b6003546040516370a0823160e01b81523060048201526001600160a01b03909116906370a0823190602401602060405180830381865afa15801561137b573d6000803e3d6000fd5b505050506040513d601f19601f8201168201806040525081019061139f9190611dd6565b949b939a50919850965094509092509050565b6002546000906001600160a01b03858116911614806113de57506003546001600160a01b038581169116145b6114205760405162461bcd60e51b815260206004820152601360248201527224b73b30b634b21034b7383aba103a37b5b2b760691b6044820152606401610348565b6002546001600160a01b038481169116148061144957506003546001600160a01b038481169116145b61148c5760405162461bcd60e51b815260206004820152601460248201527324b73b30b634b21037baba383aba103a37b5b2b760611b6044820152606401610348565b826001600160a01b0316846001600160a01b031614156115005760405162461bcd60e51b815260206004820152602960248201527f496e70757420616e64206f757470757420746f6b656e73206d75737420626520604482015268191a5999995c995b9d60ba1b6064820152608401610348565b600082116115505760405162461bcd60e51b815260206004820152601d60248201527f416d6f756e74206d7573742062652067726561746572207468616e20300000006044820152606401610348565b600061155d85858561047d565b9050600081116115af5760405162461bcd60e51b815260206004820152601d60248201527f416d6f756e74206d7573742062652067726561746572207468616e20300000006044820152606401610348565b6002546001600160a01b03868116911614156116ee576002546040516323b872dd60e01b81526001600160a01b03909116906323b872dd906115f990339030908890600401611e81565b6020604051808303816000875af1158015611618573d6000803e3d6000fd5b505050506040513d601f19601f8201168201806040525081019061163c9190611e30565b6116585760405162461bcd60e51b815260040161034890611e52565b60035460405163a9059cbb60e01b8152336004820152602481018390526001600160a01b039091169063a9059cbb906044016020604051808303816000875af11580156116a9573d6000803e3d6000fd5b505050506040513d601f19601f820116820180604052508101906116cd9190611e30565b6116e95760405162461bcd60e51b815260040161034890611e52565b611812565b6003546040516323b872dd60e01b81526001600160a01b03909116906323b872dd9061172290339030908890600401611e81565b6020604051808303816000875af1158015611741573d6000803e3d6000fd5b505050506040513d601f19601f820116820180604052508101906117659190611e30565b6117815760405162461bcd60e51b815260040161034890611e52565b60025460405163a9059cbb60e01b8152336004820152602481018390526001600160a01b039091169063a9059cbb906044016020604051808303816000875af11580156117d2573d6000803e3d6000fd5b505050506040513d601f19601f820116820180604052508101906117f69190611e30565b6118125760405162461bcd60e51b815260040161034890611e52565b604080518481526020810183905233917f18704ae982dcd24a1beeeed3ecf045ab0520d7b7519b97adf3e4f40bf7efe339910160405180910390a2949350505050565b6001600160a01b0383166118b95760405162461bcd60e51b815260206004820152602560248201527f45524332303a207472616e736665722066726f6d20746865207a65726f206164604482015264647265737360d81b6064820152608401610348565b6001600160a01b03821661191b5760405162461bcd60e51b815260206004820152602360248201527f45524332303a207472616e7366657220746f20746865207a65726f206164647260448201526265737360e81b6064820152608401610348565b6001600160a01b0383166000908152602081905260409020548111156119835760405162461bcd60e51b815260206004820152601f60248201527f42616c616e6365206f662073656e646572206973206e6f7420656e6f756768006044820152606401610348565b6001600160a01b038316600090815260208190526040812080548392906119ab908490611dbf565b90915550506001600160a01b038216600090815260208190526040812080548392906119d8908490611ea5565b92505081905550816001600160a01b0316836001600160a01b03167fddf252ad1be2c89b69c2b068fc378daa952ba7f163c4a11628f55a4df523b3ef83604051611a2491815260200190565b60405180910390a3505050565b6001600160a01b038216600090815260208190526040902054811115611aa45760405162461bcd60e51b815260206004820152602260248201527f45524332303a206275726e20616d6f756e7420657863656564732062616c616e604482015261636560f01b6064820152608401610348565b8060046000828254611ab69190611dbf565b90915550506001600160a01b03821660009081526020819052604081208054839290611ae3908490611dbf565b90915550506040518181526000906001600160a01b038416907fddf252ad1be2c89b69c2b068fc378daa952ba7f163c4a11628f55a4df523b3ef906020015b60405180910390a35050565b6000818310611b3d5781611b3f565b825b9392505050565b8060046000828254611b589190611ea5565b90915550506001600160a01b03821660009081526020819052604081208054839290611b85908490611ea5565b90915550506040518181526001600160a01b038316906000907fddf252ad1be2c89b69c2b068fc378daa952ba7f163c4a11628f55a4df523b3ef90602001611b22565b60005b83811015611be3578181015183820152602001611bcb565b83811115611bf2576000848401525b50505050565b60008151808452611c10816020860160208601611bc8565b601f01601f19169290920160200192915050565b602081526000611b3f6020830184611bf8565b80356001600160a01b0381168114611c4e57600080fd5b919050565b60008060408385031215611c6657600080fd5b611c6f83611c37565b946020939093013593505050565b600080600060608486031215611c9257600080fd5b611c9b84611c37565b9250611ca960208501611c37565b9150604084013590509250925092565b600060208284031215611ccb57600080fd5b611b3f82611c37565b600060208284031215611ce657600080fd5b5035919050565b60008060408385031215611d0057600080fd5b50508035926020909101359150565b60c081526000611d2260c0830189611bf8565b8281036020840152611d348189611bf8565b90508660408401528281036060840152611d4e8187611bf8565b90508281036080840152611d628186611bf8565b9150508260a0830152979650505050505050565b60008060408385031215611d8957600080fd5b611d9283611c37565b9150611da060208401611c37565b90509250929050565b634e487b7160e01b600052601160045260246000fd5b600082821015611dd157611dd1611da9565b500390565b600060208284031215611de857600080fd5b5051919050565b6000816000190483118215151615611e0957611e09611da9565b500290565b600082611e2b57634e487b7160e01b600052601260045260246000fd5b500490565b600060208284031215611e4257600080fd5b81518015158114611b3f57600080fd5b602080825260159082015274151bdad95b881d1c985b9cd9995c8819985a5b1959605a1b604082015260600190565b6001600160a01b039384168152919092166020820152604081019190915260600190565b60008219821115611eb857611eb8611da9565b500190565b634e487b7160e01b600052604160045260246000fd5b600060208284031215611ee557600080fd5b815167ffffffffffffffff80821115611efd57600080fd5b818401915084601f830112611f1157600080fd5b815181811115611f2357611f23611ebd565b604051601f8201601f19908116603f01168101908382118183101715611f4b57611f4b611ebd565b81604052828152876020848701011115611f6457600080fd5b611f75836020830160208801611bc8565b97965050505050505056fea2646970667358221220827ebf34d89226bea4b8b95a4fbad8ac850a11eca9050ab341ed066a89d31aac64736f6c634300080c0033a26469706673582212200986f27087b9410bac0e63de0b9e00ed1e8062d4717262101553350b40d0a5e764736f6c634300080c0033",
  "immutableReferences": {},
  "source": "// SPDX-License-Identifier: MIT\npragma solidity ^0.8.0;\n\nimport \"./LiquidityPool.sol\";\n\ncontract LiquidityPoolFactory {\n    address[] public tokens;\n    mapping(address => uint) public tokenIndex;\n\n    mapping(address => mapping(address => address)) public pools;\n    mapping(address => address[]) public tokenToPools;\n    address[][] public allPairs;\n\n    mapping(uint => address) public allPools;\n    uint public poolCount = 0;\n\n    event LiquidityPoolCreated(\n        address indexed tokenA,\n        address indexed tokenB,\n        address pool\n    );\n\n    function createLiquidityPool(address tokenA, address tokenB) external {\n        require(tokenA != tokenB, \"Tokens must be different\");\n        require(!hasPool(tokenA, tokenB), \"Pool already exists\");\n\n        address newPool = address(new LiquidityPool(tokenA, tokenB));\n        pools[tokenA][tokenB] = newPool;\n        pools[tokenB][tokenA] = newPool;\n        tokenToPools[tokenA].push(newPool);\n        tokenToPools[tokenB].push(newPool);\n        allPools[poolCount] = newPool;\n        poolCount += 1;\n        address[] memory pair = new address[](2);\n        pair[0] = tokenA;\n        pair[1] = tokenB;\n        allPairs.push(pair);\n\n        if (!tokenExists(tokenA)) {\n            addToken(tokenA);\n        }\n\n        if (!tokenExists(tokenB)) {\n            addToken(tokenB);\n        }\n\n        emit LiquidityPoolCreated(tokenA, tokenB, newPool);\n    }\n\n    function getLiquidityPool(\n        address tokenA,\n        address tokenB\n    ) external view returns (address) {\n        return pools[tokenA][tokenB];\n    }\n\n    function addToken(address token) internal {\n        require(!tokenExists(token), \"Token already exists\");\n        tokens.push(token);\n        tokenIndex[token] = tokens.length - 1;\n    }\n\n    function tokenExists(address token) internal view returns (bool) {\n        return\n            tokenIndex[token] > 0 ||\n            (tokenIndex[token] == 0 && tokens.length > 0 && tokens[0] == token);\n    }\n\n    function hasPool(\n        address tokenA,\n        address tokenB\n    ) public view returns (bool) {\n        return pools[tokenA][tokenB] != address(0);\n    }\n\n    function getTokensCount() public view returns (uint256) {\n        return tokens.length;\n    }\n\n    function getPairsCount() public view returns (uint256) {\n        return allPairs.length;\n    }\n\n    function getAllPairings() external view returns (address[][] memory) {\n        return allPairs;\n    }\n\n    function getAllTokens() external view returns (address[] memory _tokens) {\n        _tokens = new address[](tokens.length);\n\n        for (uint i = 0; i < tokens.length; i++) {\n            _tokens[i] = tokens[i];\n        }\n    }\n\n    function getAllPools() external view returns (address[] memory _pools) {\n        _pools = new address[](poolCount);\n\n        for (uint i = 0; i < poolCount; i++) {\n            _pools[i] = allPools[i];\n        }\n    }\n\n    function getTokenPools(\n        address token\n    ) public view returns (address[] memory) {\n        return tokenToPools[token];\n    }\n}\n",
  "sourcePath": "C:\\Users\\surge\\Desktop\\dapp-projects\\liquidip\\contracts\\LiquidityPoolFactory.sol",
  "compiler": {
    "name": "solc",
    "version": "0.8.12+commit.f00d7308.Emscripten.clang"
  },
  "schemaVersion": "3.4.15",
  "updatedAt": "2023-08-27T21:07:42.811Z",
  "devdoc": {
    "kind": "dev",
    "methods": {},
    "version": 1
  },
  "userdoc": {
    "kind": "user",
    "methods": {},
    "version": 1
  }
}