{
  "contractName": "LiquidityPool",
  "abi": [
    {
      "inputs": [
        {
          "internalType": "address",
          "name": "_token0",
          "type": "address"
        },
        {
          "internalType": "address",
          "name": "_token1",
          "type": "address"
        }
      ],
      "stateMutability": "nonpayable",
      "type": "constructor"
    },
    {
      "anonymous": false,
      "inputs": [
        {
          "indexed": true,
          "internalType": "address",
          "name": "from",
          "type": "address"
        },
        {
          "indexed": true,
          "internalType": "address",
          "name": "to",
          "type": "address"
        },
        {
          "indexed": false,
          "internalType": "uint256",
          "name": "amount",
          "type": "uint256"
        }
      ],
      "name": "Approval",
      "type": "event"
    },
    {
      "anonymous": false,
      "inputs": [
        {
          "indexed": true,
          "internalType": "address",
          "name": "borrower",
          "type": "address"
        },
        {
          "indexed": true,
          "internalType": "address",
          "name": "token",
          "type": "address"
        },
        {
          "indexed": false,
          "internalType": "uint256",
          "name": "amount",
          "type": "uint256"
        },
        {
          "indexed": false,
          "internalType": "uint256",
          "name": "fee",
          "type": "uint256"
        }
      ],
      "name": "FlashLoan",
      "type": "event"
    },
    {
      "anonymous": false,
      "inputs": [
        {
          "indexed": true,
          "internalType": "address",
          "name": "user",
          "type": "address"
        },
        {
          "indexed": false,
          "internalType": "uint256",
          "name": "amount",
          "type": "uint256"
        }
      ],
      "name": "LiquidityAdded",
      "type": "event"
    },
    {
      "anonymous": false,
      "inputs": [
        {
          "indexed": true,
          "internalType": "address",
          "name": "user",
          "type": "address"
        },
        {
          "indexed": false,
          "internalType": "uint256",
          "name": "lpAmount",
          "type": "uint256"
        }
      ],
      "name": "LiquidityRemoved",
      "type": "event"
    },
    {
      "anonymous": false,
      "inputs": [
        {
          "indexed": true,
          "internalType": "address",
          "name": "user",
          "type": "address"
        },
        {
          "indexed": false,
          "internalType": "uint256",
          "name": "amountIn",
          "type": "uint256"
        },
        {
          "indexed": false,
          "internalType": "uint256",
          "name": "amountOut",
          "type": "uint256"
        }
      ],
      "name": "TokensSwapped",
      "type": "event"
    },
    {
      "anonymous": false,
      "inputs": [
        {
          "indexed": true,
          "internalType": "address",
          "name": "from",
          "type": "address"
        },
        {
          "indexed": true,
          "internalType": "address",
          "name": "to",
          "type": "address"
        },
        {
          "indexed": false,
          "internalType": "uint256",
          "name": "amount",
          "type": "uint256"
        }
      ],
      "name": "Transfer",
      "type": "event"
    },
    {
      "inputs": [
        {
          "internalType": "address",
          "name": "",
          "type": "address"
        },
        {
          "internalType": "address",
          "name": "",
          "type": "address"
        }
      ],
      "name": "allowance",
      "outputs": [
        {
          "internalType": "uint256",
          "name": "",
          "type": "uint256"
        }
      ],
      "stateMutability": "view",
      "type": "function"
    },
    {
      "inputs": [
        {
          "internalType": "address",
          "name": "_spender",
          "type": "address"
        },
        {
          "internalType": "uint256",
          "name": "_value",
          "type": "uint256"
        }
      ],
      "name": "approve",
      "outputs": [
        {
          "internalType": "bool",
          "name": "success",
          "type": "bool"
        }
      ],
      "stateMutability": "nonpayable",
      "type": "function"
    },
    {
      "inputs": [
        {
          "internalType": "address",
          "name": "",
          "type": "address"
        }
      ],
      "name": "balanceOf",
      "outputs": [
        {
          "internalType": "uint256",
          "name": "",
          "type": "uint256"
        }
      ],
      "stateMutability": "view",
      "type": "function"
    },
    {
      "inputs": [],
      "name": "decimals",
      "outputs": [
        {
          "internalType": "uint8",
          "name": "",
          "type": "uint8"
        }
      ],
      "stateMutability": "view",
      "type": "function"
    },
    {
      "inputs": [],
      "name": "name",
      "outputs": [
        {
          "internalType": "string",
          "name": "",
          "type": "string"
        }
      ],
      "stateMutability": "view",
      "type": "function"
    },
    {
      "inputs": [],
      "name": "symbol",
      "outputs": [
        {
          "internalType": "string",
          "name": "",
          "type": "string"
        }
      ],
      "stateMutability": "view",
      "type": "function"
    },
    {
      "inputs": [],
      "name": "token0",
      "outputs": [
        {
          "internalType": "contract IERC20",
          "name": "",
          "type": "address"
        }
      ],
      "stateMutability": "view",
      "type": "function"
    },
    {
      "inputs": [],
      "name": "token1",
      "outputs": [
        {
          "internalType": "contract IERC20",
          "name": "",
          "type": "address"
        }
      ],
      "stateMutability": "view",
      "type": "function"
    },
    {
      "inputs": [],
      "name": "totalSupply",
      "outputs": [
        {
          "internalType": "uint256",
          "name": "",
          "type": "uint256"
        }
      ],
      "stateMutability": "view",
      "type": "function"
    },
    {
      "inputs": [
        {
          "internalType": "address",
          "name": "_to",
          "type": "address"
        },
        {
          "internalType": "uint256",
          "name": "_amount",
          "type": "uint256"
        }
      ],
      "name": "transfer",
      "outputs": [
        {
          "internalType": "bool",
          "name": "",
          "type": "bool"
        }
      ],
      "stateMutability": "nonpayable",
      "type": "function"
    },
    {
      "inputs": [
        {
          "internalType": "address",
          "name": "_from",
          "type": "address"
        },
        {
          "internalType": "address",
          "name": "_to",
          "type": "address"
        },
        {
          "internalType": "uint256",
          "name": "_amount",
          "type": "uint256"
        }
      ],
      "name": "transferFrom",
      "outputs": [
        {
          "internalType": "bool",
          "name": "",
          "type": "bool"
        }
      ],
      "stateMutability": "nonpayable",
      "type": "function"
    },
    {
      "inputs": [
        {
          "internalType": "uint256",
          "name": "amountToken0",
          "type": "uint256"
        },
        {
          "internalType": "uint256",
          "name": "amountToken1",
          "type": "uint256"
        }
      ],
      "name": "addLiquidity",
      "outputs": [],
      "stateMutability": "nonpayable",
      "type": "function"
    },
    {
      "inputs": [
        {
          "internalType": "uint256",
          "name": "lpAmount",
          "type": "uint256"
        }
      ],
      "name": "removeLiquidity",
      "outputs": [],
      "stateMutability": "nonpayable",
      "type": "function"
    },
    {
      "inputs": [],
      "name": "getPoolDetails",
      "outputs": [
        {
          "internalType": "string",
          "name": "",
          "type": "string"
        },
        {
          "internalType": "string",
          "name": "",
          "type": "string"
        },
        {
          "internalType": "uint256",
          "name": "",
          "type": "uint256"
        },
        {
          "internalType": "string",
          "name": "",
          "type": "string"
        },
        {
          "internalType": "string",
          "name": "",
          "type": "string"
        },
        {
          "internalType": "uint256",
          "name": "",
          "type": "uint256"
        }
      ],
      "stateMutability": "view",
      "type": "function"
    },
    {
      "inputs": [
        {
          "internalType": "address",
          "name": "tokenIn",
          "type": "address"
        },
        {
          "internalType": "address",
          "name": "tokenOut",
          "type": "address"
        },
        {
          "internalType": "uint256",
          "name": "amountIn",
          "type": "uint256"
        }
      ],
      "name": "swapTokens",
      "outputs": [
        {
          "internalType": "uint256",
          "name": "",
          "type": "uint256"
        }
      ],
      "stateMutability": "nonpayable",
      "type": "function"
    },
    {
      "inputs": [
        {
          "internalType": "address",
          "name": "tokenIn",
          "type": "address"
        },
        {
          "internalType": "address",
          "name": "tokenOut",
          "type": "address"
        },
        {
          "internalType": "uint256",
          "name": "amountIn",
          "type": "uint256"
        }
      ],
      "name": "getAmountOut",
      "outputs": [
        {
          "internalType": "uint256",
          "name": "",
          "type": "uint256"
        }
      ],
      "stateMutability": "view",
      "type": "function"
    },
    {
      "inputs": [
        {
          "internalType": "address",
          "name": "borrower",
          "type": "address"
        },
        {
          "internalType": "address",
          "name": "token",
          "type": "address"
        },
        {
          "internalType": "uint256",
          "name": "amount",
          "type": "uint256"
        }
      ],
      "name": "flashLoan",
      "outputs": [],
      "stateMutability": "nonpayable",
      "type": "function"
    }
  ],
  "bytecode": "0x60806040523480156200001157600080fd5b506040516200208138038062002081833981016040819052620000349162000083565b600280546001600160a01b039384166001600160a01b03199182161790915560038054929093169116179055620000bb565b80516001600160a01b03811681146200007e57600080fd5b919050565b600080604083850312156200009757600080fd5b620000a28362000066565b9150620000b26020840162000066565b90509250929050565b611fb680620000cb6000396000f3fe608060405234801561001057600080fd5b506004361061010b5760003560e01c806395d89b41116100a2578063a9059cbb11610071578063a9059cbb1461027b578063aca34c111461028e578063d21220a7146102a8578063dd62ed3e146102bb578063ec6cc0cc146102e657600080fd5b806395d89b411461021e5780639c8f9f23146102405780639cd441da146102555780639d9638a11461026857600080fd5b806323b872dd116100de57806323b872dd146101be578063313ce567146101d15780634aa06652146101eb57806370a08231146101fe57600080fd5b806306fdde0314610110578063095ea7b3146101595780630dfe16811461017c57806318160ddd146101a7575b600080fd5b610143604051806040016040528060148152602001732634b8bab4b234ba3c902837b7b6102a37b5b2b760611b81525081565b6040516101509190611c24565b60405180910390f35b61016c610167366004611c53565b6102f9565b6040519015158152602001610150565b60025461018f906001600160a01b031681565b6040516001600160a01b039091168152602001610150565b6101b060045481565b604051908152602001610150565b61016c6101cc366004611c7d565b6103b5565b6101d9601281565b60405160ff9091168152602001610150565b6101b06101f9366004611c7d565b61047d565b6101b061020c366004611cb9565b60006020819052908152604090205481565b6101436040518060400160405280600381526020016213141560ea1b81525081565b61025361024e366004611cd4565b6106b9565b005b610253610263366004611ced565b61098d565b610253610276366004611c7d565b610d19565b61016c610289366004611c53565b6110bb565b6102966110d1565b60405161015096959493929190611d0f565b60035461018f906001600160a01b031681565b6101b06102c9366004611d76565b600160209081526000928352604080842090915290825290205481565b6101b06102f4366004611c7d565b6113b2565b336000908152602081905260408120548211156103515760405162461bcd60e51b81526020600482015260116024820152704e6f7420656e6f75676820746f6b656e7360781b60448201526064015b60405180910390fd5b3360008181526001602090815260408083206001600160a01b03881680855290835292819020869055518581529192917f8c5be1e5ebec7d5bd14f71427d1e84f3dd0314c0f7b2291e5b200ac8c7c3b925910160405180910390a350600192915050565b6001600160a01b03808416600090815260016020908152604080832093861683529290529081205482111561042c5760405162461bcd60e51b815260206004820152601f60248201527f4e6f7420616c6c6f77656420746f2073656e64207468697320616d6f756e74006044820152606401610348565b610437848484611855565b6001600160a01b0380851660009081526001602090815260408083209387168352929052908120805484929061046e908490611dbf565b90915550600195945050505050565b60025460009081906001600160a01b03868116911614610508576003546040516370a0823160e01b81523060048201526001600160a01b03909116906370a0823190602401602060405180830381865afa1580156104df573d6000803e3d6000fd5b505050506040513d601f19601f820116820180604052508101906105039190611dd6565b610574565b6002546040516370a0823160e01b81523060048201526001600160a01b03909116906370a0823190602401602060405180830381865afa158015610550573d6000803e3d6000fd5b505050506040513d601f19601f820116820180604052508101906105749190611dd6565b6002549091506000906001600160a01b03868116911614610600576003546040516370a0823160e01b81523060048201526001600160a01b03909116906370a0823190602401602060405180830381865afa1580156105d7573d6000803e3d6000fd5b505050506040513d601f19601f820116820180604052508101906105fb9190611dd6565b61066c565b6002546040516370a0823160e01b81523060048201526001600160a01b03909116906370a0823190602401602060405180830381865afa158015610648573d6000803e3d6000fd5b505050506040513d601f19601f8201168201806040525081019061066c9190611dd6565b905060008261067b8387611def565b6106859190611e0e565b905060006103e8610697836003611def565b6106a19190611e0e565b90506106ad8183611dbf565b98975050505050505050565b6004546106c63383611a31565b6002546040516370a0823160e01b81523060048201526000916001600160a01b0316906370a0823190602401602060405180830381865afa15801561070f573d6000803e3d6000fd5b505050506040513d601f19601f820116820180604052508101906107339190611dd6565b6003546040516370a0823160e01b81523060048201529192506000916001600160a01b03909116906370a0823190602401602060405180830381865afa158015610781573d6000803e3d6000fd5b505050506040513d601f19601f820116820180604052508101906107a59190611dd6565b90506000836107b48487611def565b6107be9190611e0e565b90506000846107cd8488611def565b6107d79190611e0e565b90506000821180156107e95750600081115b61082e5760405162461bcd60e51b8152602060048201526016602482015275496e73756666696369656e74206c697175696469747960501b6044820152606401610348565b60025460405163a9059cbb60e01b8152336004820152602481018490526001600160a01b039091169063a9059cbb906044016020604051808303816000875af115801561087f573d6000803e3d6000fd5b505050506040513d601f19601f820116820180604052508101906108a39190611e30565b6108bf5760405162461bcd60e51b815260040161034890611e52565b60035460405163a9059cbb60e01b8152336004820152602481018390526001600160a01b039091169063a9059cbb906044016020604051808303816000875af1158015610910573d6000803e3d6000fd5b505050506040513d601f19601f820116820180604052508101906109349190611e30565b6109505760405162461bcd60e51b815260040161034890611e52565b60405186815233907fc2c3f06e49b9f15e7b4af9055e183b0d73362e033ad82a07dec9bf98401717199060200160405180910390a2505050505050565b60008211801561099d5750600081115b6109e95760405162461bcd60e51b815260206004820152601e60248201527f416d6f756e7473206d7573742062652067726561746572207468616e203000006044820152606401610348565b6002546040516323b872dd60e01b81526001600160a01b03909116906323b872dd90610a1d90339030908790600401611e81565b6020604051808303816000875af1158015610a3c573d6000803e3d6000fd5b505050506040513d601f19601f82011682018060405250810190610a609190611e30565b610aa55760405162461bcd60e51b8152602060048201526016602482015275151bdad95b8c081d1c985b9cd9995c8819985a5b195960521b6044820152606401610348565b6003546040516323b872dd60e01b81526001600160a01b03909116906323b872dd90610ad990339030908690600401611e81565b6020604051808303816000875af1158015610af8573d6000803e3d6000fd5b505050506040513d601f19601f82011682018060405250810190610b1c9190611e30565b610b615760405162461bcd60e51b8152602060048201526016602482015275151bdad95b8c481d1c985b9cd9995c8819985a5b195960521b6044820152606401610348565b600454600081610b89576107d0610b788486611ea5565b610b829190611e0e565b9050610cd4565b6002546040516370a0823160e01b81523060048201526000916001600160a01b0316906370a0823190602401602060405180830381865afa158015610bd2573d6000803e3d6000fd5b505050506040513d601f19601f82011682018060405250810190610bf69190611dd6565b6003546040516370a0823160e01b81523060048201529192506000916001600160a01b03909116906370a0823190602401602060405180830381865afa158015610c44573d6000803e3d6000fd5b505050506040513d601f19601f82011682018060405250810190610c689190611dd6565b9050600082610c778689611def565b610c819190611e0e565b9050600082610c908789611def565b610c9a9190611e0e565b90506000610ca88383611b2e565b90506107d088610cb88b84611ea5565b610cc29190611ea5565b610ccc9190611e0e565b955050505050505b610cde3382611b46565b60405181815233907fc17cea59c2955cb181b03393209566960365771dbba9dc3d510180e7cb3120889060200160405180910390a250505050565b6002546001600160a01b0383811691161480610d4257506003546001600160a01b038381169116145b610d875760405162461bcd60e51b8152602060048201526016602482015275151bdad95b881b9bdd081a5b881d1a1a5cc81c1bdbdb60521b6044820152606401610348565b6040516370a0823160e01b81523060048201526000906001600160a01b038416906370a0823190602401602060405180830381865afa158015610dce573d6000803e3d6000fd5b505050506040513d601f19601f82011682018060405250810190610df29190611dd6565b905081811015610e445760405162461bcd60e51b815260206004820152601c60248201527f4e6f7420656e6f756768206c697175696469747920696e20706f6f6c000000006044820152606401610348565b6000612710610e54846005611def565b610e5e9190611e0e565b60405163a9059cbb60e01b81526001600160a01b038781166004830152602482018690529192509085169063a9059cbb906044016020604051808303816000875af1158015610eb1573d6000803e3d6000fd5b505050506040513d601f19601f82011682018060405250810190610ed59190611e30565b610f215760405162461bcd60e51b815260206004820152601960248201527f436f756c64206e6f74207472616e7366657220746f6b656e73000000000000006044820152606401610348565b6040516332978f7960e01b815260048101849052602481018290523060448201526001600160a01b038616906332978f7990606401600060405180830381600087803b158015610f7057600080fd5b505af1158015610f84573d6000803e3d6000fd5b50506040516370a0823160e01b8152306004820152600092506001600160a01b03871691506370a0823190602401602060405180830381865afa158015610fcf573d6000803e3d6000fd5b505050506040513d601f19601f82011682018060405250810190610ff39190611dd6565b9050610fff8284611ea5565b81101561105d5760405162461bcd60e51b815260206004820152602660248201527f466c617368206c6f616e206861736e2774206265656e2072657061696420776960448201526574682066656560d01b6064820152608401610348565b846001600160a01b0316866001600160a01b03167f0d7d75e01ab95780d3cd1c8ec0dd6c2ce19e3a20427eec8bf53283b6fb8e95f086856040516110ab929190918252602082015260400190565b60405180910390a3505050505050565b60006110c8338484611855565b50600192915050565b60608060006060806000600260009054906101000a90046001600160a01b03166001600160a01b03166306fdde036040518163ffffffff1660e01b8152600401600060405180830381865afa15801561112e573d6000803e3d6000fd5b505050506040513d6000823e601f3d908101601f191682016040526111569190810190611ed3565b600260009054906101000a90046001600160a01b03166001600160a01b03166395d89b416040518163ffffffff1660e01b8152600401600060405180830381865afa1580156111a9573d6000803e3d6000fd5b505050506040513d6000823e601f3d908101601f191682016040526111d19190810190611ed3565b6002546040516370a0823160e01b81523060048201526001600160a01b03909116906370a0823190602401602060405180830381865afa158015611219573d6000803e3d6000fd5b505050506040513d601f19601f8201168201806040525081019061123d9190611dd6565b600360009054906101000a90046001600160a01b03166001600160a01b03166306fdde036040518163ffffffff1660e01b8152600401600060405180830381865afa158015611290573d6000803e3d6000fd5b505050506040513d6000823e601f3d908101601f191682016040526112b89190810190611ed3565b600360009054906101000a90046001600160a01b03166001600160a01b03166395d89b416040518163ffffffff1660e01b8152600401600060405180830381865afa15801561130b573d6000803e3d6000fd5b505050506040513d6000823e601f3d908101601f191682016040526113339190810190611ed3565b6003546040516370a0823160e01b81523060048201526001600160a01b03909116906370a0823190602401602060405180830381865afa15801561137b573d6000803e3d6000fd5b505050506040513d601f19601f8201168201806040525081019061139f9190611dd6565b949b939a50919850965094509092509050565b6002546000906001600160a01b03858116911614806113de57506003546001600160a01b038581169116145b6114205760405162461bcd60e51b815260206004820152601360248201527224b73b30b634b21034b7383aba103a37b5b2b760691b6044820152606401610348565b6002546001600160a01b038481169116148061144957506003546001600160a01b038481169116145b61148c5760405162461bcd60e51b815260206004820152601460248201527324b73b30b634b21037baba383aba103a37b5b2b760611b6044820152606401610348565b826001600160a01b0316846001600160a01b031614156115005760405162461bcd60e51b815260206004820152602960248201527f496e70757420616e64206f757470757420746f6b656e73206d75737420626520604482015268191a5999995c995b9d60ba1b6064820152608401610348565b600082116115505760405162461bcd60e51b815260206004820152601d60248201527f416d6f756e74206d7573742062652067726561746572207468616e20300000006044820152606401610348565b600061155d85858561047d565b9050600081116115af5760405162461bcd60e51b815260206004820152601d60248201527f416d6f756e74206d7573742062652067726561746572207468616e20300000006044820152606401610348565b6002546001600160a01b03868116911614156116ee576002546040516323b872dd60e01b81526001600160a01b03909116906323b872dd906115f990339030908890600401611e81565b6020604051808303816000875af1158015611618573d6000803e3d6000fd5b505050506040513d601f19601f8201168201806040525081019061163c9190611e30565b6116585760405162461bcd60e51b815260040161034890611e52565b60035460405163a9059cbb60e01b8152336004820152602481018390526001600160a01b039091169063a9059cbb906044016020604051808303816000875af11580156116a9573d6000803e3d6000fd5b505050506040513d601f19601f820116820180604052508101906116cd9190611e30565b6116e95760405162461bcd60e51b815260040161034890611e52565b611812565b6003546040516323b872dd60e01b81526001600160a01b03909116906323b872dd9061172290339030908890600401611e81565b6020604051808303816000875af1158015611741573d6000803e3d6000fd5b505050506040513d601f19601f820116820180604052508101906117659190611e30565b6117815760405162461bcd60e51b815260040161034890611e52565b60025460405163a9059cbb60e01b8152336004820152602481018390526001600160a01b039091169063a9059cbb906044016020604051808303816000875af11580156117d2573d6000803e3d6000fd5b505050506040513d601f19601f820116820180604052508101906117f69190611e30565b6118125760405162461bcd60e51b815260040161034890611e52565b604080518481526020810183905233917f18704ae982dcd24a1beeeed3ecf045ab0520d7b7519b97adf3e4f40bf7efe339910160405180910390a2949350505050565b6001600160a01b0383166118b95760405162461bcd60e51b815260206004820152602560248201527f45524332303a207472616e736665722066726f6d20746865207a65726f206164604482015264647265737360d81b6064820152608401610348565b6001600160a01b03821661191b5760405162461bcd60e51b815260206004820152602360248201527f45524332303a207472616e7366657220746f20746865207a65726f206164647260448201526265737360e81b6064820152608401610348565b6001600160a01b0383166000908152602081905260409020548111156119835760405162461bcd60e51b815260206004820152601f60248201527f42616c616e6365206f662073656e646572206973206e6f7420656e6f756768006044820152606401610348565b6001600160a01b038316600090815260208190526040812080548392906119ab908490611dbf565b90915550506001600160a01b038216600090815260208190526040812080548392906119d8908490611ea5565b92505081905550816001600160a01b0316836001600160a01b03167fddf252ad1be2c89b69c2b068fc378daa952ba7f163c4a11628f55a4df523b3ef83604051611a2491815260200190565b60405180910390a3505050565b6001600160a01b038216600090815260208190526040902054811115611aa45760405162461bcd60e51b815260206004820152602260248201527f45524332303a206275726e20616d6f756e7420657863656564732062616c616e604482015261636560f01b6064820152608401610348565b8060046000828254611ab69190611dbf565b90915550506001600160a01b03821660009081526020819052604081208054839290611ae3908490611dbf565b90915550506040518181526000906001600160a01b038416907fddf252ad1be2c89b69c2b068fc378daa952ba7f163c4a11628f55a4df523b3ef906020015b60405180910390a35050565b6000818310611b3d5781611b3f565b825b9392505050565b8060046000828254611b589190611ea5565b90915550506001600160a01b03821660009081526020819052604081208054839290611b85908490611ea5565b90915550506040518181526001600160a01b038316906000907fddf252ad1be2c89b69c2b068fc378daa952ba7f163c4a11628f55a4df523b3ef90602001611b22565b60005b83811015611be3578181015183820152602001611bcb565b83811115611bf2576000848401525b50505050565b60008151808452611c10816020860160208601611bc8565b601f01601f19169290920160200192915050565b602081526000611b3f6020830184611bf8565b80356001600160a01b0381168114611c4e57600080fd5b919050565b60008060408385031215611c6657600080fd5b611c6f83611c37565b946020939093013593505050565b600080600060608486031215611c9257600080fd5b611c9b84611c37565b9250611ca960208501611c37565b9150604084013590509250925092565b600060208284031215611ccb57600080fd5b611b3f82611c37565b600060208284031215611ce657600080fd5b5035919050565b60008060408385031215611d0057600080fd5b50508035926020909101359150565b60c081526000611d2260c0830189611bf8565b8281036020840152611d348189611bf8565b90508660408401528281036060840152611d4e8187611bf8565b90508281036080840152611d628186611bf8565b9150508260a0830152979650505050505050565b60008060408385031215611d8957600080fd5b611d9283611c37565b9150611da060208401611c37565b90509250929050565b634e487b7160e01b600052601160045260246000fd5b600082821015611dd157611dd1611da9565b500390565b600060208284031215611de857600080fd5b5051919050565b6000816000190483118215151615611e0957611e09611da9565b500290565b600082611e2b57634e487b7160e01b600052601260045260246000fd5b500490565b600060208284031215611e4257600080fd5b81518015158114611b3f57600080fd5b602080825260159082015274151bdad95b881d1c985b9cd9995c8819985a5b1959605a1b604082015260600190565b6001600160a01b039384168152919092166020820152604081019190915260600190565b60008219821115611eb857611eb8611da9565b500190565b634e487b7160e01b600052604160045260246000fd5b600060208284031215611ee557600080fd5b815167ffffffffffffffff80821115611efd57600080fd5b818401915084601f830112611f1157600080fd5b815181811115611f2357611f23611ebd565b604051601f8201601f19908116603f01168101908382118183101715611f4b57611f4b611ebd565b81604052828152876020848701011115611f6457600080fd5b611f75836020830160208801611bc8565b97965050505050505056fea2646970667358221220827ebf34d89226bea4b8b95a4fbad8ac850a11eca9050ab341ed066a89d31aac64736f6c634300080c0033",
  "immutableReferences": {},
  "source": "// SPDX-License-Identifier: MIT\r\npragma solidity ^0.8.0;\r\n\r\nimport \"./IERC20.sol\";\r\nimport \"./ERC20.sol\";\r\nimport \"./IFlashLoanReceiver.sol\";\r\n\r\ncontract LiquidityPool is ERC20 {\r\n    IERC20 public token0;\r\n    IERC20 public token1;\r\n\r\n    string public constant name = \"Liquidity Pool Token\";\r\n    string public constant symbol = \"LPT\";\r\n    uint8 public constant decimals = 18;\r\n    uint256 public totalSupply;\r\n\r\n    event LiquidityAdded(address indexed user, uint256 amount);\r\n    event LiquidityRemoved(address indexed user, uint256 lpAmount);\r\n    event TokensSwapped(\r\n        address indexed user,\r\n        uint256 amountIn,\r\n        uint256 amountOut\r\n    );\r\n\r\n    event FlashLoan(\r\n        address indexed borrower,\r\n        address indexed token,\r\n        uint amount,\r\n        uint fee\r\n    );\r\n\r\n    constructor(address _token0, address _token1) {\r\n        token0 = IERC20(_token0);\r\n        token1 = IERC20(_token1);\r\n    }\r\n\r\n    function addLiquidity(uint amountToken0, uint amountToken1) external {\r\n        require(\r\n            amountToken0 > 0 && amountToken1 > 0,\r\n            \"Amounts must be greater than 0\"\r\n        );\r\n        require(\r\n            token0.transferFrom(msg.sender, address(this), amountToken0),\r\n            \"Token0 transfer failed\"\r\n        );\r\n        require(\r\n            token1.transferFrom(msg.sender, address(this), amountToken1),\r\n            \"Token1 transfer failed\"\r\n        );\r\n        // uint totalLiquidity = totalSupply == 0\r\n        //     ? sqrt(amountToken0 * amountToken1)\r\n        //     : totalSupply;\r\n\r\n        uint256 _totalSupply = totalSupply; // for gas optimization\r\n        uint256 lpTokenAmount;\r\n\r\n        if (_totalSupply == 0) {\r\n            lpTokenAmount = (amountToken0 + amountToken1) / 2000;\r\n        } else {\r\n            uint256 token0Reserve = token0.balanceOf(address(this));\r\n            uint256 token1Reserve = token1.balanceOf(address(this));\r\n\r\n            // Calculate the LP tokens for each input based on the reserves\r\n            uint256 lpTokenAmountForToken0 = (amountToken0 * _totalSupply) /\r\n                token0Reserve;\r\n            uint256 lpTokenAmountForToken1 = (amountToken1 * _totalSupply) /\r\n                token1Reserve;\r\n\r\n            // The LP tokens issued is the lesser of the two values to maintain the ratio\r\n            uint256 liquidityBasedOnReserves = min(\r\n                lpTokenAmountForToken0,\r\n                lpTokenAmountForToken1\r\n            );\r\n\r\n            lpTokenAmount =\r\n                (liquidityBasedOnReserves + amountToken0 + amountToken1) /\r\n                2000;\r\n        }\r\n\r\n        _mint(msg.sender, lpTokenAmount);\r\n        emit LiquidityAdded(msg.sender, lpTokenAmount);\r\n    }\r\n\r\n    function removeLiquidity(uint256 lpAmount) external {\r\n        uint256 _totalSupply = totalSupply;\r\n        _burn(msg.sender, lpAmount);\r\n\r\n        uint256 token0Reserve = token0.balanceOf(address(this));\r\n        uint256 token1Reserve = token1.balanceOf(address(this));\r\n\r\n        uint256 token0Amount = (lpAmount * token0Reserve) / _totalSupply;\r\n        uint256 token1Amount = (lpAmount * token1Reserve) / _totalSupply;\r\n\r\n        require(token0Amount > 0 && token1Amount > 0, \"Insufficient liquidity\");\r\n        require(\r\n            token0.transfer(msg.sender, token0Amount),\r\n            \"Token transfer failed\"\r\n        );\r\n        require(\r\n            token1.transfer(msg.sender, token1Amount),\r\n            \"Token transfer failed\"\r\n        );\r\n        emit LiquidityRemoved(msg.sender, lpAmount);\r\n    }\r\n\r\n    function getPoolDetails()\r\n        external\r\n        view\r\n        returns (\r\n            string memory,\r\n            string memory,\r\n            uint,\r\n            string memory,\r\n            string memory,\r\n            uint\r\n        )\r\n    {\r\n        return (\r\n            token0.name(),\r\n            token0.symbol(),\r\n            token0.balanceOf(address(this)),\r\n            token1.name(),\r\n            token1.symbol(),\r\n            token1.balanceOf(address(this))\r\n        );\r\n    }\r\n\r\n    function swapTokens(\r\n        address tokenIn,\r\n        address tokenOut,\r\n        uint amountIn\r\n    ) external returns (uint) {\r\n        require(\r\n            tokenIn == address(token0) || tokenIn == address(token1),\r\n            \"Invalid input token\"\r\n        );\r\n        require(\r\n            tokenOut == address(token0) || tokenOut == address(token1),\r\n            \"Invalid output token\"\r\n        );\r\n        require(\r\n            tokenIn != tokenOut,\r\n            \"Input and output tokens must be different\"\r\n        );\r\n        require(amountIn > 0, \"Amount must be greater than 0\");\r\n\r\n        uint amountOut = getAmountOut(tokenIn, tokenOut, amountIn);\r\n        require(amountOut > 0, \"Amount must be greater than 0\");\r\n\r\n        if (tokenIn == address(token0)) {\r\n            require(\r\n                token0.transferFrom(msg.sender, address(this), amountIn),\r\n                \"Token transfer failed\"\r\n            );\r\n            require(\r\n                token1.transfer(msg.sender, amountOut),\r\n                \"Token transfer failed\"\r\n            );\r\n        } else {\r\n            require(\r\n                token1.transferFrom(msg.sender, address(this), amountIn),\r\n                \"Token transfer failed\"\r\n            );\r\n            require(\r\n                token0.transfer(msg.sender, amountOut),\r\n                \"Token transfer failed\"\r\n            );\r\n        }\r\n\r\n        emit TokensSwapped(msg.sender, amountIn, amountOut);\r\n        return amountOut;\r\n    }\r\n\r\n    function getAmountOut(\r\n        address tokenIn,\r\n        address tokenOut,\r\n        uint amountIn\r\n    ) public view returns (uint) {\r\n        uint tokenInReserve = tokenIn == address(token0)\r\n            ? token0.balanceOf(address(this))\r\n            : token1.balanceOf(address(this));\r\n        uint tokenOutReserve = tokenOut == address(token0)\r\n            ? token0.balanceOf(address(this))\r\n            : token1.balanceOf(address(this));\r\n\r\n        uint amountOUtBeforeFee = (amountIn * tokenOutReserve) / tokenInReserve;\r\n        uint feeAmount = (amountOUtBeforeFee * 3) / 1000; //0.3%\r\n        return amountOUtBeforeFee - feeAmount;\r\n    }\r\n\r\n    function flashLoan(address borrower, address token, uint amount) external {\r\n        require(\r\n            token == address(token0) || token == address(token1),\r\n            \"Token not in this pool\"\r\n        );\r\n\r\n        uint balanceBefore = IERC20(token).balanceOf(address(this));\r\n        require(balanceBefore >= amount, \"Not enough liquidity in pool\");\r\n\r\n        uint fee = (amount * 5) / 10000; //0.05%\r\n\r\n        require(\r\n            IERC20(token).transfer(borrower, amount),\r\n            \"Could not transfer tokens\"\r\n        );\r\n\r\n        IFlashLoanReceiver(borrower).executeFlashloan(\r\n            amount,\r\n            fee,\r\n            address(this)\r\n        );\r\n\r\n        uint balanceAfter = IERC20(token).balanceOf(address(this));\r\n        require(\r\n            balanceAfter >= balanceBefore + fee,\r\n            \"Flash loan hasn't been repaid with fee\"\r\n        );\r\n\r\n        emit FlashLoan(borrower, token, amount, fee);\r\n    }\r\n\r\n    function _mint(address _to, uint _amount) internal {\r\n        totalSupply += _amount;\r\n        balanceOf[_to] += _amount;\r\n        emit Transfer(address(0), _to, _amount);\r\n    }\r\n\r\n    function _burn(address _from, uint _amount) internal {\r\n        require(\r\n            balanceOf[_from] >= _amount,\r\n            \"ERC20: burn amount exceeds balance\"\r\n        );\r\n        totalSupply -= _amount;\r\n        balanceOf[_from] -= _amount;\r\n        emit Transfer(_from, address(0), _amount);\r\n    }\r\n\r\n    // Utility function to calculate square root (for initial liquidity calculation)\r\n    function sqrt(uint256 x) internal pure returns (uint256) {\r\n        uint z = (x + 1) / 2;\r\n        uint y = x;\r\n        while (z < x) {\r\n            y = z;\r\n            z = (x / z + z) / 2;\r\n        }\r\n        return y;\r\n    }\r\n\r\n    function min(uint256 a, uint256 b) internal pure returns (uint256) {\r\n        return a < b ? a : b;\r\n    }\r\n}\r\n",
  "sourcePath": "C:\\Users\\surge\\Desktop\\dapp-projects\\liquidip\\contracts\\LiquidityPool.sol",
  "compiler": {
    "name": "solc",
    "version": "0.8.12+commit.f00d7308.Emscripten.clang"
  },
  "schemaVersion": "3.4.15",
  "updatedAt": "2023-08-27T21:07:42.782Z",
  "devdoc": {
    "kind": "dev",
    "methods": {},
    "version": 1
  },
  "userdoc": {
    "kind": "user",
    "methods": {},
    "version": 1
  }
}