{
  "contractName": "LiquidityPoolFactory",
  "abi": [
    {
      "anonymous": false,
      "inputs": [
        {
          "indexed": true,
          "internalType": "address",
          "name": "tokenA",
          "type": "address"
        },
        {
          "indexed": true,
          "internalType": "address",
          "name": "tokenB",
          "type": "address"
        },
        {
          "indexed": false,
          "internalType": "address",
          "name": "pool",
          "type": "address"
        }
      ],
      "name": "LiquidityPoolCreated",
      "type": "event"
    },
    {
      "inputs": [
        {
          "internalType": "uint256",
          "name": "",
          "type": "uint256"
        },
        {
          "internalType": "uint256",
          "name": "",
          "type": "uint256"
        }
      ],
      "name": "allPairs",
      "outputs": [
        {
          "internalType": "address",
          "name": "",
          "type": "address"
        }
      ],
      "stateMutability": "view",
      "type": "function"
    },
    {
      "inputs": [
        {
          "internalType": "uint256",
          "name": "",
          "type": "uint256"
        }
      ],
      "name": "allPools",
      "outputs": [
        {
          "internalType": "address",
          "name": "",
          "type": "address"
        }
      ],
      "stateMutability": "view",
      "type": "function"
    },
    {
      "inputs": [],
      "name": "poolCount",
      "outputs": [
        {
          "internalType": "uint256",
          "name": "",
          "type": "uint256"
        }
      ],
      "stateMutability": "view",
      "type": "function"
    },
    {
      "inputs": [
        {
          "internalType": "address",
          "name": "",
          "type": "address"
        },
        {
          "internalType": "address",
          "name": "",
          "type": "address"
        }
      ],
      "name": "pools",
      "outputs": [
        {
          "internalType": "address",
          "name": "",
          "type": "address"
        }
      ],
      "stateMutability": "view",
      "type": "function"
    },
    {
      "inputs": [
        {
          "internalType": "address",
          "name": "",
          "type": "address"
        }
      ],
      "name": "tokenIndex",
      "outputs": [
        {
          "internalType": "uint256",
          "name": "",
          "type": "uint256"
        }
      ],
      "stateMutability": "view",
      "type": "function"
    },
    {
      "inputs": [
        {
          "internalType": "address",
          "name": "",
          "type": "address"
        },
        {
          "internalType": "uint256",
          "name": "",
          "type": "uint256"
        }
      ],
      "name": "tokenToPools",
      "outputs": [
        {
          "internalType": "address",
          "name": "",
          "type": "address"
        }
      ],
      "stateMutability": "view",
      "type": "function"
    },
    {
      "inputs": [
        {
          "internalType": "uint256",
          "name": "",
          "type": "uint256"
        }
      ],
      "name": "tokens",
      "outputs": [
        {
          "internalType": "address",
          "name": "",
          "type": "address"
        }
      ],
      "stateMutability": "view",
      "type": "function"
    },
    {
      "inputs": [
        {
          "internalType": "address",
          "name": "tokenA",
          "type": "address"
        },
        {
          "internalType": "address",
          "name": "tokenB",
          "type": "address"
        }
      ],
      "name": "createLiquidityPool",
      "outputs": [],
      "stateMutability": "nonpayable",
      "type": "function"
    },
    {
      "inputs": [
        {
          "internalType": "address",
          "name": "tokenA",
          "type": "address"
        },
        {
          "internalType": "address",
          "name": "tokenB",
          "type": "address"
        }
      ],
      "name": "getLiquidityPool",
      "outputs": [
        {
          "internalType": "address",
          "name": "",
          "type": "address"
        }
      ],
      "stateMutability": "view",
      "type": "function"
    },
    {
      "inputs": [
        {
          "internalType": "address",
          "name": "tokenA",
          "type": "address"
        },
        {
          "internalType": "address",
          "name": "tokenB",
          "type": "address"
        }
      ],
      "name": "hasPool",
      "outputs": [
        {
          "internalType": "bool",
          "name": "",
          "type": "bool"
        }
      ],
      "stateMutability": "view",
      "type": "function"
    },
    {
      "inputs": [],
      "name": "getTokensCount",
      "outputs": [
        {
          "internalType": "uint256",
          "name": "",
          "type": "uint256"
        }
      ],
      "stateMutability": "view",
      "type": "function"
    },
    {
      "inputs": [],
      "name": "getPairsCount",
      "outputs": [
        {
          "internalType": "uint256",
          "name": "",
          "type": "uint256"
        }
      ],
      "stateMutability": "view",
      "type": "function"
    },
    {
      "inputs": [],
      "name": "getAllPairings",
      "outputs": [
        {
          "internalType": "address[][]",
          "name": "",
          "type": "address[][]"
        }
      ],
      "stateMutability": "view",
      "type": "function"
    },
    {
      "inputs": [],
      "name": "getAllTokens",
      "outputs": [
        {
          "internalType": "address[]",
          "name": "_tokens",
          "type": "address[]"
        }
      ],
      "stateMutability": "view",
      "type": "function"
    },
    {
      "inputs": [],
      "name": "getAllPools",
      "outputs": [
        {
          "internalType": "address[]",
          "name": "_pools",
          "type": "address[]"
        }
      ],
      "stateMutability": "view",
      "type": "function"
    },
    {
      "inputs": [
        {
          "internalType": "address",
          "name": "token",
          "type": "address"
        }
      ],
      "name": "getTokenPools",
      "outputs": [
        {
          "internalType": "address[]",
          "name": "",
          "type": "address[]"
        }
      ],
      "stateMutability": "view",
      "type": "function"
    }
  ],
  "bytecode": "0x60806040525f600655348015610013575f80fd5b50612c91806100215f395ff3fe608060405234801561000f575f80fd5b50600436106100fb575f3560e01c8063427f91a611610093578063d75a2d7211610063578063d75a2d721461024a578063d88ff1f41461025d578063f4f31ede14610265578063f525cb681461029c575f80fd5b8063427f91a6146101c25780634f64b2be146101e1578063901754d7146101f4578063d6432fab14610227575f80fd5b8063291c73ed116100ce578063291c73ed146101695780632a5c792a1461017e5780633962f82d1461019357806341d1de971461019a575f80fd5b8063059a9127146100ff5780631d0f4c661461012f578063215d4cde146101415780632384d3d014610154575b5f80fd5b61011261010d366004610a79565b6102a5565b6040516001600160a01b0390911681526020015b60405180910390f35b6004545b604051908152602001610126565b61011261014f366004610ab4565b6102e4565b610167610162366004610adc565b6102fd565b005b6101716105e6565b6040516101269190610b0d565b610186610685565b6040516101269190610b9e565b5f54610133565b6101126101a8366004610bea565b60056020525f90815260409020546001600160a01b031681565b6101336101d0366004610c01565b60016020525f908152604090205481565b6101126101ef366004610bea565b610746565b610112610202366004610adc565b600260209081525f92835260408084209091529082529020546001600160a01b031681565b61023a610235366004610adc565b61076d565b6040519015158152602001610126565b610186610258366004610c01565b61079d565b610186610810565b610112610273366004610adc565b6001600160a01b039182165f908152600260209081526040808320938516835292905220541690565b61013360065481565b600482815481106102b4575f80fd5b905f5260205f200181815481106102c9575f80fd5b5f918252602090912001546001600160a01b03169150829050565b6003602052815f5260405f2081815481106102c9575f80fd5b806001600160a01b0316826001600160a01b0316036103635760405162461bcd60e51b815260206004820152601860248201527f546f6b656e73206d75737420626520646966666572656e74000000000000000060448201526064015b60405180910390fd5b61036d828261076d565b156103b05760405162461bcd60e51b8152602060048201526013602482015272506f6f6c20616c72656164792065786973747360681b604482015260640161035a565b5f82826040516103bf906109fe565b6001600160a01b03928316815291166020820152604001604051809103905ff0801580156103ef573d5f803e3d5ffd5b506001600160a01b038085165f81815260026020818152604080842089871680865290835281852080549789166001600160a01b0319988916811790915593835281852095855294825280842080548716841790556003825280842080546001818101835591865283862001805488168517905594845280842080548087018255908552828520018054871684179055600680548552600590925283208054909516909117909355825493945090926104a9908490610c35565b90915550506040805160028082526060820183525f9260208301908036833701905050905083815f815181106104e1576104e1610c5c565b60200260200101906001600160a01b031690816001600160a01b031681525050828160018151811061051557610515610c5c565b6001600160a01b03909216602092830291909101820152600480546001810182555f91909152825161056e927f8a35acfbc15ff81a39ae7d344fd709f28e8600b4aa8c65c6b64bfe7fe36bd19b90920191840190610a0b565b50610578846108bd565b6105855761058584610940565b61058e836108bd565b61059b5761059b83610940565b6040516001600160a01b03838116825280851691908616907fef12eed5b10ee0380818f3c2634078836b5ca46cf50742b894ebf13bc3e561a79060200160405180910390a350505050565b60606004805480602002602001604051908101604052809291908181526020015f905b8282101561067c575f8481526020908190208301805460408051828502810185019091528181529283018282801561066857602002820191905f5260205f20905b81546001600160a01b0316815260019091019060200180831161064a575b505050505081526020019060010190610609565b50505050905090565b5f5460609067ffffffffffffffff8111156106a2576106a2610c48565b6040519080825280602002602001820160405280156106cb578160200160208202803683370190505b5090505f5b5f54811015610742575f81815481106106eb576106eb610c5c565b905f5260205f20015f9054906101000a90046001600160a01b031682828151811061071857610718610c5c565b6001600160a01b03909216602092830291909101909101528061073a81610c70565b9150506106d0565b5090565b5f8181548110610754575f80fd5b5f918252602090912001546001600160a01b0316905081565b6001600160a01b038281165f90815260026020908152604080832085851684529091529020541615155b92915050565b6001600160a01b0381165f9081526003602090815260409182902080548351818402810184019094528084526060939283018282801561080457602002820191905f5260205f20905b81546001600160a01b031681526001909101906020018083116107e6575b50505050509050919050565b606060065467ffffffffffffffff81111561082d5761082d610c48565b604051908082528060200260200182016040528015610856578160200160208202803683370190505b5090505f5b600654811015610742575f8181526005602052604090205482516001600160a01b039091169083908390811061089357610893610c5c565b6001600160a01b0390921660209283029190910190910152806108b581610c70565b91505061085b565b6001600160a01b0381165f9081526001602052604081205415158061079757506001600160a01b0382165f9081526001602052604090205415801561090257505f5415155b80156107975750816001600160a01b03165f808154811061092557610925610c5c565b5f918252602090912001546001600160a01b03161492915050565b610949816108bd565b1561098d5760405162461bcd60e51b8152602060048201526014602482015273546f6b656e20616c72656164792065786973747360601b604482015260640161035a565b5f8054600180820183558280527f290decd9548b62a8d60345a988386fc84ba6bc95484008f6362f93160ef3e56390910180546001600160a01b0319166001600160a01b03851617905590546109e39190610c88565b6001600160a01b039091165f90815260016020526040902055565b611fc080610c9c83390190565b828054828255905f5260205f20908101928215610a5e579160200282015b82811115610a5e57825182546001600160a01b0319166001600160a01b03909116178255602090920191600190910190610a29565b506107429291505b80821115610742575f8155600101610a66565b5f8060408385031215610a8a575f80fd5b50508035926020909101359150565b80356001600160a01b0381168114610aaf575f80fd5b919050565b5f8060408385031215610ac5575f80fd5b610ace83610a99565b946020939093013593505050565b5f8060408385031215610aed575f80fd5b610af683610a99565b9150610b0460208401610a99565b90509250929050565b5f602080830181845280855180835260408601915060408160051b87010192508387015f805b83811015610b9057888603603f19018552825180518088529088019088880190845b81811015610b7a5783516001600160a01b03168352928a0192918a0191600101610b55565b5090975050509386019391860191600101610b33565b509398975050505050505050565b602080825282518282018190525f9190848201906040850190845b81811015610bde5783516001600160a01b031683529284019291840191600101610bb9565b50909695505050505050565b5f60208284031215610bfa575f80fd5b5035919050565b5f60208284031215610c11575f80fd5b610c1a82610a99565b9392505050565b634e487b7160e01b5f52601160045260245ffd5b8082018082111561079757610797610c21565b634e487b7160e01b5f52604160045260245ffd5b634e487b7160e01b5f52603260045260245ffd5b5f60018201610c8157610c81610c21565b5060010190565b8181038181111561079757610797610c2156fe608060405234801562000010575f80fd5b5060405162001fc038038062001fc0833981016040819052620000339162000081565b600280546001600160a01b039384166001600160a01b03199182161790915560038054929093169116179055620000b7565b80516001600160a01b03811681146200007c575f80fd5b919050565b5f806040838503121562000093575f80fd5b6200009e8362000065565b9150620000ae6020840162000065565b90509250929050565b611efb80620000c55f395ff3fe608060405234801561000f575f80fd5b5060043610610106575f3560e01c806395d89b411161009e578063a9059cbb1161006e578063a9059cbb14610274578063aca34c1114610287578063d21220a7146102a1578063dd62ed3e146102b4578063ec6cc0cc146102de575f80fd5b806395d89b41146102175780639c8f9f23146102395780639cd441da1461024e5780639d9638a114610261575f80fd5b806323b872dd116100d957806323b872dd146101b8578063313ce567146101cb5780634aa06652146101e557806370a08231146101f8575f80fd5b806306fdde031461010a578063095ea7b3146101535780630dfe16811461017657806318160ddd146101a1575b5f80fd5b61013d604051806040016040528060148152602001732634b8bab4b234ba3c902837b7b6102a37b5b2b760611b81525081565b60405161014a9190611b9b565b60405180910390f35b610166610161366004611bc8565b6102f1565b604051901515815260200161014a565b600254610189906001600160a01b031681565b6040516001600160a01b03909116815260200161014a565b6101aa60045481565b60405190815260200161014a565b6101666101c6366004611bf0565b6103ac565b6101d3601281565b60405160ff909116815260200161014a565b6101aa6101f3366004611bf0565b610472565b6101aa610206366004611c29565b5f6020819052908152604090205481565b61013d6040518060400160405280600381526020016213141560ea1b81525081565b61024c610247366004611c42565b6106a2565b005b61024c61025c366004611c59565b61096a565b61024c61026f366004611bf0565b610ce6565b610166610282366004611bc8565b611078565b61028f61108d565b60405161014a96959493929190611c79565b600354610189906001600160a01b031681565b6101aa6102c2366004611cdf565b600160209081525f928352604080842090915290825290205481565b6101aa6102ec366004611bf0565b611354565b335f908152602081905260408120548211156103485760405162461bcd60e51b81526020600482015260116024820152704e6f7420656e6f75676820746f6b656e7360781b60448201526064015b60405180910390fd5b335f8181526001602090815260408083206001600160a01b03881680855290835292819020869055518581529192917f8c5be1e5ebec7d5bd14f71427d1e84f3dd0314c0f7b2291e5b200ac8c7c3b925910160405180910390a35060015b92915050565b6001600160a01b038084165f9081526001602090815260408083209386168352929052908120548211156104225760405162461bcd60e51b815260206004820152601f60248201527f4e6f7420616c6c6f77656420746f2073656e64207468697320616d6f756e7400604482015260640161033f565b61042d8484846117e6565b6001600160a01b038085165f90815260016020908152604080832093871683529290529081208054849290610463908490611d24565b90915550600195945050505050565b6002545f9081906001600160a01b038681169116146104fa576003546040516370a0823160e01b81523060048201526001600160a01b03909116906370a0823190602401602060405180830381865afa1580156104d1573d5f803e3d5ffd5b505050506040513d601f19601f820116820180604052508101906104f59190611d37565b610564565b6002546040516370a0823160e01b81523060048201526001600160a01b03909116906370a0823190602401602060405180830381865afa158015610540573d5f803e3d5ffd5b505050506040513d601f19601f820116820180604052508101906105649190611d37565b6002549091505f906001600160a01b038681169116146105ed576003546040516370a0823160e01b81523060048201526001600160a01b03909116906370a0823190602401602060405180830381865afa1580156105c4573d5f803e3d5ffd5b505050506040513d601f19601f820116820180604052508101906105e89190611d37565b610657565b6002546040516370a0823160e01b81523060048201526001600160a01b03909116906370a0823190602401602060405180830381865afa158015610633573d5f803e3d5ffd5b505050506040513d601f19601f820116820180604052508101906106579190611d37565b90505f826106658387611d4e565b61066f9190611d65565b90505f6103e8610680836003611d4e565b61068a9190611d65565b90506106968183611d24565b98975050505050505050565b6106ac33826119bf565b6002546040516370a0823160e01b81523060048201525f916001600160a01b0316906370a0823190602401602060405180830381865afa1580156106f2573d5f803e3d5ffd5b505050506040513d601f19601f820116820180604052508101906107169190611d37565b6003546040516370a0823160e01b81523060048201529192505f916001600160a01b03909116906370a0823190602401602060405180830381865afa158015610761573d5f803e3d5ffd5b505050506040513d601f19601f820116820180604052508101906107859190611d37565b90505f60045483856107979190611d4e565b6107a19190611d65565b90505f60045483866107b39190611d4e565b6107bd9190611d65565b90505f821180156107cd57505f81115b6108125760405162461bcd60e51b8152602060048201526016602482015275496e73756666696369656e74206c697175696469747960501b604482015260640161033f565b60025460405163a9059cbb60e01b8152336004820152602481018490526001600160a01b039091169063a9059cbb906044016020604051808303815f875af1158015610860573d5f803e3d5ffd5b505050506040513d601f19601f820116820180604052508101906108849190611d84565b6108a05760405162461bcd60e51b815260040161033f90611da3565b60035460405163a9059cbb60e01b8152336004820152602481018390526001600160a01b039091169063a9059cbb906044016020604051808303815f875af11580156108ee573d5f803e3d5ffd5b505050506040513d601f19601f820116820180604052508101906109129190611d84565b61092e5760405162461bcd60e51b815260040161033f90611da3565b60405185815233907fc2c3f06e49b9f15e7b4af9055e183b0d73362e033ad82a07dec9bf98401717199060200160405180910390a25050505050565b5f8211801561097857505f81115b6109c45760405162461bcd60e51b815260206004820152601e60248201527f416d6f756e7473206d7573742062652067726561746572207468616e20300000604482015260640161033f565b6002546040516323b872dd60e01b81526001600160a01b03909116906323b872dd906109f890339030908790600401611dd2565b6020604051808303815f875af1158015610a14573d5f803e3d5ffd5b505050506040513d601f19601f82011682018060405250810190610a389190611d84565b610a7d5760405162461bcd60e51b8152602060048201526016602482015275151bdad95b8c081d1c985b9cd9995c8819985a5b195960521b604482015260640161033f565b6003546040516323b872dd60e01b81526001600160a01b03909116906323b872dd90610ab190339030908690600401611dd2565b6020604051808303815f875af1158015610acd573d5f803e3d5ffd5b505050506040513d601f19601f82011682018060405250810190610af19190611d84565b610b365760405162461bcd60e51b8152602060048201526016602482015275151bdad95b8c481d1c985b9cd9995c8819985a5b195960521b604482015260640161033f565b6004545f818103610b5f576107d0610b4e8486611df6565b610b589190611d65565b9050610ca1565b6002546040516370a0823160e01b81523060048201525f916001600160a01b0316906370a0823190602401602060405180830381865afa158015610ba5573d5f803e3d5ffd5b505050506040513d601f19601f82011682018060405250810190610bc99190611d37565b6003546040516370a0823160e01b81523060048201529192505f916001600160a01b03909116906370a0823190602401602060405180830381865afa158015610c14573d5f803e3d5ffd5b505050506040513d601f19601f82011682018060405250810190610c389190611d37565b90505f82610c468689611d4e565b610c509190611d65565b90505f82610c5e8789611d4e565b610c689190611d65565b90505f610c758383611ab8565b90506107d088610c858b84611df6565b610c8f9190611df6565b610c999190611d65565b955050505050505b610cab3382611acf565b60405181815233907fc17cea59c2955cb181b03393209566960365771dbba9dc3d510180e7cb3120889060200160405180910390a250505050565b6002546001600160a01b0383811691161480610d0f57506003546001600160a01b038381169116145b610d545760405162461bcd60e51b8152602060048201526016602482015275151bdad95b881b9bdd081a5b881d1a1a5cc81c1bdbdb60521b604482015260640161033f565b6040516370a0823160e01b81523060048201525f906001600160a01b038416906370a0823190602401602060405180830381865afa158015610d98573d5f803e3d5ffd5b505050506040513d601f19601f82011682018060405250810190610dbc9190611d37565b905081811015610e0e5760405162461bcd60e51b815260206004820152601c60248201527f4e6f7420656e6f756768206c697175696469747920696e20706f6f6c00000000604482015260640161033f565b5f612710610e1d846005611d4e565b610e279190611d65565b60405163a9059cbb60e01b81526001600160a01b038781166004830152602482018690529192509085169063a9059cbb906044016020604051808303815f875af1158015610e77573d5f803e3d5ffd5b505050506040513d601f19601f82011682018060405250810190610e9b9190611d84565b610ee75760405162461bcd60e51b815260206004820152601960248201527f436f756c64206e6f74207472616e7366657220746f6b656e7300000000000000604482015260640161033f565b6040516332978f7960e01b815260048101849052602481018290523060448201526001600160a01b038616906332978f79906064015f604051808303815f87803b158015610f33575f80fd5b505af1158015610f45573d5f803e3d5ffd5b50506040516370a0823160e01b81523060048201525f92506001600160a01b03871691506370a0823190602401602060405180830381865afa158015610f8d573d5f803e3d5ffd5b505050506040513d601f19601f82011682018060405250810190610fb19190611d37565b9050610fbd8284611df6565b811461101a5760405162461bcd60e51b815260206004820152602660248201527f466c617368206c6f616e206861736e2774206265656e2072657061696420776960448201526574682066656560d01b606482015260840161033f565b846001600160a01b0316866001600160a01b03167f0d7d75e01ab95780d3cd1c8ec0dd6c2ce19e3a20427eec8bf53283b6fb8e95f08685604051611068929190918252602082015260400190565b60405180910390a3505050505050565b5f6110843384846117e6565b50600192915050565b6060805f6060805f60025f9054906101000a90046001600160a01b03166001600160a01b03166306fdde036040518163ffffffff1660e01b81526004015f60405180830381865afa1580156110e4573d5f803e3d5ffd5b505050506040513d5f823e601f3d908101601f1916820160405261110b9190810190611e1d565b60025f9054906101000a90046001600160a01b03166001600160a01b03166395d89b416040518163ffffffff1660e01b81526004015f60405180830381865afa15801561115a573d5f803e3d5ffd5b505050506040513d5f823e601f3d908101601f191682016040526111819190810190611e1d565b6002546040516370a0823160e01b81523060048201526001600160a01b03909116906370a0823190602401602060405180830381865afa1580156111c7573d5f803e3d5ffd5b505050506040513d601f19601f820116820180604052508101906111eb9190611d37565b60035f9054906101000a90046001600160a01b03166001600160a01b03166306fdde036040518163ffffffff1660e01b81526004015f60405180830381865afa15801561123a573d5f803e3d5ffd5b505050506040513d5f823e601f3d908101601f191682016040526112619190810190611e1d565b60035f9054906101000a90046001600160a01b03166001600160a01b03166395d89b416040518163ffffffff1660e01b81526004015f60405180830381865afa1580156112b0573d5f803e3d5ffd5b505050506040513d5f823e601f3d908101601f191682016040526112d79190810190611e1d565b6003546040516370a0823160e01b81523060048201526001600160a01b03909116906370a0823190602401602060405180830381865afa15801561131d573d5f803e3d5ffd5b505050506040513d601f19601f820116820180604052508101906113419190611d37565b949b939a50919850965094509092509050565b6002545f906001600160a01b038581169116148061137f57506003546001600160a01b038581169116145b6113c15760405162461bcd60e51b815260206004820152601360248201527224b73b30b634b21034b7383aba103a37b5b2b760691b604482015260640161033f565b6002546001600160a01b03848116911614806113ea57506003546001600160a01b038481169116145b61142d5760405162461bcd60e51b815260206004820152601460248201527324b73b30b634b21037baba383aba103a37b5b2b760611b604482015260640161033f565b826001600160a01b0316846001600160a01b0316036114a05760405162461bcd60e51b815260206004820152602960248201527f496e70757420616e64206f757470757420746f6b656e73206d75737420626520604482015268191a5999995c995b9d60ba1b606482015260840161033f565b5f82116114ef5760405162461bcd60e51b815260206004820152601d60248201527f416d6f756e74206d7573742062652067726561746572207468616e2030000000604482015260640161033f565b5f6114fb858585610472565b90505f811161154c5760405162461bcd60e51b815260206004820152601d60248201527f416d6f756e74206d7573742062652067726561746572207468616e2030000000604482015260640161033f565b6002546001600160a01b0390811690861603611685576002546040516323b872dd60e01b81526001600160a01b03909116906323b872dd9061159690339030908890600401611dd2565b6020604051808303815f875af11580156115b2573d5f803e3d5ffd5b505050506040513d601f19601f820116820180604052508101906115d69190611d84565b6115f25760405162461bcd60e51b815260040161033f90611da3565b60035460405163a9059cbb60e01b8152336004820152602481018390526001600160a01b039091169063a9059cbb906044016020604051808303815f875af1158015611640573d5f803e3d5ffd5b505050506040513d601f19601f820116820180604052508101906116649190611d84565b6116805760405162461bcd60e51b815260040161033f90611da3565b6117a3565b6003546040516323b872dd60e01b81526001600160a01b03909116906323b872dd906116b990339030908890600401611dd2565b6020604051808303815f875af11580156116d5573d5f803e3d5ffd5b505050506040513d601f19601f820116820180604052508101906116f99190611d84565b6117155760405162461bcd60e51b815260040161033f90611da3565b60025460405163a9059cbb60e01b8152336004820152602481018390526001600160a01b039091169063a9059cbb906044016020604051808303815f875af1158015611763573d5f803e3d5ffd5b505050506040513d601f19601f820116820180604052508101906117879190611d84565b6117a35760405162461bcd60e51b815260040161033f90611da3565b604080518481526020810183905233917f18704ae982dcd24a1beeeed3ecf045ab0520d7b7519b97adf3e4f40bf7efe339910160405180910390a2949350505050565b6001600160a01b03831661184a5760405162461bcd60e51b815260206004820152602560248201527f45524332303a207472616e736665722066726f6d20746865207a65726f206164604482015264647265737360d81b606482015260840161033f565b6001600160a01b0382166118ac5760405162461bcd60e51b815260206004820152602360248201527f45524332303a207472616e7366657220746f20746865207a65726f206164647260448201526265737360e81b606482015260840161033f565b6001600160a01b0383165f908152602081905260409020548111156119135760405162461bcd60e51b815260206004820152601f60248201527f42616c616e6365206f662073656e646572206973206e6f7420656e6f75676800604482015260640161033f565b6001600160a01b0383165f908152602081905260408120805483929061193a908490611d24565b90915550506001600160a01b0382165f9081526020819052604081208054839290611966908490611df6565b92505081905550816001600160a01b0316836001600160a01b03167fddf252ad1be2c89b69c2b068fc378daa952ba7f163c4a11628f55a4df523b3ef836040516119b291815260200190565b60405180910390a3505050565b6001600160a01b0382165f90815260208190526040902054811115611a315760405162461bcd60e51b815260206004820152602260248201527f45524332303a206275726e20616d6f756e7420657863656564732062616c616e604482015261636560f01b606482015260840161033f565b8060045f828254611a429190611d24565b90915550506001600160a01b0382165f9081526020819052604081208054839290611a6e908490611d24565b90915550506040518181525f906001600160a01b038416907fddf252ad1be2c89b69c2b068fc378daa952ba7f163c4a11628f55a4df523b3ef906020015b60405180910390a35050565b5f818310611ac65781611ac8565b825b9392505050565b8060045f828254611ae09190611df6565b90915550506001600160a01b0382165f9081526020819052604081208054839290611b0c908490611df6565b90915550506040518181526001600160a01b038316905f907fddf252ad1be2c89b69c2b068fc378daa952ba7f163c4a11628f55a4df523b3ef90602001611aac565b5f5b83811015611b68578181015183820152602001611b50565b50505f910152565b5f8151808452611b87816020860160208601611b4e565b601f01601f19169290920160200192915050565b602081525f611ac86020830184611b70565b80356001600160a01b0381168114611bc3575f80fd5b919050565b5f8060408385031215611bd9575f80fd5b611be283611bad565b946020939093013593505050565b5f805f60608486031215611c02575f80fd5b611c0b84611bad565b9250611c1960208501611bad565b9150604084013590509250925092565b5f60208284031215611c39575f80fd5b611ac882611bad565b5f60208284031215611c52575f80fd5b5035919050565b5f8060408385031215611c6a575f80fd5b50508035926020909101359150565b60c081525f611c8b60c0830189611b70565b8281036020840152611c9d8189611b70565b90508660408401528281036060840152611cb78187611b70565b90508281036080840152611ccb8186611b70565b9150508260a0830152979650505050505050565b5f8060408385031215611cf0575f80fd5b611cf983611bad565b9150611d0760208401611bad565b90509250929050565b634e487b7160e01b5f52601160045260245ffd5b818103818111156103a6576103a6611d10565b5f60208284031215611d47575f80fd5b5051919050565b80820281158282048414176103a6576103a6611d10565b5f82611d7f57634e487b7160e01b5f52601260045260245ffd5b500490565b5f60208284031215611d94575f80fd5b81518015158114611ac8575f80fd5b602080825260159082015274151bdad95b881d1c985b9cd9995c8819985a5b1959605a1b604082015260600190565b6001600160a01b039384168152919092166020820152604081019190915260600190565b808201808211156103a6576103a6611d10565b634e487b7160e01b5f52604160045260245ffd5b5f60208284031215611e2d575f80fd5b815167ffffffffffffffff80821115611e44575f80fd5b818401915084601f830112611e57575f80fd5b815181811115611e6957611e69611e09565b604051601f8201601f19908116603f01168101908382118183101715611e9157611e91611e09565b81604052828152876020848701011115611ea9575f80fd5b611eba836020830160208801611b4e565b97965050505050505056fea2646970667358221220fa286633ca9075641f1c63a0db41b4af514826911ef3ead289b2d79021fabd5d64736f6c63430008150033a264697066735822122030b0ef9110b58123ee452fff37525a835a4c94992de1ed47cec2305106f85a8064736f6c63430008150033",
  "immutableReferences": {},
  "source": "// SPDX-License-Identifier: MIT\npragma solidity ^0.8.0;\n\nimport \"./LiquidityPool.sol\";\n\ncontract LiquidityPoolFactory {\n    address[] public tokens;\n    mapping(address => uint) public tokenIndex;\n\n    mapping(address => mapping(address => address)) public pools;\n    mapping(address => address[]) public tokenToPools;\n    address[][] public allPairs;\n\n    mapping(uint => address) public allPools;\n    uint public poolCount = 0;\n\n    event LiquidityPoolCreated(\n        address indexed tokenA,\n        address indexed tokenB,\n        address pool\n    );\n\n    function createLiquidityPool(address tokenA, address tokenB) external {\n        require(tokenA != tokenB, \"Tokens must be different\");\n        require(!hasPool(tokenA, tokenB), \"Pool already exists\");\n\n        address newPool = address(new LiquidityPool(tokenA, tokenB));\n        pools[tokenA][tokenB] = newPool;\n        pools[tokenB][tokenA] = newPool;\n        tokenToPools[tokenA].push(newPool);\n        tokenToPools[tokenB].push(newPool);\n        allPools[poolCount] = newPool;\n        poolCount += 1;\n        address[] memory pair = new address[](2);\n        pair[0] = tokenA;\n        pair[1] = tokenB;\n        allPairs.push(pair);\n\n        if (!tokenExists(tokenA)) {\n            addToken(tokenA);\n        }\n\n        if (!tokenExists(tokenB)) {\n            addToken(tokenB);\n        }\n\n        emit LiquidityPoolCreated(tokenA, tokenB, newPool);\n    }\n\n    function getLiquidityPool(\n        address tokenA,\n        address tokenB\n    ) external view returns (address) {\n        return pools[tokenA][tokenB];\n    }\n\n    function addToken(address token) internal {\n        require(!tokenExists(token), \"Token already exists\");\n        tokens.push(token);\n        tokenIndex[token] = tokens.length - 1;\n    }\n\n    function tokenExists(address token) internal view returns (bool) {\n        return\n            tokenIndex[token] > 0 ||\n            (tokenIndex[token] == 0 && tokens.length > 0 && tokens[0] == token);\n    }\n\n    function hasPool(\n        address tokenA,\n        address tokenB\n    ) public view returns (bool) {\n        return pools[tokenA][tokenB] != address(0);\n    }\n\n    function getTokensCount() public view returns (uint256) {\n        return tokens.length;\n    }\n\n    function getPairsCount() public view returns (uint256) {\n        return allPairs.length;\n    }\n\n    function getAllPairings() external view returns (address[][] memory) {\n        return allPairs;\n    }\n\n    function getAllTokens() external view returns (address[] memory _tokens) {\n        _tokens = new address[](tokens.length);\n\n        for (uint i = 0; i < tokens.length; i++) {\n            _tokens[i] = tokens[i];\n        }\n    }\n\n    function getAllPools() external view returns (address[] memory _pools) {\n        _pools = new address[](poolCount);\n\n        for (uint i = 0; i < poolCount; i++) {\n            _pools[i] = allPools[i];\n        }\n    }\n\n    function getTokenPools(\n        address token\n    ) public view returns (address[] memory) {\n        return tokenToPools[token];\n    }\n}\n",
  "sourcePath": "/media/scott/E8A0D408A0D3DB60/Users/surge/Desktop/dapp-projects/liquidip/contracts/LiquidityPoolFactory.sol",
  "compiler": {
    "name": "solc",
    "version": "0.8.21+commit.d9974bed.Emscripten.clang"
  },
  "schemaVersion": "3.4.15",
  "updatedAt": "2023-08-24T20:05:35.276Z",
  "devdoc": {
    "kind": "dev",
    "methods": {},
    "version": 1
  },
  "userdoc": {
    "kind": "user",
    "methods": {},
    "version": 1
  }
}