{
  "contractName": "LiquidityPoolFactory",
  "abi": [
    {
      "anonymous": false,
      "inputs": [
        {
          "indexed": true,
          "internalType": "address",
          "name": "tokenA",
          "type": "address"
        },
        {
          "indexed": true,
          "internalType": "address",
          "name": "tokenB",
          "type": "address"
        },
        {
          "indexed": false,
          "internalType": "address",
          "name": "pool",
          "type": "address"
        }
      ],
      "name": "LiquidityPoolCreated",
      "type": "event"
    },
    {
      "inputs": [
        {
          "internalType": "address",
          "name": "",
          "type": "address"
        },
        {
          "internalType": "address",
          "name": "",
          "type": "address"
        }
      ],
      "name": "pools",
      "outputs": [
        {
          "internalType": "address",
          "name": "",
          "type": "address"
        }
      ],
      "stateMutability": "view",
      "type": "function"
    },
    {
      "inputs": [
        {
          "internalType": "address",
          "name": "",
          "type": "address"
        }
      ],
      "name": "tokenIndex",
      "outputs": [
        {
          "internalType": "uint256",
          "name": "",
          "type": "uint256"
        }
      ],
      "stateMutability": "view",
      "type": "function"
    },
    {
      "inputs": [
        {
          "internalType": "address",
          "name": "",
          "type": "address"
        },
        {
          "internalType": "uint256",
          "name": "",
          "type": "uint256"
        }
      ],
      "name": "tokenToPools",
      "outputs": [
        {
          "internalType": "address",
          "name": "",
          "type": "address"
        }
      ],
      "stateMutability": "view",
      "type": "function"
    },
    {
      "inputs": [
        {
          "internalType": "uint256",
          "name": "",
          "type": "uint256"
        }
      ],
      "name": "tokens",
      "outputs": [
        {
          "internalType": "address",
          "name": "",
          "type": "address"
        }
      ],
      "stateMutability": "view",
      "type": "function"
    },
    {
      "inputs": [
        {
          "internalType": "address",
          "name": "tokenA",
          "type": "address"
        },
        {
          "internalType": "address",
          "name": "tokenB",
          "type": "address"
        }
      ],
      "name": "createLiquidityPool",
      "outputs": [],
      "stateMutability": "nonpayable",
      "type": "function"
    },
    {
      "inputs": [
        {
          "internalType": "address",
          "name": "tokenA",
          "type": "address"
        },
        {
          "internalType": "address",
          "name": "tokenB",
          "type": "address"
        }
      ],
      "name": "getLiquidityPool",
      "outputs": [
        {
          "internalType": "address",
          "name": "",
          "type": "address"
        }
      ],
      "stateMutability": "view",
      "type": "function"
    },
    {
      "inputs": [
        {
          "internalType": "address",
          "name": "tokenA",
          "type": "address"
        },
        {
          "internalType": "address",
          "name": "tokenB",
          "type": "address"
        }
      ],
      "name": "hasPool",
      "outputs": [
        {
          "internalType": "bool",
          "name": "",
          "type": "bool"
        }
      ],
      "stateMutability": "view",
      "type": "function"
    },
    {
      "inputs": [],
      "name": "getTokensCount",
      "outputs": [
        {
          "internalType": "uint256",
          "name": "",
          "type": "uint256"
        }
      ],
      "stateMutability": "view",
      "type": "function"
    },
    {
      "inputs": [],
      "name": "getAllPairings",
      "outputs": [
        {
          "internalType": "address[]",
          "name": "tokens",
          "type": "address[]"
        },
        {
          "internalType": "address[][]",
          "name": "pairs",
          "type": "address[][]"
        }
      ],
      "stateMutability": "view",
      "type": "function"
    },
    {
      "inputs": [
        {
          "internalType": "address",
          "name": "token",
          "type": "address"
        }
      ],
      "name": "getTokenPools",
      "outputs": [
        {
          "internalType": "address[]",
          "name": "",
          "type": "address[]"
        }
      ],
      "stateMutability": "view",
      "type": "function"
    }
  ],
  "bytecode": "0x608060405234801561001057600080fd5b50612563806100206000396000f3fe608060405234801561001057600080fd5b506004361061009e5760003560e01c80634f64b2be116100665780634f64b2be14610130578063901754d714610143578063d6432fab14610177578063d75a2d72146101c1578063f4f31ede146101e157600080fd5b8063215d4cde146100a35780632384d3d0146100d3578063291c73ed146100e85780633962f82d146100fe578063427f91a614610110575b600080fd5b6100b66100b136600461083e565b610219565b6040516001600160a01b0390911681526020015b60405180910390f35b6100e66100e1366004610868565b610251565b005b6100f061046f565b6040516100ca9291906108df565b6000545b6040519081526020016100ca565b61010261011e366004610981565b60016020526000908152604090205481565b6100b661013e3660046109a3565b61062c565b6100b6610151366004610868565b60026020908152600092835260408084209091529082529020546001600160a01b031681565b6101b1610185366004610868565b6001600160a01b0391821660009081526002602090815260408083209385168352929052205416151590565b60405190151581526020016100ca565b6101d46101cf366004610981565b610656565b6040516100ca91906109bc565b6100b66101ef366004610868565b6001600160a01b039182166000908152600260209081526040808320938516835292905220541690565b6003602052816000526040600020818154811061023557600080fd5b6000918252602090912001546001600160a01b03169150829050565b806001600160a01b0316826001600160a01b031614156102b85760405162461bcd60e51b815260206004820152601860248201527f546f6b656e73206d75737420626520646966666572656e74000000000000000060448201526064015b60405180910390fd5b6001600160a01b038083166000908152600260209081526040808320848616845290915290205416156103235760405162461bcd60e51b8152602060048201526013602482015272506f6f6c20616c72656164792065786973747360681b60448201526064016102af565b6000828260405161033390610815565b6001600160a01b03928316815291166020820152604001604051809103906000f080158015610366573d6000803e3d6000fd5b506001600160a01b03808516600081815260026020818152604080842089871680865290835281852080549789166001600160a01b03199889168117909155938352818520958552948252808420805487168417905560038252808420805460018181018355918652838620018054881685179055948452832080549485018155835290912090910180549092161790559050610402836106cc565b61040f5761040f83610755565b610418826106cc565b6104255761042582610755565b6040516001600160a01b03828116825280841691908516907fef12eed5b10ee0380818f3c2634078836b5ca46cf50742b894ebf13bc3e561a79060200160405180910390a3505050565b606080815167ffffffffffffffff81111561048c5761048c6109cf565b6040519080825280602002602001820160405280156104b5578160200160208202803683370190505b509150815167ffffffffffffffff8111156104d2576104d26109cf565b60405190808252806020026020018201604052801561050557816020015b60608152602001906001900390816104f05790505b50905060005b825181101561062757828181518110610526576105266109e5565b6020026020010151838281518110610540576105406109e5565b60200260200101906001600160a01b031690816001600160a01b03168152505060036000848381518110610576576105766109e5565b60200260200101516001600160a01b03166001600160a01b031681526020019081526020016000208054806020026020016040519081016040528092919081815260200182805480156105f257602002820191906000526020600020905b81546001600160a01b031681526001909101906020018083116105d4575b5050505050828281518110610609576106096109e5565b6020026020010181905250808061061f90610a11565b91505061050b565b509091565b6000818154811061063c57600080fd5b6000918252602090912001546001600160a01b0316905081565b6001600160a01b0381166000908152600360209081526040918290208054835181840281018401909452808452606093928301828280156106c057602002820191906000526020600020905b81546001600160a01b031681526001909101906020018083116106a2575b50505050509050919050565b6001600160a01b03811660009081526001602052604081205415158061074f57506001600160a01b038216600090815260016020526040902054158015610714575060005415155b801561074f5750816001600160a01b031660008081548110610738576107386109e5565b6000918252602090912001546001600160a01b0316145b92915050565b61075e816106cc565b156107a25760405162461bcd60e51b8152602060048201526014602482015273546f6b656e20616c72656164792065786973747360601b60448201526064016102af565b60008054600180820183558280527f290decd9548b62a8d60345a988386fc84ba6bc95484008f6362f93160ef3e56390910180546001600160a01b0319166001600160a01b03851617905590546107f99190610a2c565b6001600160a01b03909116600090815260016020526040902055565b611aea80610a4483390190565b80356001600160a01b038116811461083957600080fd5b919050565b6000806040838503121561085157600080fd5b61085a83610822565b946020939093013593505050565b6000806040838503121561087b57600080fd5b61088483610822565b915061089260208401610822565b90509250929050565b600081518084526020808501945080840160005b838110156108d45781516001600160a01b0316875295820195908201906001016108af565b509495945050505050565b6040815260006108f2604083018561089b565b6020838203818501528185518084528284019150828160051b8501018388016000805b8481101561097157878403601f19018652825180518086529088019088860190845b8181101561095c5783516001600160a01b03168352928a0192918a0191600101610937565b50509688019694505091860191600101610915565b50919a9950505050505050505050565b60006020828403121561099357600080fd5b61099c82610822565b9392505050565b6000602082840312156109b557600080fd5b5035919050565b60208152600061099c602083018461089b565b634e487b7160e01b600052604160045260246000fd5b634e487b7160e01b600052603260045260246000fd5b634e487b7160e01b600052601160045260246000fd5b6000600019821415610a2557610a256109fb565b5060010190565b600082821015610a3e57610a3e6109fb565b50039056fe60806040523480156200001157600080fd5b5060405162001aea38038062001aea833981016040819052620000349162000083565b600280546001600160a01b039384166001600160a01b03199182161790915560038054929093169116179055620000bb565b80516001600160a01b03811681146200007e57600080fd5b919050565b600080604083850312156200009757600080fd5b620000a28362000066565b9150620000b26020840162000066565b90509250929050565b611a1f80620000cb6000396000f3fe608060405234801561001057600080fd5b50600436106101005760003560e01c806395d89b4111610097578063a9059cbb11610066578063a9059cbb14610270578063d21220a714610283578063dd62ed3e14610296578063ec6cc0cc146102c157600080fd5b806395d89b41146102135780639c8f9f23146102355780639cd441da1461024a5780639d9638a11461025d57600080fd5b806323b872dd116100d357806323b872dd146101b3578063313ce567146101c65780634aa06652146101e057806370a08231146101f357600080fd5b806306fdde0314610105578063095ea7b31461014e5780630dfe16811461017157806318160ddd1461019c575b600080fd5b610138604051806040016040528060148152602001732634b8bab4b234ba3c902837b7b6102a37b5b2b760611b81525081565b6040516101459190611775565b60405180910390f35b61016161015c3660046117e6565b6102d4565b6040519015158152602001610145565b600254610184906001600160a01b031681565b6040516001600160a01b039091168152602001610145565b6101a560045481565b604051908152602001610145565b6101616101c1366004611810565b610390565b6101ce601281565b60405160ff9091168152602001610145565b6101a56101ee366004611810565b610458565b6101a561020136600461184c565b60006020819052908152604090205481565b6101386040518060400160405280600381526020016213141560ea1b81525081565b610248610243366004611867565b610694565b005b610248610258366004611880565b61096c565b61024861026b366004611810565b610bac565b61016161027e3660046117e6565b610f0a565b600354610184906001600160a01b031681565b6101a56102a43660046118a2565b600160209081526000928352604080842090915290825290205481565b6101a56102cf366004611810565b610f20565b3360009081526020819052604081205482111561032c5760405162461bcd60e51b81526020600482015260116024820152704e6f7420656e6f75676820746f6b656e7360781b60448201526064015b60405180910390fd5b3360008181526001602090815260408083206001600160a01b03881680855290835292819020869055518581529192917f8c5be1e5ebec7d5bd14f71427d1e84f3dd0314c0f7b2291e5b200ac8c7c3b925910160405180910390a350600192915050565b6001600160a01b0380841660009081526001602090815260408083209386168352929052908120548211156104075760405162461bcd60e51b815260206004820152601f60248201527f4e6f7420616c6c6f77656420746f2073656e64207468697320616d6f756e74006044820152606401610323565b6104128484846113c3565b6001600160a01b038085166000908152600160209081526040808320938716835292905290812080548492906104499084906118eb565b90915550600195945050505050565b60025460009081906001600160a01b038681169116146104e3576003546040516370a0823160e01b81523060048201526001600160a01b03909116906370a0823190602401602060405180830381865afa1580156104ba573d6000803e3d6000fd5b505050506040513d601f19601f820116820180604052508101906104de9190611902565b61054f565b6002546040516370a0823160e01b81523060048201526001600160a01b03909116906370a0823190602401602060405180830381865afa15801561052b573d6000803e3d6000fd5b505050506040513d601f19601f8201168201806040525081019061054f9190611902565b6002549091506000906001600160a01b038681169116146105db576003546040516370a0823160e01b81523060048201526001600160a01b03909116906370a0823190602401602060405180830381865afa1580156105b2573d6000803e3d6000fd5b505050506040513d601f19601f820116820180604052508101906105d69190611902565b610647565b6002546040516370a0823160e01b81523060048201526001600160a01b03909116906370a0823190602401602060405180830381865afa158015610623573d6000803e3d6000fd5b505050506040513d601f19601f820116820180604052508101906106479190611902565b9050600082610656838761191b565b610660919061193a565b905060006103e861067283600361191b565b61067c919061193a565b905061068881836118eb565b98975050505050505050565b61069e338261159f565b6002546040516370a0823160e01b81523060048201526000916001600160a01b0316906370a0823190602401602060405180830381865afa1580156106e7573d6000803e3d6000fd5b505050506040513d601f19601f8201168201806040525081019061070b9190611902565b6003546040516370a0823160e01b81523060048201529192506000916001600160a01b03909116906370a0823190602401602060405180830381865afa158015610759573d6000803e3d6000fd5b505050506040513d601f19601f8201168201806040525081019061077d9190611902565b905060006004548385610790919061191b565b61079a919061193a565b9050600060045483866107ad919061191b565b6107b7919061193a565b90506000821180156107c95750600081115b61080e5760405162461bcd60e51b8152602060048201526016602482015275496e73756666696369656e74206c697175696469747960501b6044820152606401610323565b60025460405163a9059cbb60e01b8152336004820152602481018490526001600160a01b039091169063a9059cbb906044016020604051808303816000875af115801561085f573d6000803e3d6000fd5b505050506040513d601f19601f82011682018060405250810190610883919061195c565b61089f5760405162461bcd60e51b81526004016103239061197e565b60035460405163a9059cbb60e01b8152336004820152602481018390526001600160a01b039091169063a9059cbb906044016020604051808303816000875af11580156108f0573d6000803e3d6000fd5b505050506040513d601f19601f82011682018060405250810190610914919061195c565b6109305760405162461bcd60e51b81526004016103239061197e565b60405185815233907fc2c3f06e49b9f15e7b4af9055e183b0d73362e033ad82a07dec9bf98401717199060200160405180910390a25050505050565b60008211801561097c5750600081115b6109c85760405162461bcd60e51b815260206004820152601e60248201527f416d6f756e7473206d7573742062652067726561746572207468616e203000006044820152606401610323565b6002546040516323b872dd60e01b81526001600160a01b03909116906323b872dd906109fc903390309087906004016119ad565b6020604051808303816000875af1158015610a1b573d6000803e3d6000fd5b505050506040513d601f19601f82011682018060405250810190610a3f919061195c565b610a845760405162461bcd60e51b8152602060048201526016602482015275151bdad95b8c081d1c985b9cd9995c8819985a5b195960521b6044820152606401610323565b6003546040516323b872dd60e01b81526001600160a01b03909116906323b872dd90610ab8903390309086906004016119ad565b6020604051808303816000875af1158015610ad7573d6000803e3d6000fd5b505050506040513d601f19601f82011682018060405250810190610afb919061195c565b610b405760405162461bcd60e51b8152602060048201526016602482015275151bdad95b8c481d1c985b9cd9995c8819985a5b195960521b6044820152606401610323565b6000600454600014610b5457600454610b66565b610b66610b61838561191b565b61169c565b9050610b7233826116f3565b60405181815233907fc17cea59c2955cb181b03393209566960365771dbba9dc3d510180e7cb3120889060200160405180910390a2505050565b6002546001600160a01b0383811691161480610bd557506003546001600160a01b038381169116145b610c1a5760405162461bcd60e51b8152602060048201526016602482015275151bdad95b881b9bdd081a5b881d1a1a5cc81c1bdbdb60521b6044820152606401610323565b6040516370a0823160e01b81523060048201526000906001600160a01b038416906370a0823190602401602060405180830381865afa158015610c61573d6000803e3d6000fd5b505050506040513d601f19601f82011682018060405250810190610c859190611902565b905081811015610cd75760405162461bcd60e51b815260206004820152601c60248201527f4e6f7420656e6f756768206c697175696469747920696e20706f6f6c000000006044820152606401610323565b6000612710610ce784600561191b565b610cf1919061193a565b60405163a9059cbb60e01b81526001600160a01b038781166004830152602482018690529192509085169063a9059cbb906044016020604051808303816000875af1158015610d44573d6000803e3d6000fd5b505050506040513d601f19601f82011682018060405250810190610d68919061195c565b506040516379b392a960e11b81526001600160a01b038581166004830152602482018590526044820183905230606483015286169063f367255290608401600060405180830381600087803b158015610dc057600080fd5b505af1158015610dd4573d6000803e3d6000fd5b50506040516370a0823160e01b8152306004820152600092506001600160a01b03871691506370a0823190602401602060405180830381865afa158015610e1f573d6000803e3d6000fd5b505050506040513d601f19601f82011682018060405250810190610e439190611902565b9050610e4f82846119d1565b8114610eac5760405162461bcd60e51b815260206004820152602660248201527f466c617368206c6f616e206861736e2774206265656e2072657061696420776960448201526574682066656560d01b6064820152608401610323565b846001600160a01b0316866001600160a01b03167f0d7d75e01ab95780d3cd1c8ec0dd6c2ce19e3a20427eec8bf53283b6fb8e95f08685604051610efa929190918252602082015260400190565b60405180910390a3505050505050565b6000610f173384846113c3565b50600192915050565b6002546000906001600160a01b0385811691161480610f4c57506003546001600160a01b038581169116145b610f8e5760405162461bcd60e51b815260206004820152601360248201527224b73b30b634b21034b7383aba103a37b5b2b760691b6044820152606401610323565b6002546001600160a01b0384811691161480610fb757506003546001600160a01b038481169116145b610ffa5760405162461bcd60e51b815260206004820152601460248201527324b73b30b634b21037baba383aba103a37b5b2b760611b6044820152606401610323565b826001600160a01b0316846001600160a01b0316141561106e5760405162461bcd60e51b815260206004820152602960248201527f496e70757420616e64206f757470757420746f6b656e73206d75737420626520604482015268191a5999995c995b9d60ba1b6064820152608401610323565b600082116110be5760405162461bcd60e51b815260206004820152601d60248201527f416d6f756e74206d7573742062652067726561746572207468616e20300000006044820152606401610323565b60006110cb858585610458565b90506000811161111d5760405162461bcd60e51b815260206004820152601d60248201527f416d6f756e74206d7573742062652067726561746572207468616e20300000006044820152606401610323565b6002546001600160a01b038681169116141561125c576002546040516323b872dd60e01b81526001600160a01b03909116906323b872dd90611167903390309088906004016119ad565b6020604051808303816000875af1158015611186573d6000803e3d6000fd5b505050506040513d601f19601f820116820180604052508101906111aa919061195c565b6111c65760405162461bcd60e51b81526004016103239061197e565b60035460405163a9059cbb60e01b8152336004820152602481018390526001600160a01b039091169063a9059cbb906044016020604051808303816000875af1158015611217573d6000803e3d6000fd5b505050506040513d601f19601f8201168201806040525081019061123b919061195c565b6112575760405162461bcd60e51b81526004016103239061197e565b611380565b6003546040516323b872dd60e01b81526001600160a01b03909116906323b872dd90611290903390309088906004016119ad565b6020604051808303816000875af11580156112af573d6000803e3d6000fd5b505050506040513d601f19601f820116820180604052508101906112d3919061195c565b6112ef5760405162461bcd60e51b81526004016103239061197e565b60025460405163a9059cbb60e01b8152336004820152602481018390526001600160a01b039091169063a9059cbb906044016020604051808303816000875af1158015611340573d6000803e3d6000fd5b505050506040513d601f19601f82011682018060405250810190611364919061195c565b6113805760405162461bcd60e51b81526004016103239061197e565b604080518481526020810183905233917f18704ae982dcd24a1beeeed3ecf045ab0520d7b7519b97adf3e4f40bf7efe339910160405180910390a2949350505050565b6001600160a01b0383166114275760405162461bcd60e51b815260206004820152602560248201527f45524332303a207472616e736665722066726f6d20746865207a65726f206164604482015264647265737360d81b6064820152608401610323565b6001600160a01b0382166114895760405162461bcd60e51b815260206004820152602360248201527f45524332303a207472616e7366657220746f20746865207a65726f206164647260448201526265737360e81b6064820152608401610323565b6001600160a01b0383166000908152602081905260409020548111156114f15760405162461bcd60e51b815260206004820152601f60248201527f42616c616e6365206f662073656e646572206973206e6f7420656e6f756768006044820152606401610323565b6001600160a01b038316600090815260208190526040812080548392906115199084906118eb565b90915550506001600160a01b038216600090815260208190526040812080548392906115469084906119d1565b92505081905550816001600160a01b0316836001600160a01b03167fddf252ad1be2c89b69c2b068fc378daa952ba7f163c4a11628f55a4df523b3ef8360405161159291815260200190565b60405180910390a3505050565b6001600160a01b0382166000908152602081905260409020548111156116125760405162461bcd60e51b815260206004820152602260248201527f45524332303a206275726e20616d6f756e7420657863656564732062616c616e604482015261636560f01b6064820152608401610323565b806004600082825461162491906118eb565b90915550506001600160a01b038216600090815260208190526040812080548392906116519084906118eb565b90915550506040518181526000906001600160a01b038416907fddf252ad1be2c89b69c2b068fc378daa952ba7f163c4a11628f55a4df523b3ef906020015b60405180910390a35050565b60008060026116ac8460016119d1565b6116b6919061193a565b9050825b838210156116ec5750806002816116d1818761193a565b6116db91906119d1565b6116e5919061193a565b91506116ba565b9392505050565b806004600082825461170591906119d1565b90915550506001600160a01b038216600090815260208190526040812080548392906117329084906119d1565b90915550506040518181526001600160a01b038316906000907fddf252ad1be2c89b69c2b068fc378daa952ba7f163c4a11628f55a4df523b3ef90602001611690565b600060208083528351808285015260005b818110156117a257858101830151858201604001528201611786565b818111156117b4576000604083870101525b50601f01601f1916929092016040019392505050565b80356001600160a01b03811681146117e157600080fd5b919050565b600080604083850312156117f957600080fd5b611802836117ca565b946020939093013593505050565b60008060006060848603121561182557600080fd5b61182e846117ca565b925061183c602085016117ca565b9150604084013590509250925092565b60006020828403121561185e57600080fd5b6116ec826117ca565b60006020828403121561187957600080fd5b5035919050565b6000806040838503121561189357600080fd5b50508035926020909101359150565b600080604083850312156118b557600080fd5b6118be836117ca565b91506118cc602084016117ca565b90509250929050565b634e487b7160e01b600052601160045260246000fd5b6000828210156118fd576118fd6118d5565b500390565b60006020828403121561191457600080fd5b5051919050565b6000816000190483118215151615611935576119356118d5565b500290565b60008261195757634e487b7160e01b600052601260045260246000fd5b500490565b60006020828403121561196e57600080fd5b815180151581146116ec57600080fd5b602080825260159082015274151bdad95b881d1c985b9cd9995c8819985a5b1959605a1b604082015260600190565b6001600160a01b039384168152919092166020820152604081019190915260600190565b600082198211156119e4576119e46118d5565b50019056fea2646970667358221220effce838a2d1e3d99bad4f784d80c7ba6df6854a53ba68c32dcd429a9c0ccfb464736f6c634300080c0033a26469706673582212200585a913dfe6e8892140fa9c00a83740058060be5f00e9d3484501044b1fc7fe64736f6c634300080c0033",
  "immutableReferences": {},
  "source": "// SPDX-License-Identifier: MIT\npragma solidity ^0.8.9;\n\nimport \"./LiquidityPool.sol\";\n\ncontract LiquidityPoolFactory {\n    address[] public tokens;\n    mapping(address => uint) public tokenIndex;\n\n    mapping(address => mapping(address => address)) public pools;\n    mapping(address => address[]) public tokenToPools;\n\n    event LiquidityPoolCreated(\n        address indexed tokenA,\n        address indexed tokenB,\n        address pool\n    );\n\n    function createLiquidityPool(address tokenA, address tokenB) external {\n        require(tokenA != tokenB, \"Tokens must be different\");\n        require(!hasPool(tokenA, tokenB), \"Pool already exists\");\n\n        address newPool = address(new LiquidityPool(tokenA, tokenB));\n        pools[tokenA][tokenB] = newPool;\n        pools[tokenB][tokenA] = newPool;\n        tokenToPools[tokenA].push(newPool);\n        tokenToPools[tokenB].push(newPool);\n\n        if (!tokenExists(tokenA)) {\n            addToken(tokenA);\n        }\n\n        if (!tokenExists(tokenB)) {\n            addToken(tokenB);\n        }\n\n        emit LiquidityPoolCreated(tokenA, tokenB, newPool);\n    }\n\n    function getLiquidityPool(\n        address tokenA,\n        address tokenB\n    ) external view returns (address) {\n        return pools[tokenA][tokenB];\n    }\n\n    function addToken(address token) internal {\n        require(!tokenExists(token), \"Token already exists\");\n        tokens.push(token);\n        tokenIndex[token] = tokens.length - 1;\n    }\n\n    function tokenExists(address token) internal view returns (bool) {\n        return\n            tokenIndex[token] > 0 ||\n            (tokenIndex[token] == 0 && tokens.length > 0 && tokens[0] == token);\n    }\n\n    function hasPool(\n        address tokenA,\n        address tokenB\n    ) public view returns (bool) {\n        return pools[tokenA][tokenB] != address(0);\n    }\n\n    function getTokensCount() public view returns (uint256) {\n        return tokens.length;\n    }\n\n    function getAllPairings()\n        external\n        view\n        returns (address[] memory tokens, address[][] memory pairs)\n    {\n        tokens = new address[](tokens.length);\n        pairs = new address[][](tokens.length);\n\n        for (uint i = 0; i < tokens.length; i++) {\n            tokens[i] = tokens[i];\n            pairs[i] = tokenToPools[tokens[i]];\n        }\n\n        return (tokens, pairs);\n    }\n\n    function getTokenPools(\n        address token\n    ) public view returns (address[] memory) {\n        return tokenToPools[token];\n    }\n}\n",
  "sourcePath": "C:\\Users\\surge\\Desktop\\dapp-projects\\liquidip\\contracts\\LiquidityPoolFactory.sol",
  "compiler": {
    "name": "solc",
    "version": "0.8.12+commit.f00d7308.Emscripten.clang"
  },
  "schemaVersion": "3.4.15",
  "updatedAt": "2023-08-15T05:05:28.269Z",
  "devdoc": {
    "kind": "dev",
    "methods": {},
    "version": 1
  },
  "userdoc": {
    "kind": "user",
    "methods": {},
    "version": 1
  }
}