{
  "contractName": "LiquidityPool",
  "abi": [
    {
      "inputs": [
        {
          "internalType": "address",
          "name": "_token0",
          "type": "address"
        },
        {
          "internalType": "address",
          "name": "_token1",
          "type": "address"
        }
      ],
      "stateMutability": "nonpayable",
      "type": "constructor"
    },
    {
      "anonymous": false,
      "inputs": [
        {
          "indexed": true,
          "internalType": "address",
          "name": "from",
          "type": "address"
        },
        {
          "indexed": true,
          "internalType": "address",
          "name": "to",
          "type": "address"
        },
        {
          "indexed": false,
          "internalType": "uint256",
          "name": "amount",
          "type": "uint256"
        }
      ],
      "name": "Approval",
      "type": "event"
    },
    {
      "anonymous": false,
      "inputs": [
        {
          "indexed": true,
          "internalType": "address",
          "name": "borrower",
          "type": "address"
        },
        {
          "indexed": true,
          "internalType": "address",
          "name": "token",
          "type": "address"
        },
        {
          "indexed": false,
          "internalType": "uint256",
          "name": "amount",
          "type": "uint256"
        },
        {
          "indexed": false,
          "internalType": "uint256",
          "name": "fee",
          "type": "uint256"
        }
      ],
      "name": "FlashLoan",
      "type": "event"
    },
    {
      "anonymous": false,
      "inputs": [
        {
          "indexed": true,
          "internalType": "address",
          "name": "user",
          "type": "address"
        },
        {
          "indexed": false,
          "internalType": "uint256",
          "name": "amount",
          "type": "uint256"
        }
      ],
      "name": "LiquidityAdded",
      "type": "event"
    },
    {
      "anonymous": false,
      "inputs": [
        {
          "indexed": true,
          "internalType": "address",
          "name": "user",
          "type": "address"
        },
        {
          "indexed": false,
          "internalType": "uint256",
          "name": "lpAmount",
          "type": "uint256"
        }
      ],
      "name": "LiquidityRemoved",
      "type": "event"
    },
    {
      "anonymous": false,
      "inputs": [
        {
          "indexed": true,
          "internalType": "address",
          "name": "user",
          "type": "address"
        },
        {
          "indexed": false,
          "internalType": "uint256",
          "name": "amountIn",
          "type": "uint256"
        },
        {
          "indexed": false,
          "internalType": "uint256",
          "name": "amountOut",
          "type": "uint256"
        }
      ],
      "name": "TokensSwapped",
      "type": "event"
    },
    {
      "anonymous": false,
      "inputs": [
        {
          "indexed": true,
          "internalType": "address",
          "name": "from",
          "type": "address"
        },
        {
          "indexed": true,
          "internalType": "address",
          "name": "to",
          "type": "address"
        },
        {
          "indexed": false,
          "internalType": "uint256",
          "name": "amount",
          "type": "uint256"
        }
      ],
      "name": "Transfer",
      "type": "event"
    },
    {
      "inputs": [
        {
          "internalType": "address",
          "name": "",
          "type": "address"
        },
        {
          "internalType": "address",
          "name": "",
          "type": "address"
        }
      ],
      "name": "allowance",
      "outputs": [
        {
          "internalType": "uint256",
          "name": "",
          "type": "uint256"
        }
      ],
      "stateMutability": "view",
      "type": "function"
    },
    {
      "inputs": [
        {
          "internalType": "address",
          "name": "_spender",
          "type": "address"
        },
        {
          "internalType": "uint256",
          "name": "_value",
          "type": "uint256"
        }
      ],
      "name": "approve",
      "outputs": [
        {
          "internalType": "bool",
          "name": "success",
          "type": "bool"
        }
      ],
      "stateMutability": "nonpayable",
      "type": "function"
    },
    {
      "inputs": [
        {
          "internalType": "address",
          "name": "",
          "type": "address"
        }
      ],
      "name": "balanceOf",
      "outputs": [
        {
          "internalType": "uint256",
          "name": "",
          "type": "uint256"
        }
      ],
      "stateMutability": "view",
      "type": "function"
    },
    {
      "inputs": [],
      "name": "decimals",
      "outputs": [
        {
          "internalType": "uint8",
          "name": "",
          "type": "uint8"
        }
      ],
      "stateMutability": "view",
      "type": "function"
    },
    {
      "inputs": [],
      "name": "name",
      "outputs": [
        {
          "internalType": "string",
          "name": "",
          "type": "string"
        }
      ],
      "stateMutability": "view",
      "type": "function"
    },
    {
      "inputs": [],
      "name": "symbol",
      "outputs": [
        {
          "internalType": "string",
          "name": "",
          "type": "string"
        }
      ],
      "stateMutability": "view",
      "type": "function"
    },
    {
      "inputs": [],
      "name": "token0",
      "outputs": [
        {
          "internalType": "contract IERC20",
          "name": "",
          "type": "address"
        }
      ],
      "stateMutability": "view",
      "type": "function"
    },
    {
      "inputs": [],
      "name": "token1",
      "outputs": [
        {
          "internalType": "contract IERC20",
          "name": "",
          "type": "address"
        }
      ],
      "stateMutability": "view",
      "type": "function"
    },
    {
      "inputs": [],
      "name": "totalSupply",
      "outputs": [
        {
          "internalType": "uint256",
          "name": "",
          "type": "uint256"
        }
      ],
      "stateMutability": "view",
      "type": "function"
    },
    {
      "inputs": [
        {
          "internalType": "address",
          "name": "_to",
          "type": "address"
        },
        {
          "internalType": "uint256",
          "name": "_amount",
          "type": "uint256"
        }
      ],
      "name": "transfer",
      "outputs": [
        {
          "internalType": "bool",
          "name": "",
          "type": "bool"
        }
      ],
      "stateMutability": "nonpayable",
      "type": "function"
    },
    {
      "inputs": [
        {
          "internalType": "address",
          "name": "_from",
          "type": "address"
        },
        {
          "internalType": "address",
          "name": "_to",
          "type": "address"
        },
        {
          "internalType": "uint256",
          "name": "_amount",
          "type": "uint256"
        }
      ],
      "name": "transferFrom",
      "outputs": [
        {
          "internalType": "bool",
          "name": "",
          "type": "bool"
        }
      ],
      "stateMutability": "nonpayable",
      "type": "function"
    },
    {
      "inputs": [
        {
          "internalType": "uint256",
          "name": "amountToken0",
          "type": "uint256"
        },
        {
          "internalType": "uint256",
          "name": "amountToken1",
          "type": "uint256"
        }
      ],
      "name": "addLiquidity",
      "outputs": [],
      "stateMutability": "nonpayable",
      "type": "function"
    },
    {
      "inputs": [
        {
          "internalType": "uint256",
          "name": "lpAmount",
          "type": "uint256"
        }
      ],
      "name": "removeLiquidity",
      "outputs": [],
      "stateMutability": "nonpayable",
      "type": "function"
    },
    {
      "inputs": [
        {
          "internalType": "address",
          "name": "tokenIn",
          "type": "address"
        },
        {
          "internalType": "address",
          "name": "tokenOut",
          "type": "address"
        },
        {
          "internalType": "uint256",
          "name": "amountIn",
          "type": "uint256"
        }
      ],
      "name": "swapTokens",
      "outputs": [
        {
          "internalType": "uint256",
          "name": "",
          "type": "uint256"
        }
      ],
      "stateMutability": "nonpayable",
      "type": "function"
    },
    {
      "inputs": [
        {
          "internalType": "address",
          "name": "tokenIn",
          "type": "address"
        },
        {
          "internalType": "address",
          "name": "tokenOut",
          "type": "address"
        },
        {
          "internalType": "uint256",
          "name": "amountIn",
          "type": "uint256"
        }
      ],
      "name": "getAmountOut",
      "outputs": [
        {
          "internalType": "uint256",
          "name": "",
          "type": "uint256"
        }
      ],
      "stateMutability": "view",
      "type": "function"
    },
    {
      "inputs": [
        {
          "internalType": "address",
          "name": "borrower",
          "type": "address"
        },
        {
          "internalType": "address",
          "name": "token",
          "type": "address"
        },
        {
          "internalType": "uint256",
          "name": "amount",
          "type": "uint256"
        }
      ],
      "name": "flashLoan",
      "outputs": [],
      "stateMutability": "nonpayable",
      "type": "function"
    }
  ],
  "bytecode": "0x608060405234801562000010575f80fd5b5060405162001b9e38038062001b9e833981016040819052620000339162000081565b600280546001600160a01b039384166001600160a01b03199182161790915560038054929093169116179055620000b7565b80516001600160a01b03811681146200007c575f80fd5b919050565b5f806040838503121562000093575f80fd5b6200009e8362000065565b9150620000ae6020840162000065565b90509250929050565b611ad980620000c55f395ff3fe608060405234801561000f575f80fd5b50600436106100fb575f3560e01c806395d89b4111610093578063a9059cbb11610063578063a9059cbb14610269578063d21220a71461027c578063dd62ed3e1461028f578063ec6cc0cc146102b9575f80fd5b806395d89b411461020c5780639c8f9f231461022e5780639cd441da146102435780639d9638a114610256575f80fd5b806323b872dd116100ce57806323b872dd146101ad578063313ce567146101c05780634aa06652146101da57806370a08231146101ed575f80fd5b806306fdde03146100ff578063095ea7b3146101485780630dfe16811461016b57806318160ddd14610196575b5f80fd5b610132604051806040016040528060148152602001732634b8bab4b234ba3c902837b7b6102a37b5b2b760611b81525081565b60405161013f9190611862565b60405180910390f35b61015b6101563660046118c8565b6102cc565b604051901515815260200161013f565b60025461017e906001600160a01b031681565b6040516001600160a01b03909116815260200161013f565b61019f60045481565b60405190815260200161013f565b61015b6101bb3660046118f0565b610387565b6101c8601281565b60405160ff909116815260200161013f565b61019f6101e83660046118f0565b61044d565b61019f6101fb366004611929565b5f6020819052908152604090205481565b6101326040518060400160405280600381526020016213141560ea1b81525081565b61024161023c366004611942565b61067d565b005b610241610251366004611959565b610945565b6102416102643660046118f0565b610cc1565b61015b6102773660046118c8565b611053565b60035461017e906001600160a01b031681565b61019f61029d366004611979565b600160209081525f928352604080842090915290825290205481565b61019f6102c73660046118f0565b611068565b335f908152602081905260408120548211156103235760405162461bcd60e51b81526020600482015260116024820152704e6f7420656e6f75676820746f6b656e7360781b60448201526064015b60405180910390fd5b335f8181526001602090815260408083206001600160a01b03881680855290835292819020869055518581529192917f8c5be1e5ebec7d5bd14f71427d1e84f3dd0314c0f7b2291e5b200ac8c7c3b925910160405180910390a35060015b92915050565b6001600160a01b038084165f9081526001602090815260408083209386168352929052908120548211156103fd5760405162461bcd60e51b815260206004820152601f60248201527f4e6f7420616c6c6f77656420746f2073656e64207468697320616d6f756e7400604482015260640161031a565b6104088484846114fa565b6001600160a01b038085165f9081526001602090815260408083209387168352929052908120805484929061043e9084906119be565b90915550600195945050505050565b6002545f9081906001600160a01b038681169116146104d5576003546040516370a0823160e01b81523060048201526001600160a01b03909116906370a0823190602401602060405180830381865afa1580156104ac573d5f803e3d5ffd5b505050506040513d601f19601f820116820180604052508101906104d091906119d1565b61053f565b6002546040516370a0823160e01b81523060048201526001600160a01b03909116906370a0823190602401602060405180830381865afa15801561051b573d5f803e3d5ffd5b505050506040513d601f19601f8201168201806040525081019061053f91906119d1565b6002549091505f906001600160a01b038681169116146105c8576003546040516370a0823160e01b81523060048201526001600160a01b03909116906370a0823190602401602060405180830381865afa15801561059f573d5f803e3d5ffd5b505050506040513d601f19601f820116820180604052508101906105c391906119d1565b610632565b6002546040516370a0823160e01b81523060048201526001600160a01b03909116906370a0823190602401602060405180830381865afa15801561060e573d5f803e3d5ffd5b505050506040513d601f19601f8201168201806040525081019061063291906119d1565b90505f8261064083876119e8565b61064a91906119ff565b90505f6103e861065b8360036119e8565b61066591906119ff565b905061067181836119be565b98975050505050505050565b61068733826116d3565b6002546040516370a0823160e01b81523060048201525f916001600160a01b0316906370a0823190602401602060405180830381865afa1580156106cd573d5f803e3d5ffd5b505050506040513d601f19601f820116820180604052508101906106f191906119d1565b6003546040516370a0823160e01b81523060048201529192505f916001600160a01b03909116906370a0823190602401602060405180830381865afa15801561073c573d5f803e3d5ffd5b505050506040513d601f19601f8201168201806040525081019061076091906119d1565b90505f600454838561077291906119e8565b61077c91906119ff565b90505f600454838661078e91906119e8565b61079891906119ff565b90505f821180156107a857505f81115b6107ed5760405162461bcd60e51b8152602060048201526016602482015275496e73756666696369656e74206c697175696469747960501b604482015260640161031a565b60025460405163a9059cbb60e01b8152336004820152602481018490526001600160a01b039091169063a9059cbb906044016020604051808303815f875af115801561083b573d5f803e3d5ffd5b505050506040513d601f19601f8201168201806040525081019061085f9190611a1e565b61087b5760405162461bcd60e51b815260040161031a90611a3d565b60035460405163a9059cbb60e01b8152336004820152602481018390526001600160a01b039091169063a9059cbb906044016020604051808303815f875af11580156108c9573d5f803e3d5ffd5b505050506040513d601f19601f820116820180604052508101906108ed9190611a1e565b6109095760405162461bcd60e51b815260040161031a90611a3d565b60405185815233907fc2c3f06e49b9f15e7b4af9055e183b0d73362e033ad82a07dec9bf98401717199060200160405180910390a25050505050565b5f8211801561095357505f81115b61099f5760405162461bcd60e51b815260206004820152601e60248201527f416d6f756e7473206d7573742062652067726561746572207468616e20300000604482015260640161031a565b6002546040516323b872dd60e01b81526001600160a01b03909116906323b872dd906109d390339030908790600401611a6c565b6020604051808303815f875af11580156109ef573d5f803e3d5ffd5b505050506040513d601f19601f82011682018060405250810190610a139190611a1e565b610a585760405162461bcd60e51b8152602060048201526016602482015275151bdad95b8c081d1c985b9cd9995c8819985a5b195960521b604482015260640161031a565b6003546040516323b872dd60e01b81526001600160a01b03909116906323b872dd90610a8c90339030908690600401611a6c565b6020604051808303815f875af1158015610aa8573d5f803e3d5ffd5b505050506040513d601f19601f82011682018060405250810190610acc9190611a1e565b610b115760405162461bcd60e51b8152602060048201526016602482015275151bdad95b8c481d1c985b9cd9995c8819985a5b195960521b604482015260640161031a565b6004545f818103610b3a576107d0610b298486611a90565b610b3391906119ff565b9050610c7c565b6002546040516370a0823160e01b81523060048201525f916001600160a01b0316906370a0823190602401602060405180830381865afa158015610b80573d5f803e3d5ffd5b505050506040513d601f19601f82011682018060405250810190610ba491906119d1565b6003546040516370a0823160e01b81523060048201529192505f916001600160a01b03909116906370a0823190602401602060405180830381865afa158015610bef573d5f803e3d5ffd5b505050506040513d601f19601f82011682018060405250810190610c1391906119d1565b90505f82610c2186896119e8565b610c2b91906119ff565b90505f82610c3987896119e8565b610c4391906119ff565b90505f610c5083836117cc565b90506107d088610c608b84611a90565b610c6a9190611a90565b610c7491906119ff565b955050505050505b610c8633826117e3565b60405181815233907fc17cea59c2955cb181b03393209566960365771dbba9dc3d510180e7cb3120889060200160405180910390a250505050565b6002546001600160a01b0383811691161480610cea57506003546001600160a01b038381169116145b610d2f5760405162461bcd60e51b8152602060048201526016602482015275151bdad95b881b9bdd081a5b881d1a1a5cc81c1bdbdb60521b604482015260640161031a565b6040516370a0823160e01b81523060048201525f906001600160a01b038416906370a0823190602401602060405180830381865afa158015610d73573d5f803e3d5ffd5b505050506040513d601f19601f82011682018060405250810190610d9791906119d1565b905081811015610de95760405162461bcd60e51b815260206004820152601c60248201527f4e6f7420656e6f756768206c697175696469747920696e20706f6f6c00000000604482015260640161031a565b5f612710610df88460056119e8565b610e0291906119ff565b60405163a9059cbb60e01b81526001600160a01b038781166004830152602482018690529192509085169063a9059cbb906044016020604051808303815f875af1158015610e52573d5f803e3d5ffd5b505050506040513d601f19601f82011682018060405250810190610e769190611a1e565b610ec25760405162461bcd60e51b815260206004820152601960248201527f436f756c64206e6f74207472616e7366657220746f6b656e7300000000000000604482015260640161031a565b6040516332978f7960e01b815260048101849052602481018290523060448201526001600160a01b038616906332978f79906064015f604051808303815f87803b158015610f0e575f80fd5b505af1158015610f20573d5f803e3d5ffd5b50506040516370a0823160e01b81523060048201525f92506001600160a01b03871691506370a0823190602401602060405180830381865afa158015610f68573d5f803e3d5ffd5b505050506040513d601f19601f82011682018060405250810190610f8c91906119d1565b9050610f988284611a90565b8114610ff55760405162461bcd60e51b815260206004820152602660248201527f466c617368206c6f616e206861736e2774206265656e2072657061696420776960448201526574682066656560d01b606482015260840161031a565b846001600160a01b0316866001600160a01b03167f0d7d75e01ab95780d3cd1c8ec0dd6c2ce19e3a20427eec8bf53283b6fb8e95f08685604051611043929190918252602082015260400190565b60405180910390a3505050505050565b5f61105f3384846114fa565b50600192915050565b6002545f906001600160a01b038581169116148061109357506003546001600160a01b038581169116145b6110d55760405162461bcd60e51b815260206004820152601360248201527224b73b30b634b21034b7383aba103a37b5b2b760691b604482015260640161031a565b6002546001600160a01b03848116911614806110fe57506003546001600160a01b038481169116145b6111415760405162461bcd60e51b815260206004820152601460248201527324b73b30b634b21037baba383aba103a37b5b2b760611b604482015260640161031a565b826001600160a01b0316846001600160a01b0316036111b45760405162461bcd60e51b815260206004820152602960248201527f496e70757420616e64206f757470757420746f6b656e73206d75737420626520604482015268191a5999995c995b9d60ba1b606482015260840161031a565b5f82116112035760405162461bcd60e51b815260206004820152601d60248201527f416d6f756e74206d7573742062652067726561746572207468616e2030000000604482015260640161031a565b5f61120f85858561044d565b90505f81116112605760405162461bcd60e51b815260206004820152601d60248201527f416d6f756e74206d7573742062652067726561746572207468616e2030000000604482015260640161031a565b6002546001600160a01b0390811690861603611399576002546040516323b872dd60e01b81526001600160a01b03909116906323b872dd906112aa90339030908890600401611a6c565b6020604051808303815f875af11580156112c6573d5f803e3d5ffd5b505050506040513d601f19601f820116820180604052508101906112ea9190611a1e565b6113065760405162461bcd60e51b815260040161031a90611a3d565b60035460405163a9059cbb60e01b8152336004820152602481018390526001600160a01b039091169063a9059cbb906044016020604051808303815f875af1158015611354573d5f803e3d5ffd5b505050506040513d601f19601f820116820180604052508101906113789190611a1e565b6113945760405162461bcd60e51b815260040161031a90611a3d565b6114b7565b6003546040516323b872dd60e01b81526001600160a01b03909116906323b872dd906113cd90339030908890600401611a6c565b6020604051808303815f875af11580156113e9573d5f803e3d5ffd5b505050506040513d601f19601f8201168201806040525081019061140d9190611a1e565b6114295760405162461bcd60e51b815260040161031a90611a3d565b60025460405163a9059cbb60e01b8152336004820152602481018390526001600160a01b039091169063a9059cbb906044016020604051808303815f875af1158015611477573d5f803e3d5ffd5b505050506040513d601f19601f8201168201806040525081019061149b9190611a1e565b6114b75760405162461bcd60e51b815260040161031a90611a3d565b604080518481526020810183905233917f18704ae982dcd24a1beeeed3ecf045ab0520d7b7519b97adf3e4f40bf7efe339910160405180910390a2949350505050565b6001600160a01b03831661155e5760405162461bcd60e51b815260206004820152602560248201527f45524332303a207472616e736665722066726f6d20746865207a65726f206164604482015264647265737360d81b606482015260840161031a565b6001600160a01b0382166115c05760405162461bcd60e51b815260206004820152602360248201527f45524332303a207472616e7366657220746f20746865207a65726f206164647260448201526265737360e81b606482015260840161031a565b6001600160a01b0383165f908152602081905260409020548111156116275760405162461bcd60e51b815260206004820152601f60248201527f42616c616e6365206f662073656e646572206973206e6f7420656e6f75676800604482015260640161031a565b6001600160a01b0383165f908152602081905260408120805483929061164e9084906119be565b90915550506001600160a01b0382165f908152602081905260408120805483929061167a908490611a90565b92505081905550816001600160a01b0316836001600160a01b03167fddf252ad1be2c89b69c2b068fc378daa952ba7f163c4a11628f55a4df523b3ef836040516116c691815260200190565b60405180910390a3505050565b6001600160a01b0382165f908152602081905260409020548111156117455760405162461bcd60e51b815260206004820152602260248201527f45524332303a206275726e20616d6f756e7420657863656564732062616c616e604482015261636560f01b606482015260840161031a565b8060045f82825461175691906119be565b90915550506001600160a01b0382165f90815260208190526040812080548392906117829084906119be565b90915550506040518181525f906001600160a01b038416907fddf252ad1be2c89b69c2b068fc378daa952ba7f163c4a11628f55a4df523b3ef906020015b60405180910390a35050565b5f8183106117da57816117dc565b825b9392505050565b8060045f8282546117f49190611a90565b90915550506001600160a01b0382165f9081526020819052604081208054839290611820908490611a90565b90915550506040518181526001600160a01b038316905f907fddf252ad1be2c89b69c2b068fc378daa952ba7f163c4a11628f55a4df523b3ef906020016117c0565b5f6020808352835180828501525f5b8181101561188d57858101830151858201604001528201611871565b505f604082860101526040601f19601f8301168501019250505092915050565b80356001600160a01b03811681146118c3575f80fd5b919050565b5f80604083850312156118d9575f80fd5b6118e2836118ad565b946020939093013593505050565b5f805f60608486031215611902575f80fd5b61190b846118ad565b9250611919602085016118ad565b9150604084013590509250925092565b5f60208284031215611939575f80fd5b6117dc826118ad565b5f60208284031215611952575f80fd5b5035919050565b5f806040838503121561196a575f80fd5b50508035926020909101359150565b5f806040838503121561198a575f80fd5b611993836118ad565b91506119a1602084016118ad565b90509250929050565b634e487b7160e01b5f52601160045260245ffd5b81810381811115610381576103816119aa565b5f602082840312156119e1575f80fd5b5051919050565b8082028115828204841417610381576103816119aa565b5f82611a1957634e487b7160e01b5f52601260045260245ffd5b500490565b5f60208284031215611a2e575f80fd5b815180151581146117dc575f80fd5b602080825260159082015274151bdad95b881d1c985b9cd9995c8819985a5b1959605a1b604082015260600190565b6001600160a01b039384168152919092166020820152604081019190915260600190565b80820180821115610381576103816119aa56fea2646970667358221220fb8ba1773c7c45c0e0247a510200d6ae4c370c82ad96631940336b8da3ac541764736f6c63430008150033",
  "immutableReferences": {},
  "source": "// SPDX-License-Identifier: MIT\r\npragma solidity ^0.8.0;\r\n\r\nimport \"./IERC20.sol\";\r\nimport \"./ERC20.sol\";\r\nimport \"./IFlashLoanReceiver.sol\";\r\n\r\ncontract LiquidityPool is ERC20 {\r\n    IERC20 public token0;\r\n    IERC20 public token1;\r\n\r\n    string public constant name = \"Liquidity Pool Token\";\r\n    string public constant symbol = \"LPT\";\r\n    uint8 public constant decimals = 18;\r\n    uint256 public totalSupply;\r\n\r\n    event LiquidityAdded(address indexed user, uint256 amount);\r\n    event LiquidityRemoved(address indexed user, uint256 lpAmount);\r\n    event TokensSwapped(\r\n        address indexed user,\r\n        uint256 amountIn,\r\n        uint256 amountOut\r\n    );\r\n\r\n    event FlashLoan(\r\n        address indexed borrower,\r\n        address indexed token,\r\n        uint amount,\r\n        uint fee\r\n    );\r\n\r\n    constructor(address _token0, address _token1) {\r\n        token0 = IERC20(_token0);\r\n        token1 = IERC20(_token1);\r\n    }\r\n\r\n    function addLiquidity(uint amountToken0, uint amountToken1) external {\r\n        require(\r\n            amountToken0 > 0 && amountToken1 > 0,\r\n            \"Amounts must be greater than 0\"\r\n        );\r\n        require(\r\n            token0.transferFrom(msg.sender, address(this), amountToken0),\r\n            \"Token0 transfer failed\"\r\n        );\r\n        require(\r\n            token1.transferFrom(msg.sender, address(this), amountToken1),\r\n            \"Token1 transfer failed\"\r\n        );\r\n        // uint totalLiquidity = totalSupply == 0\r\n        //     ? sqrt(amountToken0 * amountToken1)\r\n        //     : totalSupply;\r\n\r\n        uint256 _totalSupply = totalSupply; // for gas optimization\r\n        uint256 lpTokenAmount;\r\n\r\n        if (_totalSupply == 0) {\r\n            lpTokenAmount = (amountToken0 + amountToken1) / 2000;\r\n        } else {\r\n            uint256 token0Reserve = token0.balanceOf(address(this));\r\n            uint256 token1Reserve = token1.balanceOf(address(this));\r\n\r\n            // Calculate the LP tokens for each input based on the reserves\r\n            uint256 lpTokenAmountForToken0 = (amountToken0 * _totalSupply) /\r\n                token0Reserve;\r\n            uint256 lpTokenAmountForToken1 = (amountToken1 * _totalSupply) /\r\n                token1Reserve;\r\n\r\n            // The LP tokens issued is the lesser of the two values to maintain the ratio\r\n            uint256 liquidityBasedOnReserves = min(\r\n                lpTokenAmountForToken0,\r\n                lpTokenAmountForToken1\r\n            );\r\n\r\n            lpTokenAmount =\r\n                (liquidityBasedOnReserves + amountToken0 + amountToken1) /\r\n                2000;\r\n        }\r\n\r\n        _mint(msg.sender, lpTokenAmount);\r\n        emit LiquidityAdded(msg.sender, lpTokenAmount);\r\n    }\r\n\r\n    function removeLiquidity(uint256 lpAmount) external {\r\n        _burn(msg.sender, lpAmount);\r\n        uint256 token0Reserve = token0.balanceOf(address(this));\r\n        uint256 token1Reserve = token1.balanceOf(address(this));\r\n\r\n        uint256 token0Amount = (lpAmount * token0Reserve) / totalSupply;\r\n        uint256 token1Amount = (lpAmount * token1Reserve) / totalSupply;\r\n\r\n        require(token0Amount > 0 && token1Amount > 0, \"Insufficient liquidity\");\r\n        require(\r\n            token0.transfer(msg.sender, token0Amount),\r\n            \"Token transfer failed\"\r\n        );\r\n        require(\r\n            token1.transfer(msg.sender, token1Amount),\r\n            \"Token transfer failed\"\r\n        );\r\n        emit LiquidityRemoved(msg.sender, lpAmount);\r\n    }\r\n\r\n    function swapTokens(\r\n        address tokenIn,\r\n        address tokenOut,\r\n        uint amountIn\r\n    ) external returns (uint) {\r\n        require(\r\n            tokenIn == address(token0) || tokenIn == address(token1),\r\n            \"Invalid input token\"\r\n        );\r\n        require(\r\n            tokenOut == address(token0) || tokenOut == address(token1),\r\n            \"Invalid output token\"\r\n        );\r\n        require(\r\n            tokenIn != tokenOut,\r\n            \"Input and output tokens must be different\"\r\n        );\r\n        require(amountIn > 0, \"Amount must be greater than 0\");\r\n\r\n        uint amountOut = getAmountOut(tokenIn, tokenOut, amountIn);\r\n        require(amountOut > 0, \"Amount must be greater than 0\");\r\n\r\n        if (tokenIn == address(token0)) {\r\n            require(\r\n                token0.transferFrom(msg.sender, address(this), amountIn),\r\n                \"Token transfer failed\"\r\n            );\r\n            require(\r\n                token1.transfer(msg.sender, amountOut),\r\n                \"Token transfer failed\"\r\n            );\r\n        } else {\r\n            require(\r\n                token1.transferFrom(msg.sender, address(this), amountIn),\r\n                \"Token transfer failed\"\r\n            );\r\n            require(\r\n                token0.transfer(msg.sender, amountOut),\r\n                \"Token transfer failed\"\r\n            );\r\n        }\r\n\r\n        emit TokensSwapped(msg.sender, amountIn, amountOut);\r\n        return amountOut;\r\n    }\r\n\r\n    function getAmountOut(\r\n        address tokenIn,\r\n        address tokenOut,\r\n        uint amountIn\r\n    ) public view returns (uint) {\r\n        uint tokenInReserve = tokenIn == address(token0)\r\n            ? token0.balanceOf(address(this))\r\n            : token1.balanceOf(address(this));\r\n        uint tokenOutReserve = tokenOut == address(token0)\r\n            ? token0.balanceOf(address(this))\r\n            : token1.balanceOf(address(this));\r\n\r\n        uint amountOUtBeforeFee = (amountIn * tokenOutReserve) / tokenInReserve;\r\n        uint feeAmount = (amountOUtBeforeFee * 3) / 1000;\r\n        return amountOUtBeforeFee - feeAmount;\r\n    }\r\n\r\n    function flashLoan(address borrower, address token, uint amount) external {\r\n        require(\r\n            token == address(token0) || token == address(token1),\r\n            \"Token not in this pool\"\r\n        );\r\n\r\n        uint balanceBefore = IERC20(token).balanceOf(address(this));\r\n        require(balanceBefore >= amount, \"Not enough liquidity in pool\");\r\n\r\n        uint fee = (amount * 5) / 10000;\r\n\r\n        require(\r\n            IERC20(token).transfer(borrower, amount),\r\n            \"Could not transfer tokens\"\r\n        );\r\n\r\n        IFlashLoanReceiver(borrower).executeFlashloan(\r\n            amount,\r\n            fee,\r\n            address(this)\r\n        );\r\n\r\n        uint balanceAfter = IERC20(token).balanceOf(address(this));\r\n        require(\r\n            balanceAfter == balanceBefore + fee,\r\n            \"Flash loan hasn't been repaid with fee\"\r\n        );\r\n\r\n        emit FlashLoan(borrower, token, amount, fee);\r\n    }\r\n\r\n    function _mint(address _to, uint _amount) internal {\r\n        totalSupply += _amount;\r\n        balanceOf[_to] += _amount;\r\n        emit Transfer(address(0), _to, _amount);\r\n    }\r\n\r\n    function _burn(address _from, uint _amount) internal {\r\n        require(\r\n            balanceOf[_from] >= _amount,\r\n            \"ERC20: burn amount exceeds balance\"\r\n        );\r\n        totalSupply -= _amount;\r\n        balanceOf[_from] -= _amount;\r\n        emit Transfer(_from, address(0), _amount);\r\n    }\r\n\r\n    // Utility function to calculate square root (for initial liquidity calculation)\r\n    function sqrt(uint256 x) internal pure returns (uint256) {\r\n        uint z = (x + 1) / 2;\r\n        uint y = x;\r\n        while (z < x) {\r\n            y = z;\r\n            z = (x / z + z) / 2;\r\n        }\r\n        return y;\r\n    }\r\n\r\n    function min(uint256 a, uint256 b) internal pure returns (uint256) {\r\n        return a < b ? a : b;\r\n    }\r\n}\r\n",
  "sourcePath": "C:\\Users\\surge\\Desktop\\dapp-projects\\liquidip\\contracts\\LiquidityPool.sol",
  "compiler": {
    "name": "solc",
    "version": "0.8.21+commit.d9974bed.Emscripten.clang"
  },
  "schemaVersion": "3.4.15",
  "updatedAt": "2023-08-20T22:30:46.486Z",
  "devdoc": {
    "kind": "dev",
    "methods": {},
    "version": 1
  },
  "userdoc": {
    "kind": "user",
    "methods": {},
    "version": 1
  }
}