{
  "contractName": "Multicall",
  "abi": [
    {
      "inputs": [
        {
          "components": [
            {
              "internalType": "address",
              "name": "target",
              "type": "address"
            },
            {
              "internalType": "bytes",
              "name": "data",
              "type": "bytes"
            }
          ],
          "internalType": "struct Multicall.Call[]",
          "name": "_calls",
          "type": "tuple[]"
        }
      ],
      "name": "aggregate",
      "outputs": [
        {
          "components": [
            {
              "internalType": "bool",
              "name": "error",
              "type": "bool"
            },
            {
              "internalType": "bytes",
              "name": "result",
              "type": "bytes"
            }
          ],
          "internalType": "struct Multicall.CallResult[]",
          "name": "",
          "type": "tuple[]"
        }
      ],
      "stateMutability": "nonpayable",
      "type": "function"
    }
  ],
  "bytecode": "0x608060405234801561001057600080fd5b50610529806100206000396000f3fe608060405234801561001057600080fd5b506004361061002b5760003560e01c8063252dba4214610030575b600080fd5b61004361003e36600461023f565b610059565b6040516100509190610408565b60405180910390f35b60606000825167ffffffffffffffff811115610077576100776101cf565b6040519080825280602002602001820160405280156100bd57816020015b6040805180820190915260008152606060208201528152602001906001900390816100955790505b50905060005b83518110156101c85760008482815181106100e0576100e061047e565b6020026020010151905060008082600001516001600160a01b0316836020015160405161010d9190610494565b6000604051808303816000865af19150503d806000811461014a576040519150601f19603f3d011682016040523d82523d6000602084013e61014f565b606091505b509150915081819061017d5760405162461bcd60e51b815260040161017491906104b0565b60405180910390fd5b5060405180604001604052808315158152602001828152508585815181106101a7576101a761047e565b602002602001018190525050505080806101c0906104ca565b9150506100c3565b5092915050565b634e487b7160e01b600052604160045260246000fd5b6040805190810167ffffffffffffffff81118282101715610208576102086101cf565b60405290565b604051601f8201601f1916810167ffffffffffffffff81118282101715610237576102376101cf565b604052919050565b6000602080838503121561025257600080fd5b823567ffffffffffffffff8082111561026a57600080fd5b818501915085601f83011261027e57600080fd5b813581811115610290576102906101cf565b8060051b61029f85820161020e565b91825283810185019185810190898411156102b957600080fd5b86860192505b8383101561039f578235858111156102d75760008081fd5b86016040601f19828d0381018213156102f05760008081fd5b6102f86101e5565b838b01356001600160a01b03811681146103125760008081fd5b815283830135898111156103265760008081fd5b8085019450508d603f85011261033c5760008081fd5b8a84013589811115610350576103506101cf565b6103608c84601f8401160161020e565b92508083528e848287010111156103775760008081fd5b808486018d85013760009083018c0152808b01919091528452505091860191908601906102bf565b9998505050505050505050565b60005b838110156103c75781810151838201526020016103af565b838111156103d6576000848401525b50505050565b600081518084526103f48160208601602086016103ac565b601f01601f19169290920160200192915050565b60006020808301818452808551808352604092508286019150828160051b87010184880160005b8381101561047057888303603f19018552815180511515845287015187840187905261045d878501826103dc565b958801959350509086019060010161042f565b509098975050505050505050565b634e487b7160e01b600052603260045260246000fd5b600082516104a68184602087016103ac565b9190910192915050565b6020815260006104c360208301846103dc565b9392505050565b60006000198214156104ec57634e487b7160e01b600052601160045260246000fd5b506001019056fea264697066735822122037ce472b0ef4a1c470c77514bb938ee668ffbc3783aa91d98515645fea6637ef64736f6c634300080c0033",
  "immutableReferences": {},
  "source": "// SPDX-License-Identifier: MIT\npragma solidity ^0.8.0;\n\ncontract Multicall {\n    struct Call {\n        address target;\n        bytes data;\n    }\n\n    struct CallResult {\n        bool error;\n        bytes result;\n    }\n\n    function aggregate(\n        Call[] memory _calls\n    ) external returns (CallResult[] memory) {\n        CallResult[] memory _results = new CallResult[](_calls.length);\n        for (uint256 i = 0; i < _calls.length; i++) {\n            Call memory _call = _calls[i];\n            (bool success, bytes memory data) = _call.target.call(_call.data);\n            require(success, string(data));\n            _results[i] = CallResult(success, data);\n        }\n\n        return _results;\n    }\n}\n",
  "sourcePath": "C:\\Users\\surge\\Desktop\\dapp-projects\\liquidip\\contracts\\Multicall.sol",
  "compiler": {
    "name": "solc",
    "version": "0.8.12+commit.f00d7308.Emscripten.clang"
  },
  "schemaVersion": "3.4.15",
  "updatedAt": "2023-08-27T04:02:56.840Z",
  "devdoc": {
    "kind": "dev",
    "methods": {},
    "version": 1
  },
  "userdoc": {
    "kind": "user",
    "methods": {},
    "version": 1
  }
}