{
  "contractName": "Multicall",
  "abi": [
    {
      "inputs": [
        {
          "components": [
            {
              "internalType": "address",
              "name": "target",
              "type": "address"
            },
            {
              "internalType": "bytes",
              "name": "data",
              "type": "bytes"
            }
          ],
          "internalType": "struct Multicall.Call[]",
          "name": "_calls",
          "type": "tuple[]"
        }
      ],
      "name": "aggregate",
      "outputs": [
        {
          "components": [
            {
              "internalType": "bool",
              "name": "error",
              "type": "bool"
            },
            {
              "internalType": "bytes",
              "name": "result",
              "type": "bytes"
            }
          ],
          "internalType": "struct Multicall.CallResult[]",
          "name": "",
          "type": "tuple[]"
        }
      ],
      "stateMutability": "nonpayable",
      "type": "function"
    }
  ],
  "bytecode": "0x608060405234801561000f575f80fd5b506104f48061001d5f395ff3fe608060405234801561000f575f80fd5b5060043610610029575f3560e01c8063252dba421461002d575b5f80fd5b61004061003b366004610230565b610056565b60405161004d91906103de565b60405180910390f35b60605f825167ffffffffffffffff811115610073576100736101c2565b6040519080825280602002602001820160405280156100b857816020015b604080518082019091525f8152606060208201528152602001906001900390816100915790505b5090505f5b83518110156101bb575f8482815181106100d9576100d9610452565b602002602001015190505f80825f01516001600160a01b031683602001516040516101049190610466565b5f604051808303815f865af19150503d805f811461013d576040519150601f19603f3d011682016040523d82523d5f602084013e610142565b606091505b50915091508181906101705760405162461bcd60e51b81526004016101679190610481565b60405180910390fd5b50604051806040016040528083151581526020018281525085858151811061019a5761019a610452565b602002602001018190525050505080806101b39061049a565b9150506100bd565b5092915050565b634e487b7160e01b5f52604160045260245ffd5b6040805190810167ffffffffffffffff811182821017156101f9576101f96101c2565b60405290565b604051601f8201601f1916810167ffffffffffffffff81118282101715610228576102286101c2565b604052919050565b5f6020808385031215610241575f80fd5b823567ffffffffffffffff80821115610258575f80fd5b818501915085601f83011261026b575f80fd5b81358181111561027d5761027d6101c2565b8060051b61028c8582016101ff565b91825283810185019185810190898411156102a5575f80fd5b86860192505b83831015610384578235858111156102c2575f8081fd5b86016040601f19828d0381018213156102da575f8081fd5b6102e26101d6565b838b01356001600160a01b03811681146102fb575f8081fd5b8152838301358981111561030e575f8081fd5b8085019450508d603f850112610323575f8081fd5b8a84013589811115610337576103376101c2565b6103478c84601f840116016101ff565b92508083528e8482870101111561035d575f8081fd5b808486018d8501375f9083018c0152808b01919091528452505091860191908601906102ab565b9998505050505050505050565b5f5b838110156103ab578181015183820152602001610393565b50505f910152565b5f81518084526103ca816020860160208601610391565b601f01601f19169290920160200192915050565b5f6020808301818452808551808352604092508286019150828160051b8701018488015f5b8381101561044457888303603f190185528151805115158452870151878401879052610431878501826103b3565b9588019593505090860190600101610403565b509098975050505050505050565b634e487b7160e01b5f52603260045260245ffd5b5f8251610477818460208701610391565b9190910192915050565b602081525f61049360208301846103b3565b9392505050565b5f600182016104b757634e487b7160e01b5f52601160045260245ffd5b506001019056fea2646970667358221220e91f509596e7f8a14ac7514f272286e6128b47d2cda8f1b42c1abf0e53adba1a64736f6c63430008150033",
  "immutableReferences": {},
  "source": "// SPDX-License-Identifier: MIT\npragma solidity ^0.8.0;\n\ncontract Multicall {\n    struct Call {\n        address target;\n        bytes data;\n    }\n\n    struct CallResult {\n        bool error;\n        bytes result;\n    }\n\n    function aggregate(\n        Call[] memory _calls\n    ) external returns (CallResult[] memory) {\n        CallResult[] memory _results = new CallResult[](_calls.length);\n        for (uint256 i = 0; i < _calls.length; i++) {\n            Call memory _call = _calls[i];\n            (bool success, bytes memory data) = _call.target.call(_call.data);\n            require(success, string(data));\n            _results[i] = CallResult(success, data);\n        }\n\n        return _results;\n    }\n}\n",
  "sourcePath": "/media/scott/E8A0D408A0D3DB60/Users/surge/Desktop/dapp-projects/liquidip/contracts/Multicall.sol",
  "compiler": {
    "name": "solc",
    "version": "0.8.21+commit.d9974bed.Emscripten.clang"
  },
  "schemaVersion": "3.4.15",
  "updatedAt": "2023-08-25T16:43:49.263Z",
  "networkType": "ethereum",
  "devdoc": {
    "kind": "dev",
    "methods": {},
    "version": 1
  },
  "userdoc": {
    "kind": "user",
    "methods": {},
    "version": 1
  }
}