{
  "contractName": "PriceConsumerV3",
  "abi": [
    {
      "inputs": [
        {
          "internalType": "address",
          "name": "_addr",
          "type": "address"
        }
      ],
      "stateMutability": "nonpayable",
      "type": "constructor"
    },
    {
      "inputs": [],
      "name": "getLatestData",
      "outputs": [
        {
          "internalType": "int256",
          "name": "",
          "type": "int256"
        }
      ],
      "stateMutability": "view",
      "type": "function",
      "constant": true
    }
  ],
  "bytecode": "0x608060405234801561001057600080fd5b506040516101fb3803806101fb83398101604081905261002f91610054565b600080546001600160a01b0319166001600160a01b0392909216919091179055610084565b60006020828403121561006657600080fd5b81516001600160a01b038116811461007d57600080fd5b9392505050565b610168806100936000396000f3fe608060405234801561001057600080fd5b506004361061002b5760003560e01c8063ab757d6114610030575b600080fd5b61003861004a565b60405190815260200160405180910390f35b6000805460408051633fabe5a360e21b8152905183926001600160a01b03169163feaf968c9160048083019260a09291908290030181865afa158015610094573d6000803e3d6000fd5b505050506040513d601f19601f820116820180604052508101906100b891906100e2565b509195945050505050565b805169ffffffffffffffffffff811681146100dd57600080fd5b919050565b600080600080600060a086880312156100fa57600080fd5b610103866100c3565b9450602086015193506040860151925060608601519150610126608087016100c3565b9050929550929590935056fea264697066735822122034dedbee6f47f61fa913181ec6e4df95316ea593922ae065301478e8dcf948d464736f6c634300080c0033",
  "immutableReferences": {},
  "source": "// SPDX-License-Identifier: MIT\r\npragma solidity ^0.8.0;\r\n\r\nimport \"@chainlink/contracts/src/v0.8/interfaces/AggregatorV3Interface.sol\";\r\n\r\ncontract PriceConsumerV3 {\r\n    AggregatorV3Interface internal dataFeed;\r\n\r\n    constructor(address _addr) {\r\n        dataFeed = AggregatorV3Interface(_addr);\r\n    }\r\n\r\n    /**\r\n     * Returns the latest answer.\r\n     */\r\n    function getLatestData() public view returns (int) {\r\n        // prettier-ignore\r\n        (\r\n            /* uint80 roundID */,\r\n            int answer,\r\n            /*uint startedAt*/,\r\n            /*uint timeStamp*/,\r\n            /*uint80 answeredInRound*/\r\n        ) = dataFeed.latestRoundData();\r\n        return answer;\r\n    }\r\n}",
  "sourcePath": "C:\\Users\\surge\\Desktop\\dapp-projects\\liquidip\\contracts\\PriceConsumerV3.sol",
  "compiler": {
    "name": "solc",
    "version": "0.8.12+commit.f00d7308.Emscripten.clang"
  },
  "schemaVersion": "3.4.15",
  "updatedAt": "2023-08-27T21:11:15.335Z",
  "networkType": "ethereum",
  "devdoc": {
    "kind": "dev",
    "methods": {},
    "version": 1
  },
  "userdoc": {
    "kind": "user",
    "methods": {
      "getLatestData()": {
        "notice": "Returns the latest answer."
      }
    },
    "version": 1
  }
}